:020000041000EA
:1000000000B5324B212058609868022188439860DF
:10001000D860186158612E4B002199600221596106
:100020000121F02299502B49196001219960352056
:1000300000F044F80222904214D00621196600F024
:1000400034F8196E01211966002018661A6600F04E
:100050002CF8196E196E196E052000F02FF8012189
:100060000842F9D1002199601B49196000215960AB
:100070001A491B48016001219960EB211966A021F2
:10008000196600F012F800219960164914480160C1
:100090000121996001BC002800D000471248134993
:1000A000086003C880F30888084703B5996A0420EC
:1000B0000142FBD001200142F8D103BD02B5186610
:1000C0001866FFF7F2FF186E186E02BD00000240BE
:1000D000000000180000070000035F00212200005C
:1000E000F4000018222000A00001001008ED00E03C
:1000F00000000000000000000000000074B24E7A12
:1001000000200420F7010010C3010010C5010010F9
:10011000C1010010C1010010C1010010C101001097
:10012000C1010010C1010010C1010010C701001081
:10013000C1010010C1010010C9010010CB01001065
:10014000CD010010CD010010CD010010CD01001037
:10015000CD010010CD010010CD010010CD01001027
:10016000CD010010CD010010CD010010CD01001017
:10017000CD010010CD010010CD010010CD01001007
:10018000CD010010CD010010CD010010CD010010F7
:10019000CD010010CD010010CD010010CD010010E7
:1001A000CD010010CD010010CD010010CD010010D7
:1001B000CD010010CD010010CD010010CD010010C7
:1001C00000BE00BE00BE00BE00BE00BEEFF3058054
:1001D000103800BEF2EB887164B9001090B90010BD
:1001E0003802001090A31AE71E481F49086006C88D
:1001F00081F3088810471D480068002801D019487D
:10020000F3E70DA40ECC002902D000F012F8F9E7B4
:100210001749184A002000E001C19142FCD116495B
:100220008847164988471649884700BEFDE701C937
:1002300001C29A42FBD3704790B90010C000002061
:10024000901B002060D40010000004200000042057
:1002500060D40010001004200010042000000000F2
:10026000704700000000000008ED00E0000000D032
:10027000901B0020D02D002045440010790900106B
:1002800035440010F8B5C04606480749091A8B10D6
:10029000C90FC91810B5491003D0044B002B00D06A
:1002A000984710BD901B0020901B0020000000000C
:1002B000054B10B5002B03D00449054800E000BFF2
:1002C000FFF7E2FF10BDC04600000000642B0020D5
:1002D0009CB0001070B588B0079006910592049309
:1002E00002F05AF80600079B1C00DB171D00FA22DB
:1002F000920000232000290003F044FF02000B00BD
:10030000049902910599019106990091300002F03B
:100310001FFE0300180008B070BD000010B58CB0BF
:1003200005900023099380235B011900012003F04D
:10033000D3FF03000893089B294A944663440B9318
:100340000B9B043B0B930B9B802252041A600B9B6C
:10035000043B0B93059A0B9B1A600B9B043B0B937E
:100360000B9B032252421A6000230A9308E00B9B66
:10037000043B0B930B9B00221A600A9B01330A93E8
:100380000A9B042BF3DD174A174B009331232821D6
:10039000012000F0A5FD0300180000F004FD03009B
:1003A00007930B9A079B1A60104B1C68079B180059
:1003B00000F0F9FC03001900200000F01BF8079979
:1003C0000B4800230393002302930023019300238F
:1003D00000930023002200F0FDFCC0460CB010BDCD
:1003E000FC0F00009CB00010A4B0001050270020AB
:1003F000AD05001000B58FB00590049100230D935A
:10040000059B9B68002B35D16249634A634B00937F
:100410000B000C21012000F063FD03000D930D9BE8
:10042000180000F0C0FC03000893089B00225A60EB
:10043000089B00229A60089B1B680793049B180086
:1004400000F0B1FC0200089B1A6007995448002391
:1004500003930023029300230193002300930023BE
:10046000002200F0B7FC059B089A5A60059B089A89
:100470001A6076E0059B9B68012B39D100230D9310
:100480004849454A454B00930B000C21012000F0E0
:1004900027FD03000D930D9B180000F084FC030062
:1004A0000A93059B1A680A9B5A600A9B00229A606D
:1004B0000A9B1B680993049B180000F074FC02005F
:1004C0000A9B1A600999364800230393002302937C
:1004D00000230193002300930023002200F07AFC04
:1004E000059B0A9A5A60059B1B680A9A9A6038E035
:1004F00000230D932C49284A284B00930B000C2114
:10050000012000F0EDFC03000D930D9B180000F09E
:100510004AFC03000C93059B5A680C9B5A600C9B89
:1005200000229A600C9B1B680B93049B180000F040
:100530003AFC02000C9B1A600B99194800230393A4
:100540000023029300230193002300930023002241
:1005500000F040FC059B5B680C9A9A60059B0C9A26
:100560005A60059B9B685A1C059B9A60059B0693E5
:1005700004990B4800230393002302930023019363
:10058000002300930023002200F024FC069B1800A7
:100590000FB000BD3D040000B4B00010D0B000109A
:1005A000AD050010470400005104000082B0019026
:1005B000C04602B070470000F0B5DE4657464E46D2
:1005C0004546E0B583B001902A480460204B1A6884
:1005D000019B9A60284805601E4B1A68019BDA60EF
:1005E000264806601C4B1A68019B1A612448076064
:1005F0001A4B1A68019B5A61224843460360184B04
:100600001A68019B9A6120484B460360154B1A6893
:10061000019BDA611D4853460360134B1A68019B26
:100620001A621B485B460360104B1A68019B5A62B2
:10063000EFF30981174801600D4B1A68019B1A609E
:10064000C04603B0F0BCBB46B246A946A046F0BDCA
:10065000241D0020281D00202C1D0020301D0020FE
:10066000341D0020381D00201C1D0020201D0020EE
:100670003C1D0020241D0020281D00202C1D0020D2
:10068000301D0020341D0020381D00201C1D0020BE
:10069000201D00203C1D0020F0B5DE4657464E468A
:1006A0004546E0B583B00190019B1A68234B1A6060
:1006B000224B1B6818331A68214B1A6029480368BB
:1006C00083F30988019B5A6A1E4B1A602648046806
:1006D000A346019B1A6A1C4B1A6024480468A24670
:1006E000019BDA69194B1A6021480468A146019BF5
:1006F0009A69174B1A601F480468A046019B5A6903
:10070000144B1A601C480768019B1A69124B1A6047
:100710001A480668019BDA68104B1A601848056889
:10072000019B9A680E4B1A6016480468C04603B0D5
:10073000F0BCBB46B246A946A046F0BD3C1D002019
:10074000181D0020201D00201C1D0020381D002029
:10075000341D0020301D00202C1D0020281D0020ED
:10076000241D00203C1D0020201D00201C1D0020F9
:10077000381D0020341D0020301D00202C1D0020BD
:10078000281D0020241D002010B588B005900023EE
:100790000793274B1A68274B1B681900100000F0BD
:1007A0004DF803000793079B1800FFF705FF079913
:1007B0002148002303930023029301230193002384
:1007C00000930023002200F005FB1A4B1B685C1C01
:1007D000174B1B68180000F093F803001900200065
:1007E00003F008FC0B001A00124B1A600023079359
:1007F0000F4B1A680F4B1B681900100000F01EF811
:1008000003000793079B1800FFF746FF07990A4864
:1008100000230393002302930123019300230093F9
:100820000023002200F0D6FA0123180008B010BD02
:100830005027002044270020AD05001000B58DB0E2
:100840000590049100230793049B002B04DA059B79
:100850009B68049AD3180493059B1B680B93002391
:100860000A9320E0049A0A9B9A4216D10B9B1B68BC
:10087000180000F098FA0300089308991F48002315
:100880000393012302930023019300230093002389
:10089000002200F09FFA089B2DE00B9B9B680B93B6
:1008A0000A9B01330A930B9B002BDBD10023079398
:1008B000079B180000F077FA0300099307990F4887
:1008C0000023039301230293002301930023009349
:1008D0000023002200F07EFA0999084800230393C0
:1008E000012302930023019300230093002300229D
:1008F00000F070FA099B18000DB000BDAD050010A6
:1009000082B00190019B002B01D1002301E0019BEB
:100910009B68180002B0704710B5094B180003F02F
:10092000A5FFFA239B00180002F091FA054B18006E
:1009300003F09CFFFA239B00180002F088FAECE712
:10094000ECB00010F4B0001010B5094B180003F023
:100950008DFFFA239B00180002F079FA054B18006E
:1009600003F084FFFA239B00180002F070FAECE712
:10097000FCB0001004B1001010B58EB000230D9330
:1009800000230C93002000F01BF903F03BFF334BD6
:10099000180002F05CFA324B1B680B93812359005C
:1009A000304A314B00930B001021012000F098FADF
:1009B0000300180000F0F7F90300180000F066F8D3
:1009C0000300180000F0EFF90200254B1A600B99A4
:1009D000264800230393002302930023019300235E
:1009E00000930023002200F0F5F9214B1800FFF7D7
:1009F00095FC204B1800FFF791FC00230D93184B3A
:100A00001A681D4B1B6819001000FFF717FF030041
:100A10000D930D9B1A68194B1A600D991848002305
:100A200003930023029301230193002300930023E7
:100A3000002200F0CFF904AB1249FA229000002204
:100A4000FFF748FC1048046884F30988022080F30B
:100A50001488BFF36F8FFFF75FFFFEE78813000076
:100A6000502700209CB000100CB10010790B001032
:100A70001909001049090010442700203C1D0020DE
:100A8000AD050010890700103C1D002000B589B09D
:100A90000590059B00221A60059B00225A60059B69
:100AA00000229A60059B180000F07DF9030007936F
:100AB00005990F4800230393012302930023019318
:100AC000002300930023002200F084F907990848CE
:100AD0000023039301230293002301930023009337
:100AE0000023002200F076F9079B180009B000BD32
:100AF000F50A001000B589B00590059B1B680793A7
:100B000012E0079B0693079B9B68079306990A4888
:100B100000230393002302930023019300230093F7
:100B20000023002200F056F9079B002BE9D1C046B4
:100B3000C04609B000BDC0463D0B001000B587B0EF
:100B40000590059B002B12D0059B1B68002B0ED037
:100B5000059B196807480023039300230293002391
:100B60000193002300930023002200F033F9C046D4
:100B700007B000BDAD05001000B589B00590059B1C
:100B80001B68079312E0079B0693079B9B680793DC
:100B900006990A480023039300230293002301933C
:100BA000002300930023002200F014F9079B002B80
:100BB000E9D1C046C04609B000BDC0463D0B00109B
:100BC00082B00190C04602B0704700B585B0019078
:100BD00000230393019B0333032293430193019B5F
:100BE0001900012003F078FB03000393039B029399
:100BF000029B180005B000BD00B587B00190019BB5
:100C0000002B3FD0204B1B68002B3BD1019B203B8E
:100C10000593059B5B681D4A934232D1059B0022D8
:100C20005A60059BDB680493059B9B680393184BF4
:100C30001B68059A9A420BD1154B039A1A60144B04
:100C40001B68002B10D0124B1B680022DA600BE0EF
:100C5000049B002B02D0049B039A9A60039B002BF9
:100C600002D0039B049ADA60059B1B680293059BE4
:100C7000180003F049FB074B1B685A1C054B1A6010
:100C800000E0C04607B000BD4027002077B6020054
:100C90003C2700204C27002000B589B0039002912A
:100CA000019200931F4B1B68002B38D1039B20330C
:100CB0001800FFF78AFF03000793079B0693069B24
:100CC000194A5A60069B009A5A61069B029A9A61D9
:100CD000069B019ADA61039B20331A00069B1A6077
:100CE000069B00221A61114B1A68069B9A60069BAC
:100CF0000022DA600D4B1B68002B03D00B4B1B68E6
:100D0000069ADA60094B069A1A60094B1B685A1C4E
:100D1000074B1A60079B20330593059BFFE71800DC
:100D200009B000BD4027002077B602003C27002014
:100D30004827002000B589B00390029101920093EA
:100D4000039B029A5343083318000A9B009A0199A7
:100D5000FFF7A2FF03000793079B0693069B002261
:100D60001A60079B04330593029B039A534308338D
:100D70001A00059B1A60079B08330493049B180014
:100D800009B000BD00B585B00190019B002B07D0D4
:100D9000019B083B0393039B1800FFF72DFF00E026
:100DA000C04605B000BD86B00190019B002B03D169
:100DB000019B0393039B0AE0019B083B0593059B62
:100DC0001B685A1C059B1A60019B0493049B180026
:100DD00006B0704700B58DB0039002910192009368
:100DE000119B002B04D0029A119B9A4200D172E011
:100DF000029B002B00D170E00E9B002B22D0039BA6
:100E0000002B12D0009B002B08D0019B002B05D09B
:100E1000019B0593009A059B10009847039B049340
:100E2000029A049B1000984758E0009B002B55D075
:100E3000019B002B52D0019B0693009A069B100049
:100E400098474BE0029B083B0B930F9B002B04D170
:100E50000B9B1B685A1E0B9B1A600B9B1B680A930B
:100E6000109B002B3AD10A9B002B37D1029B002B01
:100E700034D0039B002B19D0009B002B0CD0019B7E
:100E8000002B09D0019B0893009A089B10009847FB
:100E9000009B180000F039F8039B002B16D0039B31
:100EA0000793029A079B100098470FE0009B002BC6
:100EB0000CD0019B002B09D0019B0993009A099B40
:100EC00010009847009B180000F01FF8029B1800C4
:100ED00000F01BF802E0C04600E0C0460DB000BDC7
:100EE00010B588B00590049103920293029C039A76
:100EF000049905980A9B00932300FFF71BFF03004A
:100F00000793079B180008B010BD00B583B001908F
:100F1000019B1800FFF736FFC04603B000BD82B04A
:100F20000190C04602B0704700B589B001900A0038
:100F30006B4603331A70019B1800FFF7F0FF019B0B
:100F40009B00134A94466344079340230693C023AF
:100F50000593079B1A68069B5340059A1340079A0E
:100F600004920393049B8022520194466344039AA3
:100F70001A60C046C04607496B4603331A78019B86
:100F8000DB00CB1804331A60C04609B000BDC04670
:100F900004C001400040014084B08023DB051B6891
:100FA0000393039B1B051B0D0293039B1B0B1B044D
:100FB0001B0C0193039B1B0F0093009BDBB21800DB
:100FC00004B070470FB400B583B00B4B180003F0AA
:100FD0004DFC049B002B0BD005AB0193019A049BA5
:100FE0001100180003F0D4F9044B180003F03EFC84
:100FF000012003F0EFF9C046B0B40010C0B40010F7
:1010000086B00B230193019B0F4A944663449B00D7
:101010000593EFF3108372B60493049B0393059B2F
:10102000029300E0C046029B1B685A425341DBB268
:10103000002BF7D1BFF35F8FC046C046C046039B6D
:10104000180006B07047C0464000003488B00190D8
:101050000B230393039B0D4A944663449B00079321
:10106000019B0693079B0593BFF35F8FC046C04665
:10107000059B00221A60C046069B0493049B83F3E1
:101080001088C046C046C04608B0704740000034D3
:1010900082B001900091009BDB08019AD3181B7865
:1010A0001900009B0722134001229A4013000B40B5
:1010B0005A1E9341DBB2180002B0704700B587B0EA
:1010C000039002910192FFF79BFF03000593029AA0
:1010D000039B11001800FFF7DBFF031E05D0029AE7
:1010E000019B11001800FFF76DFF029BDB08039ABC
:1010F000D3181978029B0722134001229A4013004B
:10110000DAB2029BDB080398C3180A43D2B21A7002
:10111000059B1800FFF79AFFC04607B000BD00B559
:1011200089B00390019200930B236B440A1C1A7040
:10113000FFF766FF0300059301235B420793019BC2
:10114000069325E0069A039B11001800FFF7A0FF05
:1011500003001A0001235340DBB2002B15D0069B7D
:10116000DB08039AD3181978069B07221340012243
:101170009A401300DAB2069BDB080398C3180A43AF
:10118000D2B21A70069B079306E0069B01330693C2
:10119000069A009B9A42D5D9059B1800FFF756FF87
:1011A000079B002B08DA0B236B441B78002B03D022
:1011B0000A9B1800FFF706FF079B180009B000BD47
:1011C00082B0094B1B785A1CD1B2074A11700193A7
:1011D000054B1B78172B02D9034B10221A70019B69
:1011E000180002B07047C0469814002000B585B0C2
:1011F00002000F236B441A700F236B4419780548C3
:10120000054B00931F231822FFF789FF03001800E6
:1012100005B000BDD4260020E4B4001084B0002343
:10122000039312E0039B0193019B0B4A9446634492
:101230009B000293BFF35F8FC046C046029B002213
:101240001A60C046039B01330393039B1F2BE9D90C
:10125000C046C04604B07047400000340FB410B51B
:1012600002AB1B7801225340DBB2002B01D002F00D
:101270001DFDC04610BC08BC04B0184782B00190E8
:10128000C04602B070470000014B18007047C046CE
:10129000CD2D0020014B9B681800704700ED00E049
:1012A00082B00190019B01221343180002B07047E5
:1012B00082B00190019B01229343180002B0704755
:1012C00000B58BB0039002910192FFF7E3FF02009B
:1012D000039B10339B00D318029A1A60BFF35F8FF1
:1012E000C04609230593059B0D4A944663449B0021
:1012F0000993019B0893099B0793BFF35F8FC04637
:10130000C046079B00221A60C046089B0693069BB6
:1013100083F31088C046C046C0460BB000BDC0462F
:101320004000003400B583B001900A006B460333DF
:101330001A70019B1800FFF7A1FF019B5809019B40
:101340001F22134001229A4011006B4603331B7881
:101350001A0000F037F8C04603B000BD00B583B0F6
:101360000190019B1800FFF789FF0122019B9A4021
:10137000044B1B6813405A1E9341DBB2180003B0A4
:1013800000BDC04600E100E084B0039002916B46CE
:1013900007331A706B4607331B78002B08D00849B7
:1013A000C0235B00029ACA50054B029A1A6003E000
:1013B00003498022029B8B50C04604B07047C04650
:1013C00000E100E000B585B0039002916B46073361
:1013D0001A706B4607331A780299039B1800FFF7BF
:1013E000D3FFC04605B000BD00B583B00190019B9E
:1013F0001800FFF743FF044B0121019A91400A00B6
:101400001A60C04603B000BD00E200E082B0019067
:10141000019A054BD21A2F21002391425B41DBB286
:10142000180002B07047C0469C14002000B585B07B
:101430000190019B1800FFF721FF019B180000F0AD
:1014400015F803000393039B002B07D0039B1800A0
:10145000FFF7DCFF031E01D0012300E000231A1C6C
:1014600001231340DBB2180005B000BD00B583B006
:101470000190019B1800FFF701FFFFF70BFF02002F
:10148000019B10339B00D3181B68180003B000BDEC
:1014900000B58BB001900091019B1800FFF7EEFEA4
:1014A00009230293029B204A944663449B000993BC
:1014B000099B0693EFF3108372B60593059B049383
:1014C000069B039300E0C046039B1B685A425341AE
:1014D000DBB2002BF7D1BFF35F8FC046C046C046DA
:1014E000049B0893019B1800FFF7C0FF03000793BC
:1014F000079A0E4B9A4203D0079A009B9A4201D159
:10150000012300E000231A1C01231340DBB2180062
:10151000FFF7A4FE089A0099019B1800FFF7D0FE80
:10152000C0460BB000BDC04640000034CD010010E5
:1015300086B001900091019B0593009B0493049A4F
:10154000059BD31A043B0393039B5B101BB25B0503
:101550005B0D1BB2034A13431BB29BB2180006B0CB
:101560007047C04600E0FFFF86B001900091019BEC
:101570000593009B0493049A059BD31A043B5B08D4
:101580000393039BDB0A9BB25B055B0D9BB2084A8E
:1015900013439AB2019B1A80039B9AB2019B0233B8
:1015A00004490A4392B21A80C04606B07047C0464A
:1015B00000F0FFFF00F8FFFF84B00190019B1B8843
:1015C0005B050393039B002B02DA064A94466344AF
:1015D0005B150393039B02335B00019AD318180039
:1015E00004B07047FFFF1F0084B001900091084BCA
:1015F00003930099039A019B5B1A5B415A43120DB6
:1016000003920193039B5BB2180004B07047C0467D
:10161000AAAA000000B583B00190054A019B110001
:101620001800FFF7E1FF0300180003B000BDC0463B
:101630009C14002010B59AB0039002916B460733BA
:101640001A70039B1800FFF719FE09230D930D9BD9
:10165000964A944663449B001693169B1193EFF3AE
:10166000108372B61093109B0F93119B0E9300E0A2
:10167000C0460E9B1B685A425341DBB2002BF7D188
:10168000BFF35F8FC046C046C0460F9B1593884B83
:101690001B785BB2DB43DBB2DB09DBB21800FFF780
:1016A000DDFD834B1B785BB21A0013005B009B18B7
:1016B0009B00804A9B1814934F236B447C4A1278FA
:1016C0001A70149B06229A56794B1A70FFF7E2FDA6
:1016D0000200039B10339B00D3181B681993199BBE
:1016E0001800FFF793FE03001A0001235340DBB2FA
:1016F000002B2FD0199A704BD31A5A425341DBB2A8
:101700001800FFF7ABFD0AAB6C4A1A80149B02333A
:101710006B4A11001800FFF70BFF03001A000AAB19
:101720005A80684A0AAB9A800AABFF229A710AABC8
:101730006A4607321278DA710AAB029A9A60149BF1
:101740000AAA13CA13C3149B1800FFF7A9FD0300CC
:101750001993A2E000231893199B1800FFF7A8FD26
:1017600003001293129B179311E0179B1893179B7A
:101770009B795BB2002B12DB179B9B795BB21A0043
:1017800013005B009B189B004A4A9B181793179BFA
:10179000DB796A46073212789A42E6D300E0C04607
:1017A000189B002B3FD007AB474A1A8007AB8F220C
:1017B000D2015A80189B9B795BB2002B0EDB149BE5
:1017C0001C1D189B04331800FFF7F6FE03001900D8
:1017D0002000FFF7ADFE03001A0000E0394A07AB16
:1017E0009A80189B06229A5607AB9A7107AB6A46F5
:1017F00007321278DA7107AB029A9A60189B0433A9
:10180000149A11001800FFF793FE03001A00189BAA
:101810009A80189B4F226A4412789A71149B07AAE7
:1018200013CA13C339E004AB244A1A80149B023351
:10183000234A11001800FFF77BFE03001A0004ABD7
:101840005A80149B0433129A11001800FFF770FE9F
:1018500003001A0004AB9A80129B1800FFF7DAFE0F
:1018600003001A0004AB9A7104AB6A46073212787F
:10187000DA7104AB029A9A60149B04AA13CA13C3C8
:10188000129B114A1A80129B8F22D2015A80149BFC
:101890001800FFF705FD03001993159A1999039B8A
:1018A0001800FFF70DFDC0461AB010BD400000340F
:1018B000C92D00209C140020CD01001000A1FFFFC5
:1018C000CC14002001BD00000148000082B001904E
:1018D000019B9B68180002B07047000010B592B0E1
:1018E0000190009109230393039B854A9446634426
:1018F0009B000E930E9B0793EFF3108372B6069333
:10190000069B0593079B049300E0C046049B1B685D
:101910005A425341DBB2002BF7D1BFF35F8FC04671
:10192000C046C046059B0D93FFF7B4FC0200019B27
:1019300010339B00D3181B681193119A714B9A4274
:1019400000D1D2E0119A009B9A4200D1CDE0119BC8
:101950001800FFF75BFD031E00D1C8E033246C4480
:10196000019B1800FFF7FAFC03002370019B002184
:101970001800FFF7D7FCBFF35F8FC046EFF3058376
:101980000293029B0B930B9B002B04D0019B103303
:101990000B9A9A4201D1012300E000231A1C012373
:1019A0001340DBB21800FFF759FC00231093119B82
:1019B0001800FFF77DFC03000A930A9B0F9311E0C8
:1019C0000F9B10930F9B9B795BB2002B13DB0F9B3C
:1019D0009B795BB21A0013005B009B189B004A4A7C
:1019E0009B180F930F9B1800FFF770FF0200009BDE
:1019F0009342E5D100E0C0460F9B1800FFF766FF59
:101A00000200009B934267D127236B440F9A92797F
:101A10001A7027236B441B787F2B39D827236B44FC
:101A200000229A5613005B009B189B00364A9B18B5
:101A30000893089B9A680F9B9A60089BDA790F9B22
:101A4000DA71089B06229A560F9B9A71089B9B7924
:101A50005BB2002B0EDB0F9B1C1D089B0433180090
:101A6000FFF7AAFD030019002000FFF761FD030046
:101A70001A0000E0254A0F9B9A80254B00229A56B7
:101A8000089B9A71224B27226A4412781A7023E02D
:101A90000B9B002B19D1109B002B06D0109BFF2213
:101AA0009A711A4A109B9A8001E0164B1193184BB9
:101AB00000229A560F9B9A710F9B1800FFF7AAFD00
:101AC00003001A00124B1A7006E00F9B0433114AF0
:101AD00011001800FFF748FD33236B441A78019B6F
:101AE00011001800FFF71EFC01E0064B11930D9A40
:101AF0001199019B1800FFF7E3FBC04612B010BD1F
:101B000040000034CD0100109C14002001BD0000F5
:101B1000C92D0020D6140020014B18007047C04684
:101B200000E400E010B592B00190019B1800FFF7AF
:101B3000B7FB03001093EFF305830693069B0F9307
:101B400009230793079B494A944663449B000E93DD
:101B50000E9B0B93EFF3108372B60A930A9B0993C3
:101B60000B9B089300E0C046089B1B685A425341F8
:101B7000DBB2002BF7D1BFF35F8FC046C046C04633
:101B8000099B0D9333246C44019B1800FFF742FD21
:101B900003002370FFF77EFB02000F9B9B00D3180E
:101BA0001B68109A9A4208D1FFF774FB02000F9B42
:101BB0009B00D3182E4A1A6036E032236B44002271
:101BC0001A70002311932CE02A49119A13005B002C
:101BD0009B189B00CB1806331B785BB233226A44F8
:101BE000127852B29A4219D12249119A13005B001D
:101BF0009B189B00CB180633FF221A701E481D4904
:101C0000119A13005B009B189B00CB180433021C35
:101C10001A8032236B4401221A7005E0119B0133B4
:101C20001193119B032BCFD9144B00229A56019B81
:101C30009A71124B33226A4412781A700E9B0593E4
:101C40000D9B0493059B0393BFF35F8FC046C04673
:101C5000039B00221A60C046049B0293029B83F3FD
:101C60001088C046C046C04612B010BD40000034C7
:101C7000CD0100109C14002001BD0000C92D0020E2
:101C800000B585B00B4B0193FFF746FF03000393AC
:101C90000023029307E0039B1A1D0392019A1A6026
:101CA000029B01330293029B072BF4D9C046C04626
:101CB00005B000BD8080808000B587B002000F2392
:101CC0006B441A70FFF7E0FA0F236B441978094B45
:101CD000009305230022FFF722FA03000593059BDA
:101CE000002B03DB059B1F22D31A0593059B1800CD
:101CF00007B000BD1CB5001084B001900091009B9E
:101D00000393039B044A944663449B001A00019B7F
:101D10001A60C04604B070474000003482B00090A2
:101D20000191009A019B1000190002B0704784B025
:101D30000390009201930399009A019B0A604B6003
:101D4000C04604B0704700B583B001F017FA020036
:101D50000B0069460800FFF7EAFF009A019B10009C
:101D6000190003B000BD000030B58BB002900391A4
:101D70000192029A039B10001900FFF7CFFF0200A7
:101D80000B0006920793019B1C0000231D00FA2202
:101D9000920000232000290002F0F4F902000B0059
:101DA00010001900069A079B12184B4108920993DC
:101DB000089A099B002B04DA01225242074B089231
:101DC0000993089A099B04A90800FFF7B0FF049A39
:101DD000059B100019000BB030BDC046FFFFFF7F10
:101DE00000B583B00190FFF7AEFF019B1A00FFF72B
:101DF000BBFF02000B001000190003B000BD000083
:101E000000B585B0104B039316E0039B1B68002BB5
:101E100009D0039B0193019B180000F02EF8019B51
:101E20000833039308E0039B0293029B180000F021
:101E30000FF8029B08330393039A044B9A42E4D3AE
:101E4000C046C04605B000BD881B0020901B002086
:101E500010B582B00190019CFFF7B2F903001900A0
:101E60002000FFF749FF019BFF221A71BFF35F8F2C
:101E7000C046C046C04602B010BD10B582B0019049
:101E8000019CFFF79DF9030019002000FFF734FFC4
:101E9000019BFF221A71019B00225A71BFF35F8FD1
:101EA000C046C046C04602B010BD00B583B0019028
:101EB0000120FFF79BF903001A00019B1100180095
:101EC00000F004F8C04603B000BD000084B00190EB
:101ED0000091009B0393039B064A944663449B0036
:101EE0001A00019B1A60BFF35F8FC046C046C04610
:101EF00004B070474000003482B000900191009A15
:101F0000019B1000190002B0704784B0039000924A
:101F100001930399009A019B0A604B60C04604B08C
:101F2000704782B00190C04602B0704782B0019005
:101F3000019B9B6A180002B0704730B589B00390CE
:101F400000920193009A019B10001900FFF7D4FF43
:101F500002000B0006920793079B1C0000231D0044
:101F600023000593039B5B6A0493049A059B9A42A2
:101F70000AD3039B9A6A069B9A4203D2049A059B52
:101F80009A4201D0012300E000231A1C01231340D0
:101F9000DBB2180009B030BD00B583B000900191EC
:101FA000009A019B03490800FFF7C7FF03001800D0
:101FB00003B000BD0040054000B583B00190009122
:101FC000009B1800FFF7ADFF009B180003B000BD99
:101FD00082B001900023180002B0704782B00190D7
:101FE000014B180002B070470040054000B583B0B7
:101FF00001F0C4F802000B0069460800FFF785FFF6
:10200000009A019B1000190003B000BD00B58BB011
:102010000290039100920193029A039B1000190011
:10202000FFF76AFF02000B000692079306980799D4
:10203000009A019B12184B4108920993089A099B38
:10204000002B04DA01225242074B08920993089AA6
:10205000099B04A90800FFF758FF049A059B10008C
:1020600019000BB000BDC046FFFFFF7F00B583B075
:1020700000900191FFF7BAFF009A019BFFF7C6FF9E
:1020800002000B001000190003B000BD30B585B090
:102090000290039100920193009A019B1000190095
:1020A000FFF72AFF04000D00029A039B100019009D
:1020B000FFF722FF02000B00A41A9D4122002B0013
:1020C0001000190005B030BD00B589B00690079129
:1020D0000592049300F060F9069A079B0AA9097813
:1020E0000291049901910599009100F037FC0300D9
:1020F000180009B000BD00B583B0019000F04CF9A4
:102100000200019B1900100000F02CFD03001800D4
:1021100003B000BD034B1B695A1E9341DBB218008C
:102120007047C046E414002084B001900091019BE8
:102130003C331A000121009B99400B00039202934B
:10214000039B8022920194466344029A1A60C0461F
:10215000C04604B0704784B001900091019B3C33AD
:102160001A000121009B99400B0003920293039BEC
:10217000C022920194466344029A1A60C046C04647
:1021800004B0704782B0019000910122009B9A40F8
:10219000019B5A63C04602B0704700B587B00190FA
:1021A000EFF305830393039B103B0593059B9B086B
:1021B0001800FFF713FF03000493059B03221A4046
:1021C000019B1A60049B180007B000BD00B589B0E0
:1021D0000390029100920193039B1800FFF7A6FE63
:1021E00003000793009A079BD31A0693039B029A56
:1021F00004329200D258079BD31A0593069A059B86
:102200009A4205D20099039B029A04329200D1505F
:10221000C04609B000BD00B589B00390029100929C
:102220000193039B1800FFF781FE03000793009AB8
:10223000079BD31A0693039B029A04329200D2584A
:10224000079BD31A0593059A0699002391425B4197
:10225000DBB2180009B000BD00B583B00190019B4E
:10226000180000F0F9FE02000B001000190003B086
:1022700000BD00B589B0039002910192029A039BC0
:1022800011001800FFF798FE030007930122029B3C
:102290009A40039B1A62019A079B11001800FFF7EE
:1022A000F7F8079B01211800FFF73CF8039B383330
:1022B0001A000121029B99400B0006920593069B90
:1022C0008022920194466344059A1A60C046C04633
:1022D00009B000BD00B583B001900091009A019B48
:1022E0001100180000F09CFEC04603B000BD00B510
:1022F00083B00190019B1800FFF76AFE03001800ED
:1023000003B000BD014B18007047C04600400540B7
:1023100082B00190019B1B141BB2180002B07047E1
:1023200082B00190019B9BB2180002B0704782B04E
:1023300001900A006B4602331A80019B1A046B4617
:1023400002331B881343180002B0704700B583B0F6
:10235000FFF7E0FE03001A0001235340DBB2002B1D
:102360000ED000F037FE03000193019B03211800FB
:10237000FFF7B0FF019906481023032200F088FA06
:10238000044B0A211800FFF7B7FCC04603B000BD9C
:10239000E4140020A02D0020014B18007047C04617
:1023A000E414002000B5AFB001AB1800FFF7F5FE54
:1023B00003002493249B1800FFF799FF0300239345
:1023C000019AC54B239989008A189200D358229309
:1023D000019A249B11001800FFF7BDFE019A249B6F
:1023E00011001800FFF7CEFE86236B44229A128953
:1023F0001A8086236B4400229B5E002B00DA15E1D5
:10240000229B596986236B4400229A5E13005B006D
:102410009B18DB00CB182093209B9A68DB681E92E8
:102420001F93249B1800FFF717FF02000B001000FA
:1024300019001E9A1F9B801A994102000B00002B65
:1024400000DAF3E01F9B002B30DB209B1A69A34BC3
:102450009A4212D1209B5B691C931C9B1B691C9A9E
:1024600010009847031E03D01C9B1A685B6801E0AC
:10247000002200232C922D931CE0229B08229B5EBD
:102480001A00209B5B889BB219001000FFF74FFFDA
:1024900003001D93209B1A69209B59691D9B1800FE
:1024A000904702000B002C922D9303E000220023A2
:1024B0002C922D932C9B2D9A134300D176E02D9BCB
:1024C000002B0ADA1E981F992C9A2D9B801A99418D
:1024D00002000B002A922B930DE0249B1800FFF7BB
:1024E000BBFE02000B00100019002C9A2D9B121845
:1024F0004B412A922B9320992A9A2B9B8A60CB607E
:10250000209B00229B5E002B00DA8FE0229B5A6901
:10251000209B00215B5E19000B005B005B18DB0059
:10252000D3189A68DB682A982B99801A994102007F
:102530000B00002B00DA79E0209B00229A5E229BA0
:102540001A81229B083329930BE0229B5A69299B0D
:1025500000215B5E19000B005B005B18DB00D318E9
:102560002993299B00229B5E002B14DB229B5A6936
:10257000299B00215B5E19000B005B005B18DB00F0
:10258000D3189A68DB682A982B99801A994102001F
:102590000B00002BD9DA299B00229A5E209B1A801F
:1025A000299B86226A4412881A803FE0209B0022E1
:1025B0009A5E229B1A81229B1B690D93EFF3108375
:1025C00072B60C930C9B0B930D9B0A9300E0C046D4
:1025D0000A9B1B685A425341DBB2002BF7D1BFF371
:1025E0005F8FC046C046C0460B9B1B93229B0222B6
:1025F0009A5E209B1A80229B86226A4412885A8007
:10260000229B1B6911931B9B1093119B0F93BFF38C
:102610005F8FC046C0460F9B00221A60C046109BC9
:102620000E930E9B83F31088C046C046229B9B8866
:102630001BB2002B00DA93E0229B1B690593EFF39A
:10264000108372B60493049B0393059B029300E0EE
:10265000C046029B1B685A425341DBB2002BF7D1A4
:10266000BFF35F8FC046C046C046039B1A93A223A8
:102670006B44229A92881A80229B012252429A80AD
:10268000229B1B6909931A9B0893099B0793BFF32D
:102690005F8FC046C046079B00221A60C046089B59
:1026A0000693069B83F31088C046C04652E0229BE7
:1026B0005969A2236B4400229A5E13005B009B18A9
:1026C000DB00CB181993199B9A68DB681692179355
:1026D000229B083327930FE0842B0020A5230010B2
:1026E000229B5A69279B00215B5E19000B005B004F
:1026F0005B18DB00D3182793279B00229B5E002BDF
:1027000014DB229B5A69279B00215B5E19000B009A
:102710005B005B18DB00D3189A68DB681698179982
:10272000801A994102000B00002BD9DA56236B4422
:10273000279A12881A80279BA2226A4412881A803C
:10274000A2236B44199A12881A80199B56226A4454
:1027500012881A80A2236B4400229B5E002BA6DA0B
:10276000229B9B79DBB2002B50D0229B00229A71D6
:10277000C046229B0833269396236B44229A1289E3
:102780001A803DE0229B596996236B4400229A5E91
:1027900013005B009B18DB00CB1814934E236B4493
:1027A000149A12881A80149B5B889BB21BB2002B70
:1027B0001EDA149901225242D3178A60CB60229B01
:1027C00008229B5E96226A440021525E9A4211D0F2
:1027D000149B00229A5E269B1A80229B08229A5EF6
:1027E000149B1A80229B96226A4412881A8101E067
:1027F000149B269396236B444E226A4412881A80B7
:1028000096236B4400229B5E0133BBD186236B442D
:10281000229A12891A8086236B4400229B5E002B29
:102820002FDB229B596986236B4400229A5E13009A
:102830005B009B18DB00CB181293129B9A68DB6835
:102840001E921F931E9B013302D11F9B013305D0A3
:1028500001991E9A1F9B2498FFF7B8FC249B18002F
:10286000FFF7FAFC02000B00100019001E9A1F9BD4
:10287000121A8B41002B05DC00D0AFE5002A01D1F4
:10288000ACE5C04640BFC046C0462FB000BDC04604
:1028900000B587B00390029101920093039B029AC6
:1028A000DA60FEF78DFC03000493049B284A9446EB
:1028B00063449B001A00039B1A61019BDAB2039BDD
:1028C0001A70009B9AB2039B5A81D0231B061B6887
:1028D000DAB2039B5A70039B012252421A81039B76
:1028E00008229A5E039B9A80009B9BB2013B9BB29D
:1028F0001AB2039B5A800023059310E0059B9BB2FC
:10290000013B98B2039B5969059A13005B009B1821
:10291000DB00CB1802B21A80059B01330593059AA0
:10292000009B9A42EAD3029B1800FFF7E0FC0200EA
:10293000084B9100019A8A1892000399D150064AD7
:102940000199029B1800FFF794FCC04607B000BD38
:1029500040000034842B0020A523001000B589B06E
:102960000590029203930CAB1B7801225340DBB21B
:10297000002B11D0FFF73AFB02000B0006920793E1
:10298000029A039B06980799FFF780FB02000B0051
:10299000002B01DA002309E0029A039B05980B99AA
:1029A00001910A99009100F004F80300180009B0A1
:1029B00000BD00B59BB0039000920193039B1B697F
:1029C0001493EFF3108372B61393139B1293149B1B
:1029D000119300E0C046119B1B685A425341DBB281
:1029E000002BF7D1BFF35F8FC046C046C046129B95
:1029F00018935E236B44039A52881A80039B59698B
:102A00005E236B4400229A5E13005B009B18DB0080
:102A1000CB1816935E236B4400229B5E002B04DBD5
:102A2000169B00229A5E039B5A80039B1B6910939E
:102A3000189B0F93109B0E93BFF35F8FC046C04649
:102A40000E9B00221A60C0460F9B0D930D9B83F3D3
:102A50001088C046C0465E236B4400229B5E002B5C
:102A600002DA01235B4279E0169B1C9A1A61169BDD
:102A70001D9A5A61009A019B10001900FFF73CFA59
:102A800002000B0016998A60CB60169B5B889BB294
:102A900001339AB266236B445204520C1A806623A7
:102AA0006B441B88002B03D166236B4401221A80E0
:102AB000169B66226A4412885A805E236B44002269
:102AC0009A5E66236B441B8819001000FFF72FFCE9
:102AD00003001593039B1B690893EFF3108372B6F1
:102AE0000793079B0693089B059300E0C046059B50
:102AF0001B685A425341DBB2002BF7D1BFF35F8F03
:102B0000C046C046C046069B1893039B9B881AB2DA
:102B1000169B1A80039B5E226A4412889A80039B4C
:102B20001B690C93189B0B930C9B0A93BFF35F8F4D
:102B3000C046C0460A9B00221A60C0460B9B099300
:102B4000099B83F31088C046C046039BDA68039B49
:102B50001B7819001000FFF7E7FA159B18001BB04F
:102B600000BD000010B590B0019000910FAC009B2B
:102B70001800FFF7CDFB030023800FAB00229B5E04
:102B8000019A5289934201DB002370E03A246C449D
:102B9000009B1800FFF7C4FB030023803F236B4416
:102BA00000221A70019B59690FAB00229A5E130034
:102BB0005B009B18DB00CB180D93019B1B690A93EC
:102BC000EFF3108372B60993099B08930A9B07934E
:102BD00000E0C046079B1B685A425341DBB2002B02
:102BE000F7D1BFF35F8FC046C046C046089B0C9329
:102BF0000D9B5B889BB20B933A236B441B880B9A0B
:102C00009A420ED10B9B9BB21A4A13439AB20D9B68
:102C10005A80C046019B01229A713F236B440122D6
:102C20001A70019B1B6906930C9B0593069B0493EA
:102C3000BFF35F8FC046C046049B00221A60C046A7
:102C4000059B0393039B83F31088C046C0463F2334
:102C50006B441B78002B07D0019BDA68019B1B7823
:102C600019001000FFF760FA3F236B441B7818002F
:102C700010B010BD0080FFFF82B00190019B5B7817
:102C8000180002B0704700008CB0019000911C4BFE
:102C90001B680693EFF3108372B60593059B0493AC
:102CA000069B039300E0C046039B1B685A425341B6
:102CB000DBB2002BF7D1BFF35F8FC046C046C046E2
:102CC000049B0B930E4B1B680A930B9B09930A9B67
:102CD0000893BFF35F8FC046C046089B00221A606E
:102CE000C046099B0793079B83F31088C046C046E4
:102CF00040BFC04600220023100019000CB07047EE
:102D0000A02D002000B595B002900391029A039B7C
:102D100010001900FFF7F0F802000B001092119359
:102D2000109A119B06204042C11712184B41129273
:102D30001393139A119B9A4207D8139A119B9A42A4
:102D400007D1129A109B9A4203D9002200231292B3
:102D50001393129A139B04A90800FFF7D6F8FFF704
:102D600045F9049A059BFFF791F902000B00002B2F
:102D700002DC4CD1002A4AD004980599284A002345
:102D800000930023FFF7A0F9031E40DB32E0254B40
:102D90001B680A93EFF3108372B60993099B08939B
:102DA0000A9B079300E0C046079B1B685A425341A9
:102DB000DBB2002BF7D1BFF35F8FC046C046C046E1
:102DC000089B0F93174B1B680E930F9B0D930E9B45
:102DD0000C93BFF35F8FC046C0460C9B00221A6065
:102DE000C0460D9B0B930B9B83F31088C046C046D7
:102DF00020BFC046049A059B10001900FFF7CCF8CD
:102E000003001A0001235340DBB2002BBFD1029A0A
:102E1000039B1000190000F0CDF9C04615B000BDAD
:102E2000892C0010A02D002000B583B000900191E6
:102E3000009A019B10001900FFF718F902000B001F
:102E400010001900FFF75EFFC04603B000BD30B5AB
:102E500083B00190019B1C0000231D00FA22920008
:102E600000232000290001F08DF902000B00100062
:102E70001900FFF7D9FFC04603B030BD30B587B0A9
:102E800002900391EFF305830493049B002B08D079
:102E9000C046029A039B10001900FFF77DF803005B
:102EA00050E0FFF779FA0300DC68FFF775FA0300DA
:102EB0001B781D00029A039B10001900FFF71CF8F5
:102EC00002000B0029002000FFF7A5F9031E09D01E
:102ED00020BFC046029A039B10001900FFF75CF860
:102EE00003002FE0194A029803990023009300235E
:102EF000FFF7EAF803000593059B002B08DCC046AA
:102F0000029A039B10001900FFF746F8030019E02E
:102F1000029A039B10001900FFF73EF803001A0005
:102F200001235340DBB2002B01D020BFC046059BDC
:102F30001800FFF7E0F8029A039B10001900FFF752
:102F40002BF80300180007B030BDC046892C0010D4
:102F500000B589B0079004920593049B059A13432A
:102F600003D101220023049205930C9B079A9A60D7
:102F70000C9B0A9A1A610C99049A059B0A604B6093
:102F80000C9B0B9A5A61049A059B002B05DA0020D2
:102F90000021801A994102000B0010001900FFF770
:102FA00065F802000B000798012102910C9901912C
:102FB00007490091FFF7D2FC02000C9BDA600C9BE2
:102FC000DB68DA17D31ADB0FDBB2180009B000BDDB
:102FD000A523001010B5FFF795F90300180010BDE8
:102FE00082B000900191009A019B1000190002B07C
:102FF000704784B00390009201930399009A019B5B
:103000000A604B60C04604B0704782B00190C04671
:1030100002B0704782B001900023180002B07047E0
:1030200000B583B001900091009B1800FFF7EDFF01
:10303000019B1800FFF7EEFF0200054BD318054A6D
:1030400000991800FEF73AF8C04603B000BDC0462C
:10305000D826002038B50010F0B589B00390039948
:10306000496A07910399896A06910399496A05910A
:1030700007980599884202D005990791F2E7C04662
:10308000079900910021019100990B0000210A008D
:1030900006990C0000210D00110021430E002B4366
:1030A0001F0032003B001000190009B0F0BD00B550
:1030B0008BB0039000920193039B1800FFF7CCFFA5
:1030C00002000B000692079306980799009A019B4D
:1030D00012184B4108920993079A099B9A4207D804
:1030E000079A099B9A4208D1069A089B9A4204D9EA
:1030F00001225242D31708920993089A099B04A906
:103100000800FFF776FF049A059B0399080000F07A
:1031100003F8C0460BB000BD30B58BB003900092F1
:103120000193009A019B10001900FFF759FF02005C
:103130000B0006920793079B1C0000231D00230031
:103140000593039B5B6A099303E0039B5B6A099306
:10315000C046099A059B9A42F7D303E0039B5B6A3A
:103160000993C046099A059B9A4204D1039B9A6A27
:10317000069B9A42F2D3C0460BB030BD10B5044B4B
:103180001800FFF769FF02000B001000190010BDC6
:103190000040054000B583B000900191009A019B6A
:1031A00003490800FFF783FFC04603B000BDC046D7
:1031B0000040054000B583B000900191009A019B4A
:1031C00003490800FFF7A8FFC04603B000BDC04692
:1031D0000040054086B001900122019B9A401300F7
:1031E000094A05920493059B0393049B0293039B56
:1031F0008022920194466344029A1A60C046C046F7
:10320000C04606B07047C04600C0004088B001907C
:103210000122019B9A4013000E4A07920E4A069221
:103220000593079B0493059B0393049BC022920183
:1032300094466344039A1A60C04600E0C046069B69
:103240001B68DB43059A1340F8D1C046C04608B05E
:103250007047C04600C0004008C0004082B00190E6
:10326000019B044A944663445A425341DBB218001E
:1032700002B070470080FCBF00B583B00190019B95
:103280001800FFF7EBFF019B180003B000BD00B56D
:1032900083B00190019B1800FFF7E0FF031E01D0EF
:1032A000172300E01623180003B000BD00B583B05B
:1032B0000190062000F0A8FA0300180003B000BD3A
:1032C00000B583B00190019B1800FFF7E0FF0300F9
:1032D0001800FFF77FFFC04603B000BD00B583B004
:1032E0000190019B1800FFF7D2FF03001800FFF7C1
:1032F0008DFFC04603B000BD00B58DB001900091B8
:10330000019B1800FFF7D2FF031E01D100235DE0EF
:10331000019B1800FFF7D4FF019B1800FFF7DEFFA9
:10332000019B0021180000F033F9009A019B110065
:10333000180000F0D9F803000B9308230A93012327
:10334000099300230893019B1800FFF795FF0300E2
:103350002C331A000A9B053B5901099B013BDB00FA
:103360001943089B002B01D0022300E000231943DE
:10337000089B012B01D1042300E000230B43102103
:103380000B43079206937E230593079B1A68069BBF
:103390005340059A1340079A04920393049B80229A
:1033A000520194466344039A1A60C046C046019B8A
:1033B0001800FFF761FF0300064A1A63019B18001B
:1033C000FFF75AFF030003229A640B9B18000DB00D
:1033D00000BDC0460103000030B58BB00190019BD9
:1033E0001800FFF749FF03001B6B0993099B01229B
:1033F00013403FD0019B1800FFF73EFF030030331E
:1034000003931E4B0293039BC02292019446634494
:10341000029A1A60C046019B1800FFF72DFF0300B7
:103420005B6A0893019B1800FFF726FF03009B6A65
:103430000793089B9B01079AD3180693069B9B0250
:103440000693019B1800FFF731FF03000C49180099
:1034500000F0F8FD030005930599069800F0F2FDD1
:1034600003000493049B1C0000231D00200029007E
:10347000FFF790FE099B18000BB030BD0103000060
:103480004E0E000000B58BB0039002910192039B99
:103490001800FFF7A1FF03000993039B1800FFF733
:1034A000EBFE03002C330893029B0793019B0693CA
:1034B000089B1A68079B5340069A1340089A059286
:1034C0000493059B8022520194466344049A1A6037
:1034D000C046C046039B1800FFF7CEFE0300099AC2
:1034E0001A63C0460BB000BD00B587B001900091D3
:1034F000019B1800FFF7DAFE0300DB0000991800BB
:1035000000F0A0FD030001330393039BDB09059347
:10351000059B002B04D101230593002304930DE0A8
:10352000059B194A934204D9184B05930023049331
:1035300004E0039B5B083F2213400493019B1800A7
:10354000FFF79AFE0300059A5A62019B1800FFF7E5
:1035500093FE0300049A9A62019B00220021180046
:10356000FFF790FF019B1800FFF7A0FE03009800F3
:10357000059B9A01049BD318190000F063FD03001A
:10358000180007B000BDC046FEFF0000FFFF0000AE
:1035900010B582B001900A006B4603331A706B4677
:1035A00003331B78002B01D00A2401E080235C0048
:1035B000019B1800FFF752FE0200034B5200211C32
:1035C000D152C04602B010BDAC2D002082B0019097
:1035D000019B033BFDD20193C04602B0704782B00D
:1035E00002006B4607331A706B4607331B78052BB6
:1035F00004D06B4607331B78042B01D1012300E074
:1036000000231A1C01231340DBB2180002B07047DC
:1036100000B597B00291019200930F236B44021CF6
:103620001A700F236B441A7813005B009B189B00E1
:10363000584A944663441593159B5B68189A9A42BE
:1036400002D9159B189A5A600F236B441B781800F7
:10365000FFF7C5FF031E16D0029B012B13D1159B4C
:10366000139303231293139BC02292019446634445
:10367000129A1A60C04600E0C046159B9B68012262
:103680001340F9D029E0159B119380231B0110935F
:10369000119BC022920194466344109A1A60C0465E
:1036A0000F236B441A783C4B9200D358002B14D054
:1036B000394B58690F236B441A78374B9200D35813
:1036C000190000F0BFFC030001331493149A130097
:1036D0005B009B181800FFF779FF159A019B5B01AF
:1036E0000F920E93E0230D930F9B1A680E9B53408D
:1036F0000D9A13400F9A0C920B930C9B802252014F
:10370000944663440B9A1A60C046C0460F236B442C
:103710001B781800FFF763FF031E21D0159B0A9347
:10372000029B0993032308930A9B1A68099B534041
:10373000089A13400A9A07920693079B8022520127
:1037400094466344069A1A60C046C04600E0C046EC
:10375000159B9B680121029A91400A001340F6D004
:10376000159B059380231B010493059B80229201E6
:1037700094466344049A1A60C046159B189A5A608E
:103780000F236B441A78044B92000099D150C04625
:1037900017B000BD00800040DC26002030B587B0A7
:1037A00004910392029317236B44021C1A700A9926
:1037B000029800F047FC03001D000A9B1B02039CBB
:1037C000049917226A44107800932B002200FFF717
:1037D0001FFFC04607B030BD10B586B004910392FC
:1037E000029317236B44021C1A70029C039A0499DB
:1037F00017236B44187880235B0000932300FFF7A6
:1038000007FFC04606B010BD82B002006B4607330A
:103810001A706B4607331A78024B9200D35818007F
:1038200002B07047DC26002082B0020000916B4697
:1038300007331A706B4607331A78034B92000099CE
:10384000D150C04602B07047DC2600208CB00190F9
:103850000122019B9A401300184A06920593069B89
:103860000493059B0393049B802292019446634436
:10387000039A1A60C046C0460122019B9A40130079
:103880000E4A0B920E4A0A9209930B9B0893099BCE
:103890000793089BC022920194466344079A1A60DA
:1038A000C04600E0C0460A9B1B68DB43099A1340F0
:1038B000F8D1C046C0460CB07047C04600C00040BA
:1038C00008C0004000B58DB00390029101920093B2
:1038D0000299314800F0B6FB03000B930B99019855
:1038E00000F0B0FB03000A93009B1A040E9B1B031D
:1038F00013430993039B1B68002B15DA039B1B687A
:103900003F221340029A9A420ED1039B9B681B05EB
:103910001B0D0A9A9A4207D1039BDA68EE23DB0259
:103920001340099A9A4234D0039B1C4A934201D116
:103930000D2300E00C231800FFF788FF039B029A79
:103940001A60039B0A9A9A6021230893039B04330D
:103950000793089B0693079BC022920194466344F9
:10396000069A1A60C04600E0C046039B1B68002B05
:10397000FADA039B099ADA60039B04330593082360
:103980000493059BC022920194466344049A1A60F2
:1039900000E0C0460DB000BD001BB70000C00240F3
:1039A000024A034B1B685360C046704700800540C5
:1039B0005C2B002000B591B001900A006B460333E8
:1039C0001A70394B0C938023DB050B930C9BC022A0
:1039D0009201944663440B9A1A60C046334B0E938F
:1039E000334B0D930E9B80229201944663440D9AB3
:1039F0001A60C046E023DB040F936B4603331B7849
:103A0000002B0BD0284B0A930F9B09930A9B802213
:103A1000920194466344099A1A600BE0224B089382
:103A20000F9B0793089BC022920194466344079A18
:103A30001A60C046019B002B0CD11B4B06938023C0
:103A40001B060593069B8022920194466344059AC7
:103A50001A6026E0019A13005B019B1A9B009B18D9
:103A6000DB001A00134B1A60124B1B685A00114BF3
:103A70001A60104B1A6880235B049A4202D30D4BE4
:103A80000D4A1A60FFF78CFF074B04938023DB0578
:103A90000393049B8022920194466344039A1A6024
:103AA000C046C04611B000BD00800540080001407E
:103AB000FCFF01005C2B0020FFFFFF0000B587B07A
:103AC000039002910192174B05938023DB05049329
:103AD000059BC022920194466344049A1A60C04632
:103AE000039B002B12D0039B0122134303930D4B26
:103AF0000D4ADA610B4B039A0C494A401A62094B92
:103B0000029A5A62074B039A9A6202E0054B00221E
:103B1000DA61019B00211800FFF74CFFC04607B097
:103B200000BDC04600800540D3C007B02D3FF84F10
:103B300082B0020000916B4607331A70044B009A62
:103B4000802189000A43DA62C04602B07047C0464D
:103B50000080054000B589B00190019B07931A23AE
:103B60006B4418221A801A236B441B881B88059308
:103B700012236B4414221A8012236B441B881B8867
:103B800003930799039A059B1000984703001800B8
:103B900009B000BD00B587B0019003AB18221A80B0
:103BA00003AB1B881B8805930E236B4416221A80D7
:103BB0000E236B441B881B8804930199049A059B70
:103BC000100098470300180007B000BD00B585B08D
:103BD000019000910F236B4401221A70002302937D
:103BE0001CE0029B9B00019AD3181B681800FFF78A
:103BF000B1FF0100029B9B00019AD3180A001A60D2
:103C0000029B9B00019AD3181B68002B03D10F2342
:103C10006B4400221A70029B01330293029A009BAC
:103C20009A42DED30F236B441B78180005B000BD09
:103C300000B587B0039002916B4607331A70094BA9
:103C40001800FFF787FF03000593039B002B04DB9D
:103C50000122039B9A40130000E000230299059A79
:103C6000180090475542000082B00E4BAA22120164
:103C70001A600C4B2F22DA600A4B01930A4B009317
:103C8000019B8022920194466344009A1A60C046C8
:103C900000E0C046034B5B68002BFADAC046C04622
:103CA00002B070470040024000B0FA0010B5024B6D
:103CB0001800FDF787F9C04670B5001000B585B053
:103CC0000190019B039307E0039B1B680293029BF7
:103CD0009847039B04330393039A034B9A42F3D30D
:103CE000C046C04605B000BD94B0001010B5034BEF
:103CF0001800FFF7E3FFC04610BDC04658B00010E3
:103D0000C04670478CB01A4B05931A4B0493059B21
:103D10000393049B0293039B0193029B80229201D5
:103D200094466344019A1A60C046C046C046124B8E
:103D30000B93104B0A93114B09930B9B08930A9B0F
:103D40000793089B0693079BC02292019446634405
:103D5000069A1A60C04600E0C046099B1B68DB4318
:103D6000089A1340F8D1C046C046C0460CB0704710
:103D7000BFCDFBFE00C00040FE7F3C0008C00040FD
:103D800082B00A4BDB6C002B0CD1094B01938023D2
:103D9000DB020093019B8022920194466344009AC7
:103DA0001A60C046C04602B07047C04600001150BD
:103DB0004C00115086B0104B0593104B0493104BE0
:103DC0000393059B0293049B0193029B0093019B29
:103DD000C022920194466344009A1A60C04600E0F3
:103DE000C046039B1B68DB43029A1340F8D1C046D0
:103DF000C046C04606B07047FFFFFF0100C000404C
:103E000008C0004082B0074B01934023019A93679A
:103E1000019A5367019A1367019AD366C04602B0AC
:103E20007047C04600F0014010B5FDF7F7F9C046F5
:103E300010BD000010B5074B9B681A00064B180018
:103E40001100C0231A0000F077FA024B024A9A6070
:103E5000C04610BD00ED00E0000000200023180067
:103E60007047000000B583B00420FFF7CDFC0300CD
:103E70000C49180000F0E6F80300009300230193BA
:103E800009E0019BDBB2009A11001800FFF750FE19
:103E9000019B01330193019B002BF2DDC046C0461C
:103EA00003B000BD40420F0000B589B0FFF7D6FF58
:103EB000031E1AD00023079309E0079BDBB23E4A9A
:103EC00011001800FFF7B0FC079B01330793079B15
:103ED000092BF2D9394B19000420FFF7A5FC384B08
:103EE00019000920FFF7A0FC60E0364B00229A671A
:103EF000FFF7BAFE344B069301230593069BC022BD
:103F0000920194466344059A1A60C04600E0C04698
:103F10002C4B5B6C012BFAD12C4B049303230393A2
:103F2000049BC022920194466344039A1A60C046DF
:103F300000E0C046234B9B6B012BFAD1244A254855
:103F40000223009306230121FFF7BCFC224A2348E9
:103F50000523009305230121FFF7B4FC174B002232
:103F600002210420FFF738FC1D4B0022012105200F
:103F7000FFF732FC104B002200210720FFF72CFC3A
:103F80000D4B002200210820FFF726FC0A4A80235F
:103F9000DB0000931300002200210920FFF7FEFB45
:103FA0000F4B002200210620FFF716FCFFF75AFFF7
:103FB000C04609B000BDC046006CDC02001BB70063
:103FC0001BB70000008000403C8000403080004073
:103FD000002F685900800240008C864700C00240D4
:103FE0004059730701480421014B18470015002070
:103FF000CD3B0010124A936F9B0815D29066D16694
:10400000002905D0FFE7FFE7FFE7516F106F70470A
:1040100004B580210906C2175140002800D0C843CA
:1040200006F0CAFF002104BDF0B5146E556E576F3F
:10403000166FFFF7E3FF1466556657671667F0BD06
:10404000000000D0114A936F9B0813D2106651668E
:10405000002905D0FFE7FFE7FFE7516F106F7047BA
:1040600004B5002801D00020C04306F0A5FF0021C0
:1040700004BDC046F0B5146E556E576F166FFFF74E
:10408000E5FF1466556657671667F0BD000000D05F
:1040900013231B781800704782B002006B46073369
:1040A0001A706B4606330A1C1A706B4607331A786F
:1040B0006B4606331B781B021343180002B070478F
:1040C00000B585B0FFF7E4FF03000293029B012BCC
:1040D0000DD10023039307E01B491C4B039A920068
:1040E000D150039B01330393039B1F2BF4D9029BF5
:1040F000012B19DD44215320FFF7CEFF03001800E8
:10410000FFF748FD0300019346215320FFF7C4FF4A
:1041100003001800FFF73EFD0300009301990B4BCD
:104120008022180000F008F9029B022B02DC064AEC
:10413000064B9A64064B1800FFF70CFD0200054B76
:104140001A60C04605B000BD594100109C2B0020EC
:104150004C3300009C2C002007B5604601880A0AF9
:104160000230DF2AFAD1C9B2820804D3028840881B
:104170000004104300E00068014A5050039007BD5E
:104180009C2B002051434343C9188C46110C83B229
:104190004B4310B4040C614392B280B2504362436B
:1041A0001C041B0C001910BC59411304120CC0183C
:1041B00051416144704713231B781800704782B047
:1041C00002006B4607331A706B4606330A1C1A70DE
:1041D0006B4607331A786B4606331B781B02134372
:1041E000180002B07047000000B585B0FFF7E3FF8C
:1041F0000300029346215320FFF7E1FF030018005C
:10420000FFF7C8FC03000193029B012B1AD101990F
:10421000164B5422180000F08FF81523039307E083
:104220001349124B039A9200D150039B013303931D
:10423000039B1F2BF4D90E4A0C4B1A620B4B1A6AC4
:104240000A4BDA61029B012B05DD0199074B8022A5
:10425000180000F071F8074B1800FFF77BFC020014
:10426000054B1A60C04605B000BDC046A02C00201A
:104270007D4200104C3300009C2C002007B56046A6
:1042800001880A0A0230DF2AFAD1C9B2820804D3AF
:10429000028840880004104300E00068014A505042
:1042A000039007BDA02C002000B583B001900091C1
:1042B000019B002B05D0019A009BD218044B9A4217
:1042C00003D9044B1800FCF77DFEC04603B000BDC7
:1042D000000004207CB5001000B585B0019000916D
:1042E000009A019B1100180006F048F9030003939F
:1042F000019B009A5A43039B11001800FFF7D4FF5B
:10430000039B180005B000BD00B583B00190019B70
:10431000180006F093F9C04603B000BD014804211F
:10432000014B184710150020CD3B0010014B1B68B6
:104330001847000010150020014B5B68184700006B
:104340001015002000B583B002006B4607331A70C9
:104350006B4607331B78180000F075FAC04603B0AF
:1043600000BD00B585B00291019200930F236B440C
:10437000021C1A700F236B441B78002B05D00F23EF
:104380006B441B781800FFF7DDFFC04605B000BD89
:1043900030B587B0039002910C4B1B68002B0CD0FA
:1043A0000A4B1C68039D01235A4205A90848029B39
:1043B00000932B00A047012304E0039B180000F0AA
:1043C00055FA0023180007B030BDC046582B002016
:1043D0006343001082B0019000BEC046FCE70000BD
:1043E00084B00190104B1B68002B02D10E4B0F4A7A
:1043F0001A600D4B1B6803930B4B1A68019BD31873
:104400000293029B0A4A9A429B415B42DBB2002B19
:1044100002D001235B4203E0034B029A1A60039B24
:10442000180004B07047C04654270020D02D00204B
:104430000000042000B583B00190019B1800FFF735
:10444000C9FF000000B583B0FFF750FC084B019393
:1044500005E0019B1B689847019B04330193019A77
:10446000044B9A42F5D3C046C04603B000BDC046D7
:1044700094B000109CB0001082B000900191009A9E
:10448000019B1000190002B0704784B003900092A5
:1044900001930399009A019B0A604B60C04604B0E7
:1044A000704700B583B0FEF769FE02000B00694655
:1044B0000800FFF7EAFF009A019B1000190003B003
:1044C00000BD000030B58BB0029003910192029ABA
:1044D000039B10001900FFF7CFFF02000B000692AC
:1044E0000793019B1C0000231D00FA229200002369
:1044F00020002900FFF746FE02000B001000190003
:10450000069A079B12184B4108920993089A099B37
:10451000002B04DA01225242074B08920993089AB1
:10452000099B04A90800FFF7B0FF049A059B10003F
:1045300019000BB030BDC046FFFFFF7F00B583B050
:104540000190FFF7AEFF019B1A00FFF7BBFF0200CF
:104550000B001000190003B000BD000010B5FA23D5
:104560009B001800FFF7EAFF02000B000349080058
:1045700006F04AFD0300180010BDC046881B00204D
:1045800010B5034B180006F00FFDC04610BDC04625
:10459000881B002000B585B0039002910192039B17
:1045A0001B680199029A10009847C04605B000BDEB
:1045B00000B589B0039002910192039B5B7D0122BB
:1045C0005340DBB2002B06D0039B1B680199029A73
:1045D000100098475EE0002307930023069339E01C
:1045E000069B002B09DD069B013B029AD3181B7822
:1045F0000D3B5A425341DBB201E0039B1B7D172266
:104600006A441370069B029AD3181B780A2B1ED19A
:1046100017236B441B7801225340DBB2002B16D0CA
:10462000069A079B9A4209DD039B1B68079A029929
:1046300088180699079A8A1A11009847039B1B68E5
:10464000154A022110009847069B01330793069BE9
:1046500001330693069A019B9A42C1DB079A019B9C
:104660009A4209DA039B1B68079A029988180199F4
:10467000079A8A1A11009847019B002B0ADD019BBB
:10468000013B029AD3181B780D3B5A425341DAB2D0
:10469000039B1A7509B000BD1CB6001010B588B098
:1046A0000390029119006B4607331A706B4606336C
:1046B0000A1C1A701B246C44FFF750FF0300237080
:1046C000029B013305D1039B180006F0E1FA0300B9
:1046D00002936B4606331B78002B01D01E4B00E083
:1046E0001E4B05931E4B1B68079327E0079B1B6817
:1046F000002B1DD01B4B1B68002B04D0194B1B68D3
:10470000079A9A4216D1029A03990798059B9847EF
:104710006B4607331B78002B0DD013236B440A2202
:104720001A70132169440798059B0122984702E0FB
:10473000C04600E0C046079B1B690793079B002B00
:10474000D4D11B236B441B78002B01D0FFF718FF3B
:10475000029B180008B010BDB1450010954500102F
:104760002C2700203827002084B001900A006B46D7
:1047700003331A70154B039318E0039B1B68019ACF
:104780009A420FD16B4603331B7801225340DBB2B0
:10479000002B18D0019B1A69039B1A60019B002211
:1047A0001A6110E0039B1B6810330393039B1B6883
:1047B000002BE2D16B4603331B78002B04D0039B04
:1047C000019A1A6000E0C04604B070472C27002010
:1047D00000B583B00A4B1B68019309E0019B5B683D
:1047E000002B02D0019B5B689847019B1B690193DA
:1047F000019B002BF2D1C046C04603B000BDC046AD
:104800002C27002000B583B06B46073300221A70B6
:1048100000F0A2F96B46073301221A7000F0D8FEAF
:1048200003001A006B4607331B781343DBB21A00F0
:104830006B460733511E8A411A706B4607331B784B
:10484000180003B000BD00B585B00190019BDAB23D
:104850000F236B441A700F206844012300220121AA
:10486000FFF71CFF019B180005B000BD00B585B027
:104870000190019B180006F00BFA030003930399C3
:10488000019801230122FFF709FFFFF7A1FF039B16
:10489000180005B000BD000082B00190019B044AE1
:1048A000944663445A425341DBB2180002B0704749
:1048B0000080FCBF00B583B00190019B1800FFF79A
:1048C000EBFF019B180003B000BD30B58DB0019027
:1048D000080011006B460333021C1A706B4602334A
:1048E0000A1C1A706B4602331B78002B01D0202261
:1048F00000E000226B4603331B78002B01D010230D
:1049000000E000231A4315006B4603331B78002B8D
:1049100001D0402400E00024019B1800FFF7CAFFEB
:10492000030022002A439A636B4603331B78002B53
:104930001CD0019B1800FFF7BDFF030034330B931D
:1049400000230A93382309930B9B1A680A9B534050
:10495000099A13400B9A08920793089B80225201F0
:1049600094466344079A1A60C046C0466B460233B9
:104970001B78002B1CD0019B1800FFF79BFF030046
:10498000343306930023059307230493069B1A6888
:10499000059B5340049A1340069A03920293039B8B
:1049A0008022520194466344029A1A60C046C0466F
:1049B000C0460DB030BD00B583B00190019B18001A
:1049C000FFF778FF03009B69202213405A425341AE
:1049D000DBB2180003B000BD00B583B0019000E069
:1049E000C046019B1800FFF765FF03009B69082282
:1049F0001340F5D1C046C04603B000BD00B583B03A
:104A00000190019B1800FFF755FF03009B691022DE
:104A100013405A425341DBB2180003B000BD10B539
:104A200086B00390029101920023059319E0C046DD
:104A3000039B1800FFF7BFFF03001A000123534038
:104A4000DBB2002BF3D1029B5A1C02921C78039B11
:104A50001800FFF72FFF030022001A60059B0133A7
:104A60000593059A019B9A42E2D3C046C04606B020
:104A700010BD00B587B00390029101920023059309
:104A800019E0C046039B1800FFF7B8FF03001A00A7
:104A900001235340DBB2002BF3D1039B1800FFF737
:104AA00009FF03001968029B5A1C0292CAB21A70CD
:104AB000059B01330593059A019B9A42E2D3C046B8
:104AC000C04607B000BD00B583B001900A006B4638
:104AD00003331A706B46D91C019B01221800FFF7A3
:104AE0009EFFC04603B000BD00B583B001900A0030
:104AF0006B4603331A70019B1800FFF7CDFE0200CE
:104B00000C4B5200D35E1A006B4603331B789A425B
:104B100004D1019B0D211800FFF7D5FF6B4603332D
:104B20001A78019B11001800FFF7CDFFC04603B0B3
:104B300000BDC046AC2D002000B585B001900F210E
:104B40006944019B01221800FFF793FF0F236B4478
:104B50001B78180005B000BD00B583B001235B428F
:104B6000019301235B4200930023019301230093EF
:104B7000074B1B78074B1B78074B1B78009B019A50
:104B8000E1214902054800F00BF8C04603B000BD22
:104B900080B9001084B9001088B9001000400340AB
:104BA00000B585B00390029101920093104B039AD7
:104BB0001A60019B002B04DB019B02211800FCF70B
:104BC000B3F9009B002B04DB009B02211800FCF7CB
:104BD000ABF9074B1B68029A11001800FEF78CFB1B
:104BE000044B01211800FFF7BFFDC04605B000BD12
:104BF000B02D00202015002000B585B00190009157
:104C0000002303930BE00A4B1868039B019AD31807
:104C10001B781900FFF768FF039B01330393039A86
:104C2000009B9A42EFDBC046C04605B000BDC046BF
:104C3000B02D002010B584B00190009100230393A3
:104C40000CE0164B1968039B5A1C03921A00019B37
:104C50009C180800FFF770FF03002370039A009B65
:104C60009A4206DA0D4B1B681800FFF7C7FE031EB9
:104C7000E7D10B4B1B68002B06D0084B1B680022AA
:104C800001211800FFF721FE039B002B01D0039B9D
:104C900001E003235B42180004B010BDB02D0020DA
:104CA000C426002010B5094B1B68002B0CD0084B04
:104CB0001B68002200211800FFF707FE034B1A684B
:104CC000044B1B6818009047C04610BDC426002046
:104CD000B02D0020CC26002000B585B001900091B9
:104CE000254B1B68254A934201D1152300E014236C
:104CF0000393019B002B1CD0214B1B68002B18D168
:104D00001F4B019A1A601F4B009A1A601E4A039BA0
:104D100011001800FCF7BCFB039B01211800FCF7F5
:104D200001FB154B1B68002201211800FFF7CDFD88
:104D30001EE0019B002B1BD1114B1B68002B17D0D1
:104D40000D4B1B68002200211800FFF7BEFD039BDE
:104D500000211800FCF7E6FA0B4A039B110018002B
:104D6000FCF7BCFD064B00221A60064B00221A60BD
:104D7000C04605B000BDC046B02D002000800340F5
:104D8000C4260020CC260020A54C001010B5034BF3
:104D90001B681800FFF720FEC04610BDB02D002094
:104DA000014B18007047C04668B6001000B583B0CC
:104DB00000926B460733021C1A706B4606330A1CBE
:104DC0001A706B4606331B78012B01D0012316E0C5
:104DD000009B5B78012B11D1009B1A795B791B0238
:104DE00013439BB2072B09D1064A00996B46073340
:104DF0001878A62302F0DCFD030000E00023180071
:104E000003B000BD8CB60010C046704782B00200EF
:104E10006B4607331A70034B00221A70C04602B06B
:104E20007047C046CA2D002084B0009111006B4627
:104E30000733021C1A7001AB0A1C1A80009B5B79B5
:104E4000FF2B07D1009B9B79002B03D1009BDB79C3
:104E5000012B01D0002313E00E236B4409221A809A
:104E600001AA0E236B4412881B889A4201D20023A8
:104E700006E0009B9A78044B1A700E236B441B8843
:104E8000180004B07047C046CA2D002000B585B098
:104E900000926B460733021C1A706B4606330A1CDD
:104EA0001A706B4606331B78012B01D0012354E0A6
:104EB000009B1A795B791B0213439BB2284A127834
:104EC000934249D1009B5B78012B3AD101235B428D
:104ED00003930B236B4400221A70009B9A78DB78B3
:104EE0001B0213439BB21A0080235B00134008D0BF
:104EF000009B9A78DB781B0213439BB25B0A9BB240
:104F00000393009B9A78DB781B0213439BB21A0031
:104F100080239B001A400B236B44511E8A411A7058
:104F2000009B9A78DB781B0213439BB21A007F2305
:104F30001A4011000B236B441A78039B1800FEF7EC
:104F400077FE009B5B78022B06D1642200210020B3
:104F5000FEF7B4FD012300E00023180005B000BDFA
:104F6000CA2D002010B582B0040008001100009383
:104F70006B460733221C1A706B460633021C1A70EC
:104F80006B4605330A1C1A700123180002B010BDCD
:104F900082B00190019B01221A70024B180002B0EE
:104FA0007047C04634B7001000B585B002000091CC
:104FB0006B4607331A70009B1A78597809020A4326
:104FC000997809040A43DB781B0613431A009623D9
:104FD000DB009A420ED101235B4203930B236B4407
:104FE00000221A700B236B441A78039B00211800CF
:104FF000FEF71EFEC04605B000BD82B000900191D4
:10500000009A019B1000190002B0704784B0039011
:10501000009201930399009A019B0A604B60C0467D
:1050200004B0704700B583B0FEF7A8F802000B008B
:1050300069460800FFF7EAFF009A019B100019007B
:1050400003B000BD00B58BB00290039100920193B4
:10505000029A039B10001900FFF7CFFF02000B001C
:105060000692079306980799009A019B12184B41E4
:1050700008920993089A099B002B04DA01225242F4
:10508000074B08920993089A099B04A90800FFF7A7
:10509000BDFF049A059B100019000BB000BDC0466F
:1050A000FFFFFF7F30B58BB0029003910192029A0F
:1050B000039B10001900FFF7A0FF02000B000692EF
:1050C0000793019B1C0000231D00FA22920000237D
:1050D00020002900FFF756F802000B00100019000D
:1050E000069A079B12184B4108920993089A099B4C
:1050F000002B04DA01225242074B08920993089AC6
:10510000099B04A90800FFF781FF049A059B100082
:1051100019000BB030BDC046FFFFFF7F00B583B064
:105120000190FFF77FFF019B1A00FFF7BBFF020012
:105130000B001000190003B000BD00B589B0079046
:1051400004920593FFF76EFF049A059BFFF77AFF21
:1051500002000B0007980CA9097802910B990191A4
:105160000A990091FDF7FAFB0300180009B000BD91
:1051700000B589B00690079105920493FDF70CF9EC
:10518000069A079B0AA90978029104990191059949
:105190000091FFF7D2FF0300180009B000BD82B0F4
:1051A0000190019B1B685A1E9341DBB2180002B0AC
:1051B000704786B00190019B1B680593EFF3108345
:1051C00072B60493049B0393059B029300E0C046D0
:1051D000029B1B685A425341DBB2002BF7D1BFF34D
:1051E0005F8FC046C046C046039A019B5A60C046C6
:1051F00006B0704786B00190019B1A68019B5B68FE
:1052000005920493059B0393BFF35F8FC046C0468E
:10521000039B00221A60C046049B0293029B83F307
:105220001088C046C046C04606B0704782B00190A4
:10523000019B1B685A1E9341DBB2180002B07047F5
:1052400000B585B001900091174B1800FFF7EEFFF5
:10525000031E0FD0144B1800FFF7ABFF134B0022B7
:105260001A70114B1800FFF7C5FF002200230292AD
:10527000039304E0FA2292000023029203930C4B62
:105280001B781800FCF76AF8031E07D0084B1B7840
:105290001800FCF7A9F8029A039B01E00022002302
:1052A0001000190005B000BD7C2B0020CC2D002083
:1052B000CB2D002000B585B02B4B0021180005F048
:1052C00083FE031E1DD001235B420021180001F064
:1052D00017F9C046002002F077FD03000293224B2D
:1052E000180005F061FE029B002B3AD01F4B1B6893
:1052F000002B36D01D4B1A681D4B1B6818009047B9
:105300002FE01C4B1800FFF791FF031E29D0194B0B
:105310001800FFF74EFF184B1B78DBB25A1E934163
:10532000DBB201225340DBB21A000F236B441A7028
:105330001A7801210A401A700F4B01221A700D4B86
:105340001800FFF757FF0F236B441B78002B08D082
:105350000A4AFA2080000021012300930023FFF76E
:1053600007FFC04605B000BDA42D0020C8260020C0
:10537000D02600207C2B0020CC2D00204152001094
:1053800010B5034B1B781800FCF72EF8C04610BD73
:10539000CB2D002030B589B001900091FA239B00FD
:1053A0001800FFF7BBFE02000B004049080005F0A3
:1053B0002BFE03001A0001235340DBB2002B00D068
:1053C00071E000F08DF9031E63D0002307935BE0CA
:1053D000009A079BD31A0693002002F003FE0300F5
:1053E0000593069A059B9A4201DD059B0693069B51
:1053F000002B23D0079B019AD218069B039202939D
:10540000029A039B1900002002F028FD0300049378
:1054100001235B420021180001F072F8C046002011
:1054200002F05AFD079A049BD3180793FDF7A6FED6
:1054300002000B001E490A604B6025E001235B421D
:105440000021180001F05CF8C046002002F044FD85
:1054500000F046F903001A0001235340DBB2002B91
:105460001CD1002002F0BEFD031E0DD1FDF786FE0B
:105470000F4B1A685B680F4C002512196B4199425B
:105480000CD801D1904209D8079A009B9A429FDB21
:1054900004E00749002200230A604B60034B180018
:1054A00005F082FD00E0C04609B030BDA42D00200B
:1054B000101D002020A1070010B5FA239B00180042
:1054C000FFF72CFE02000B000E49080005F09CFDC2
:1054D00003001A0001235340DBB2002B10D101233B
:1054E0005B420021180001F00BF8C046002002F0DA
:1054F000F3FC031EF3D1034B180005F055FD00E04B
:10550000C04610BDA42D002000B587B001900091C9
:1055100003235B42059300F0E3F8031E42D0002012
:1055200002F052FC031E3DD0FA239B001800FFF747
:10553000F5FD02000B001D49080005F065FD0300A4
:105540001A0001235340DBB2002B02D003235B423D
:1055500029E000F0C5F8031E19D0002002F034FC49
:10556000031E14D0009B019A03920293029A039B9C
:105570001900002002F042FC03000493049B002B5E
:1055800001D0049B01E003235B42059306E0012365
:105590005B420021180000F0B3FFC046034B180027
:1055A00005F002FD059B180007B000BDA42D0020EA
:1055B00082B001900091044B019A1A60034B009A4B
:1055C0001A60C04602B07047C8260020D0260020CE
:1055D00010B584B0D0231B061C68FCF7DDFE030069
:1055E0001800FDF749FB03009C4201D0002363E053
:1055F000334B1B7803F03CFC324B1800FFF7CFFD18
:1056000003001A0001235340DBB2002B03D02D4BC3
:105610001800FCF71DFC0F236B4401221A700120B7
:10562000FCF74AFB0300DAB2274B1A70264B1B78B3
:105630001A00264B19001000FBF72AFF224B1B789B
:1056400001211800FBF76EFE0520FBF7EFFE031E9D
:1056500010D00120FBF7CAFD03001A001C4B1100FB
:105660001800FCF733FC1B4B002219000520FBF748
:10567000E1FF14E0164B082200211800FEF756FE49
:10568000154AFA2080000021012300930023FFF730
:105690006FFD02000F236B44D243D20F1A700F2309
:1056A0006B441B78002B04D00C4B01211800FFF732
:1056B0005BF80F236B441B78180004B010BDC04684
:1056C0008CB90010A42D0020CB2D0020B552001065
:1056D0007C2B00208153001041520010381500200F
:1056E00010B5002002F02CFB0300180010BD0000D4
:1056F000014B18007047C04674B7001082B002001A
:105700006B4607331A70024B180002B07047C04650
:1057100088B7001000B585B002006B4607331A70D9
:1057200001AB0A1C1A802F4B1B78002B04D12D4B88
:105730001121180000F068F86B4607331B78002B26
:1057400007D1294B294A5A800F236B4401221A7032
:1057500033E06B4607331B78052B01D900233DE06E
:105760006B4607331A78224B9200D35802930F23CB
:105770006B4400221A7013E00F236B441B78029ACB
:10578000D31819780F236B441B785A1C164B520000
:10579000D1520F236B440F226A44127801321A70DF
:1057A0000F236B441B78122B07D80F236B441B78F5
:1057B000029AD3181B78002BDED10F236B441B7881
:1057C0009BB201339BB2DB189BB21BB2C02292008A
:1057D00013431BB29AB2044B1A80034B180005B056
:1057E00000BDC046B42D002004270020090400009D
:1057F00008B8001010B5034B180000F041F8C0467F
:1058000010BDC046942B002084B00190009100236D
:10581000039321E0039B5B08174AD35C1900039BA9
:10582000DB43012213409B0019410B000F22134060
:105830000293029B092B04DC029BDBB23033DBB208
:1058400003E0029BDBB23733DBB20199039A8A187B
:105850001370039B01330393009B013B039A9A420D
:1058600002D2039B0F2BD5D9019A039BD318002298
:105870001A70C04604B07047942B0020C046704791
:1058800000B58DB0019007AB18000D231A00002160
:10589000FEF74CFD03AB18000D231A000021FEF7A4
:1058A00045FD07AB4B221A7003A907AB0D22180068
:1058B00005F072FB00230B930AE00B9B5A1D0B9B18
:1058C0000199CB1803A98A5C1A700B9B01330B93C7
:1058D0000B9B072BF1DDC046C0460DB000BD0FB4D9
:1058E00010B502AB1B7801225340DBB2002B01D074
:1058F000FEF7DCF9C04610BC08BC04B0184782B003
:105900000190019B9B6A180002B0704710B5034BD1
:105910001800FFF7F4FF0300180010BD0040054019
:1059200082B00190019B024A5340180002B07047B8
:105930000000105000B589B001900A006B46033397
:105940001A70019B1B8B049340230393049A039BBF
:10595000D318013B03991800FEF774FB03009B0169
:1059600007936B4603331B78022B02D1079B5B0026
:105970000793184B1A68019BDA60164B1A68079B4D
:10598000D218144B1A60019BDB681800FFF7C8FFA0
:10599000030006930F4B1B681800FFF7C1FF0100BF
:1059A00080235A0100238A425B41DBB21800FFF7D3
:1059B00096FF6B4603331B789A06069B134380229F
:1059C000120613430593019B5B68059A1A60C04653
:1059D00009B000BD602B002010B586B0040008009F
:1059E00011006B460733221C1A7001AB021C1A808F
:1059F0006B4606330A1C1A700F236B446A46073243
:105A000012781A700E236B440F226A4412781A70AF
:105A10000E236B441B787F221340DAB20D236B44B4
:105A20001A7003AB0F226A4412781A7003AB1B780A
:105A3000DB09DAB20B236B441A700A236B440D2284
:105A40006A4412781A7009236B440B226A44127854
:105A50001A700A236B441A7809236B441B7852008E
:105A6000D3185A01414BD318C046059304AB6A467C
:105A7000073212781A7004AB1B787F221340DAB217
:105A800013236B441A7011236B446A460732127851
:105A90001A7011236B441B78DB09DAB212236B44B2
:105AA0001A70059B6A46073212789A7012236B446B
:105AB0001B785A425341DAB2059B5A70059B00226B
:105AC000DA70059B01AA12881A83059B6A46063282
:105AD0001278DA7612236B441B78012B08D113233A
