:020000041000EA
:1000000000B5324B212058609868022188439860DF
:10001000D860186158612E4B002199600221596106
:100020000121F02299502B49196001219960352056
:1000300000F044F80222904214D00621196600F024
:1000400034F8196E01211966002018661A6600F04E
:100050002CF8196E196E196E052000F02FF8012189
:100060000842F9D1002199601B49196000215960AB
:100070001A491B48016001219960EB211966A021F2
:10008000196600F012F800219960164914480160C1
:100090000121996001BC002800D000471248134993
:1000A000086003C880F30888084703B5996A0420EC
:1000B0000142FBD001200142F8D103BD02B5186610
:1000C0001866FFF7F2FF186E186E02BD00000240BE
:1000D000000000180000070000035F00212200005C
:1000E000F4000018222000A00001001008ED00E03C
:1000F00000000000000000000000000074B24E7A12
:1001000000200420F7010010CB010010CD010010E9
:10011000C9010010C9010010C9010010C901001077
:10012000C9010010C9010010C9010010CF01001061
:10013000C9010010C9010010D1010010D301001045
:10014000C1010010C1010010C1010010C101001067
:10015000C1010010C1010010C1010010C101001057
:10016000C1010010C1010010C1010010C101001047
:10017000C1010010C1010010C1010010C101001037
:10018000C1010010C1010010C1010010C101001027
:10019000C1010010C1010010C1010010C101001017
:1001A000C1010010C1010010C1010010C101001007
:1001B000C1010010C1010010C1010010C1010010F7
:1001C000EFF30580103800BE00BE00BE00BE00BECA
:1001D00000BE00BEF2EB8871F05C0010105D0010F4
:1001E0003802001090A31AE71E481F49086006C88D
:1001F00081F3088810471D480068002801D019487D
:10020000F3E70DA40ECC002902D000F012F8F9E7B4
:100210001749184A002000E001C19142FCD116495B
:100220008847164988471649884700BEFDE701C937
:1002300001C29A42FBD37047105D0010C00000203D
:1002400078160020C872001000000420000004206E
:10025000C8720010001004200010042000000000EC
:10026000704700000000000008ED00E0000000D032
:10027000781600202C27002061230010D1090010DF
:1002800059230010F8B5C04606480749091A8B10D3
:10029000C90FC91810B5491003D0044B002B00D06A
:1002A000984710BD78160020781600200000000046
:1002B000054B10B5002B03D00449054800E000BFF2
:1002C000FFF7E2FF10BDC04600000000C826002076
:1002D0004C5800107047C04670B5084D084C2800B7
:1002E00002F084F9FA20800001F0D8F9200002F031
:1002F0007DF9FA20800001F0D1F9F0E74C580010A8
:100300005458001070B5084D084C280002F06EF9E2
:10031000FA20800001F0C2F9200002F067F9FA200B
:10032000800001F0BBF9F0E75C5800106458001041
:1003300070B506000D0001203821140001F0A4FF63
:10034000382200210A4B446102604360094A8661F9
:100350001368C56101618360C160002B00D0D86063
:100360001060054A203013680133136070BDC04629
:1003700077B60200A0220020AC22002070B5050054
:100380000C000120382101F07FFF382200210B4BA7
:10039000446183610A4BC56102604360094A01619F
:1003A0001368C1608360002B00D0D8601060064ADB
:1003B000203013680133136070BDC0466C580010C4
:1003C00077B60200A0220020AC22002028380F4B74
:1003D000426810B59A4213D100210D4A836814680F
:1003E0004160A0420DD0C268002A00D09360002B6B
:1003F00000D0DA6001F05CFF064A13680133136035
:1004000010BD1360002BF5D0D960F3E777B602007A
:10041000A0220020B0220020F0B5C64600B500287A
:100420002FD00568002D2CD01A4B1B4E98461B4F21
:1004300001E0002D25D02C002200083A1368AD6899
:10044000013B1360002BF4DC200000F063F8200077
:1004500028384368B342ECD14146002209688368DA
:100460004260884210D0C268002A00D09360002BFE
:1004700000D0DA6001F01CFF3B6801333B60002DC7
:10048000D9D180BCB846F0BD41460B60002BF0D1FD
:10049000F0E7C046A022002077B60200B02200207C
:1004A00010B50C00002A03D108390A68013A0A6025
:1004B000002B04D12300083B1B68002B00DD10BD7E
:1004C000031E01D020009847200028380E4B4268B8
:1004D0009A42F4D100210D4A836814684160A04219
:1004E0000DD0C268002A00D09360002B00D0DA60E3
:1004F00001F0DEFE064A136801331360DFE7136084
:100500008B42F5D0D960F3E777B60200A022002035
:10051000B022002010B5002809D00068002806D0BD
:100520000200083A1368013B1360002B00DD10BD88
:1005300028380F4B42689A42F9D100210D4A83684E
:1005400014684160A0420DD0C268002A00D09360B8
:10055000002B00D0DA6001F0ABFE074A13680133CC
:100560001360E4E71360002BF5D0D960F3E7C046D1
:1005700077B60200A0220020B0220020F0B5802132
:10058000C646040000B54901012001F07DFE80222D
:100590005F4B5204C25003225E4B5242C450043B94
:1005A000C2505D4B1732C5180021280001F08CFEA7
:1005B0005021012001F068FE584B50224361584BF6
:1005C000002183613123C361564B04000260436004
:1005D000554A01611368C1608360002B00D0D86068
:1005E0001460524A26001368A56201331360504B11
:1005F00002221D683023283622626362002D35D026
:10060000AF684C49002F36D0012F53D04A48FFF72E
:10061000B5FE14234360133B0360002307006A68A0
:100620000361236A81680133C260083723628660F0
:10063000002906D0080008380368013B0360002B3E
:100640005DDD97606F60AB680133AB60236A013B8F
:100650002362002B03DC3000FFF7B8FE236A013B66
:100660002362002B03DD80BCB846F0BD256230005C
:10067000FFF7ACFEF7E73148FFF780FE1423436035
:100680000C3B9C4601230360236A82688444013347
:10069000C7600761E04623628660002A06D0110029
:1006A00008390B68013B0B60002B2DDD43466B6066
:1006B0002B60C8E7F1208000FFF760FE1423436041
:1006C0000C3B9C46002307602A680361236A81680B
:1006D00084440133C260E0462362866000290AD068
:1006E000080008380368013B0360002B03DC0800A6
:1006F000FFF76CFE2A6843466B609360A3E708002F
:10070000FFF764FE6A689CE71000FFF75FFECDE725
:10071000F80F0000F40F0000DC0F000088580010F4
:100720009858001077B60200A0220020AC220020CA
:10073000B4220020A0580010CE030000BA0300002D
:10074000F0B5DE4657464E4645460200E0B5254820
:1007500004601B4B1B68936023480560194B1B68A2
:10076000D36022480660184B1B681361204807605D
:10077000164B1B6853611F4843460360144B1B68AC
:1007800093611D484B460360124B1B68D3611B48A5
:1007900053460360104B1B68136219485B460360A5
:1007A0000E4B1B685362EFF30981164801600C4B36
:1007B0001B681360F0BCBB46B246A946A046F0BD1C
:1007C000D41A0020D81A0020DC1A0020E01A0020D9
:1007D000E41A0020E81A0020CC1A0020D01A0020C9
:1007E000EC1A0020D41A0020D81A0020DC1A0020AD
:1007F000E01A0020E41A0020E81A0020CC1A002099
:10080000D01A0020EC1A0020F0B5DE4657464E46BE
:10081000454603681E49E0B50B6099691D4B02000F
:1008200019602548036883F309881B4B516A1960D6
:1008300022480468A346194B116A196020480468CD
:10084000A246174BD16919601E480468A146154B92
:10085000916919601C480468A046134B51691960DE
:100860001A480768114B1169196019480668104B3E
:10087000D1681960174805680E4B92681A601648CF
:100880000468F0BCBB46B246A946A046F0BDC046CF
:10089000EC1A0020C81A0020D01A0020CC1A002020
:1008A000E81A0020E41A0020E01A0020DC1A0020D8
:1008B000D81A0020D41A0020EC1A0020D01A0020E8
:1008C000CC1A0020E81A0020E41A0020E01A0020C8
:1008D000DC1A0020D81A0020D41A0020F0B5CE4629
:1008E000474680B5384B83B01F689946002F62D0C9
:1008F000364D2E68311E01DAB96871183C68002C3B
:100900003AD02300002203E09B680132002B33D051
:100910009142F9D11B689846002B2DD01800083B56
:100920001A681A600192FFF70BFF019A002A34DD62
:10093000BF68701C390001F08DFB2960002934DB91
:10094000002303E0A4680133002C22D09942F9D19E
:100950002468002C1DD02000FFF756FF2300083B21
:100960001B68002B02DC2000FFF730FD012003B0E4
:10097000C0BCB946B046F0BD0020FFF7E1FE701CD8
:10098000BF68390001F066FB296000290FDB002CED
:10099000D6D10020FFF738FFE8E74046FFF716FD05
:1009A0004B461F68002F0AD1FFDEC919C8E7C919D5
:1009B000002CC5D1EDE70020FFF7C2FEFFDE28685E
:1009C0003C680130DCE7C046B4220020A8220020A9
:1009D00070B50024304B8AB01C60304B1C6001F0B5
:1009E000B7FD2F4800F05AFE81212E4D2E4A2F4888
:1009F00049002E68FFF79CFC18234360173B846076
:100A0000C4600461036008302860002E05D0002314
:100A1000002231002648FFF743FD2648FFF7AEFDD0
:100A20002548FFF7ABFD254A2B681168002B30D015
:100A3000002901DA9A6889181B68002B29D0002246
:100A400003E09B680132002B23D08A42F9D1196858
:100A500000291ED00A681A4B1A481A600023012286
:100A6000FFF71EFD00F016FD04AB02930023019377
:100A7000154B164A0093002300F00EFF144804683B
:100A800084F30988022080F31488BFF36F8FFFF787
:100A900023FC00231B68FFDEA4220020A0220020EC
:100AA00088130000B4220020BC5800109858001091
:100AB00019040010D902001005030010A82200201C
:100AC000EC1A0020D5020010DD08001040420F0093
:100AD000EC1A00208023DB051868000F7047C04621
:100AE0000FB400B5084883B001F080FD049B002BD3
:100AF00007D005A91800019101F0FAFB034801F0A5
:100B000075FD012001F00CFCD4580010E4580010D1
:100B100070B58C461600EFF3108472B60F490B685F
:100B2000002BFCD0BFF35F8F6346DB08C51807229C
:100B3000C05C63461A40012393401A0002400342FE
:100B400007D118432870BFF35F8F0A6084F31088C1
:100B500070BD61463000FFF7C3FFC0462C0100D0D6
:100B6000F8B5CE4647468C4680B51C00EFF310889A
:100B700072B61C490B68002BFCD0BFF35F8FA242FA
:100B800021D80723994602E00132944218D34946FE
:100B9000012611408E40D308C718C35C1E42F3D112
:100BA000100033433B70BFF35F8F00220D4B1A6080
:100BB00088F3108800280EDBC0BCB946B046F8BDEB
:100BC00001204042EFE7BFF35F8F00230B6088F303
:100BD0001088012040426346002BEDD00898FFF7B3
:100BE0007FFFC0462C0100D0044A1078431CDBB2C2
:100BF000172B00D9102313707047C046980F0020A0
:100C000000B5054B83B00100009318221F23034851
:100C1000FFF7A6FF03B000BDE858001038220020FF
:100C20000021044B044ABFF35F8F02C39342FAD101
:100C30007047C046000100D0800100D0084B094A2F
:100C40001360094A1360094A1360094A1360094A8C
:100C50001360094A1360094A1360094A1360704718
:100C60008080808000E400E004E400E008E400E02C
:100C70000CE400E010E400E014E400E018E400E01C
:100C80001CE400E01F2318401E3B8340002905D0D0
:100C9000C021044A49005350136070478022014923
:100CA0008B50FAE700E100E001228240034B1B6811
:100CB00013405A1E9341D8B27047C04600E100E08D
:100CC00001238340014A13607047C04600E200E000
:100CD000054B10309B688000C358044A00209B1AC3
:100CE0002F229A424041704700ED00E09C0F002007
:100CF00070B50D00EFF3108672B60F4A1368002B23
:100D0000FCD0BFF35F8F0D4B10309B6884001B59E4
:100D10000B4A934203D09D4201D001F06FF8074B7C
:100D20009B681D51BFF35F8FBFF35F8F0022024BA3
:100D30001A6086F3108870BD240100D000ED00E039
:100D4000C1010010F0B5DE4657464E464546E0B5B7
:100D5000824683B08B461700EFF3108872B6604A64
:100D60001368002BFCD0BFF35F8F00255D4B5D57F0
:100D70009946002D00DA9AE04A466B005A4C5E19FB
:100D8000B6000193A31900939B791370574B9A688F
:100D9000534610339B00D15899460B1B2F2B32D949
:100DA000534B994200D098E0019B0236ED18514B0D
:100DB000AD006353504BA619043B9B1B4F4A1B05C8
:100DC0005B0D651913436B804D4B0121AB80FF23F5
:100DD000AB715B46AB60009BEF710B4319004A4659
:100DE000424B9B689950BFF35F8FBFF35F8F002228
:100DF0003B4B1A6088F3108803B0F0BCBB46B24688
:100E0000A946A046F0BD01200A008243D379B4462A
:100E1000BB422DD83B4BB51C190013001B1B5B417B
:100E20005943090D8C46334B6519A353324B009936
:100E3000043B5B1B1B05314D5B0D2B4304364B8084
:100E4000A619131F9B1B1B055B0D1D4363468B716E
:100E50005B468B602C4B8D80CF7113600143BEE7E6
:100E60005800C01880002018C679BE4225D902005B
:100E70000623D356002BF3DA9A46131D9C462348CB
:100E80006346009E9571043EF61A36051B4B760D9F
:100E90001E43019B96805A1953469200A418A371D1
:100EA0005B46194AA0802260E771A36097E700F0D3
:100EB000A5FF00254B465D575EE766469A46131D23
:100EC0009C469088043640050015A6196044801B96
:100ED00000050A4E400D3043D2E700F08FFF63E774
:100EE000240100D0252700209C0F002000ED00E009
:100EF000C101001000A1FFFFCC0F002000E0FFFFA8
:100F000001BDFFFFAAAA00000148804701BD000003
:100F10000123034370B59C46EFF30581EFF3108581
:100F200072B6214A1368002BFCD0BFF35F8F1F4BB2
:100F300004001F4AE41A64416243120D1D4C8900EB
:100F4000A66852B2765866451CD006215956914281
:100F50001CD012215956914222D01E21595691423D
:100F600020D02A2159560324914210D0124B1978CF
:100F70001A708171BFF35F8F00220B4B1A6085F3EB
:100F8000108870BDA3680D4C5C50EFE70024610031
:100F9000091989005B18FF21997109499980E5E7D2
:100FA0000124F4E70224F2E7240100D09C0F002082
:100FB000AAAA000000ED00E025270020C1010010D2
:100FC00001BDFFFF00B5074B83B001000093002275
:100FD00005230548FFF7C4FD002801DB1F23181A6D
:100FE00003B000BD0459001029270020024BC91886
:100FF000890001607047C0464000003470B5114C54
:10100000114DAC420FD2FF262368002B0CD0FFF706
:10101000EBFD01002000FFF7E9FFA680BFF35F8F23
:101020000834AC42F0D370BDFFF7DEFD01002000B4
:10103000FFF7DCFF2671BFF35F8F0834AC42E3D3C8
:10104000F1E7C046701600207816002010B50400A5
:10105000FFF7CAFD01002000FFF7C8FFFF2323713F
:10106000BFF35F8F10BDC04610B504000120FFF72D
:10107000C7FD034BC01880002060BFF35F8F10BD19
:1010800040000034034BC91889000160BFF35F8F33
:101090007047C046400000340A4B1968EFF31080D7
:1010A00072B60A68002AFCD0BFF35F8F1B68BFF3DB
:1010B0005F8F00221A6080F3108840BF002000215B
:1010C0007047C04604270020F0B5DE4657464E461E
:1010D0004546E0B585B0EFF3058303221A40B34BD4
:1010E00091005F58012393409B4602925A468846DE
:1010F000AF4B1A60AF4B03935B46AF484363082383
:10110000FE5E002E37DABB881BB2002B00DBA4E0AA
:10111000BB79002B00D0E5E00823F95E002920DB35
:101120004B007A695B18DB00D3189D68DC686B1C88
:1011300000D104E1A04801004144826A0B69AE1A63
:101140009B1A9E4215D30123026A029883401A42D9
:101150000FD0994800F03CFC8C4202DCCCD1854297
:10116000CAD940BF05B0F0BCBB46B246A946A046AE
:10117000F0BD0D61EDE77A69730091469B19DB00C4
:1011800099444B469C68DD6800F022FC8D42BADC35
:1011900000D1F6E0002D00DADBE04A464B4652690A
:1011A0001B699246039A934200D1CCE04A4608213B
:1011B000785E528800045146104398470090019190
:1011C0000099019A0B00134300D1C2E013000A00FA
:1011D000002B00DBD9E020002900801A99414B4602
:1011E0009860D96000229B5E002B00DA8BE75D00DF
:1011F0007C69EA18D200A21800949468D268A246CA
:101200008A4200DD7FE702D1844200D97BE70824CF
:10121000A4463B81BC44009C00972F006546B44621
:101220003E0006E05E00F218D200A2189768D2686D
:10123000BA468A4207DC00D1B4E0F318DB00E518B7
:10124000E35E002BEEDA66464A46009F13802E804E
:10125000BB881BB2002B00DA5AE73A69EFF3108122
:1012600072B61368002BFCD0BFF35F8F0123BE88DA
:101270005B42BB8036B23B69BFF35F8F00221A60CE
:1012800081F31088002E00DA42E73B0008333A0071
:1012900099467D6973009B190824115FDB0048465D
:1012A000EB18002913DB9C680093A446DC6806E079
:1012B000A34240D00023F95E3800002906DB4F002E
:1012C0007F18FF00EF19FB68A342F1DD009B068049
:1012D00000201E5E1980002EDCDA1700BB79002B7F
:1012E00000D119E70023BB710823F95E4B1C00D124
:1012F00037E73D000835AC467C6903E084464B1C6B
:1013000000D109E74B005B18DB00E0180A00E15E42
:1013100043881BB2002BF1DA01256D42EE17856080
:10132000C66008257B5F9342E9D0634619803B89FC
:1013300003803A81E3E7BB686345BBD9C6E7631C1A
:1013400000D0F7E605E7534650461B69984700284A
:1013500023D14B461B883A693B81EFF3108372B669
:1013600011680029FCD0BFF35F8F49467A880A8054
:101370003A697E80BFF35F8F0021116083F310888C
:10138000C1E6844200D805E7BDE60B4800F020FB2B
:10139000009B019CC018614121E753460CCB009291
:1013A00001930DE7824500D847E74CE7E826002087
:1013B0003C700540C91000100040054070B52D4C30
:1013C0002569002D04D00A212B48FFF70FFE70BDC0
:1013D0002A4E0321294800F0F1FAE660FFF704FCE9
:1013E000274B0322C018D02322701B061B68012143
:1013F0006370244B8000A3600F2320610220638070
:1014000063694942A18019800231198647311D83E1
:10141000585218315A5275325C399952183201318A
:1014200099521832013199521832013199520835C6
:1014300018329D52023118329952183201319952A4
:101440001832013199521832013199521832013152
:1014500099521832013199520B4B0C49DC60013022
:101460003562FFF745FC01210320FFF70BFC084B19
:101470001D60A8E7E40F002004270020004005407D
:1014800040000034FFFF1000E8260020C9100010C3
:101490003860054000487047E40F0020F8B51F0091
:1014A00008AB1B7804001600002B07D100F098FA57
:1014B00032003B00121A8B41002B51DB2269EFF303
:1014C000108C72B61368002BFCD0BFF35F8F022321
:1014D000E15E256900293ADB4B0060695B18DB009F
:1014E000C218C35A6380BFF35F8F00232B608CF355
:1014F0001088069B9660D7601361079B53615388E1
:1015000001335B045B0C181C002B1ED083B250808F
:10151000080418432569EFF3108672B62B68002B78
:10152000FCD0BFF35F8FA3881380A1802369BFF332
:101530005F8F00221A6086F31088237801329A4068
:101540000849E3685B181A60F8BD0120DEE7BFF3C5
:101550005F8F00232B608CF3108801204042F3E75B
:101560000020F1E73C20000070B582B000920193AA
:1015700001000269EFF3108472B61368002BFCD0EF
:10158000BFF35F8F0223C85E0D6900283FDB4A6905
:10159000430016001B18DB00D218F35A4B80BFF330
:1015A0005F8F00232B6084F31088069B1361079BD9
:1015B0005361009B019C9360D460538801335B04AA
:1015C0005B0C1D1C002B20D0ACB2030455802343C0
:1015D0000D69EFF3108C72B62C68002CFCD0BFF3B1
:1015E0005F8F8C88148088800A69BFF35F8F00202A
:1015F00010608CF310880A7801309040CA6808495E
:1016000052181060180002B070BD0125DCE7BFF36E
:101610005F8F00232B6084F31088013BF2E7C04604
:101620003C20000010B543890A1493421ADD530090
:101630009B184269DB00D3180469EFF3108C72B673
:101640002268002AFCD0BFF35F8F5A88090494B245
:10165000090C8A4208D00369BFF35F8F00221A6029
:101660008CF31088002010BD094A22435A800123C0
:1016700002698371BFF35F8F002111608CF31088C2
:10168000027804499340C268012052181360EAE7C7
:101690000080FFFF3C20000040787047F0B5C64650
:1016A00000B582B0040000F09BF9FA2206000F009A
:1016B000200000230021920000F082FD8019794172
:1016C00004000D1E02DA01242E4D644206267642E5
:1016D000F71736196F41AF4214D811D000F080F9D6
:1016E00032003B00121A8B41002B15DC002B46D038
:1016F0002000290000F07EF902B080BCB846F0BDA1
:10170000A642EBD90026002700F06AF932003B0020
:10171000121A8B41002BE9DD00F062F932003B0028
:10172000121A8B41002B0ADB00230193164B320067
:10173000009316483B00FFF717FF0130D8D0002375
:101740003900B0469C46124A1248536A994204D85E
:10175000966A4645CCD29942CAD10668EFF3108703
:1017600072B63368002BFCD0BFF35F8F0368BFF302
:101770005F8F66461E6087F3108820BFE5E7002A6A
:10178000B6D0C9E7FFFFFF7F99100010E40F0020DB
:101790000040054004270020F0B5CE46474680B5FE
:1017A00004000D0085B0EFF305868946002E10D0A9
:1017B000364900204B6AAB4206D38A6A5B1B591E2E
:1017C0008B41A2424041184305B0C0BCB946B04667
:1017D000F0BD2F4FFB683A7898461800039200F04E
:1017E000F7F8039A131D42469B009B5822001B1AD0
:1017F0009C462B00121A8B419E4210DC0DD020BF5C
:10180000224A0020536A4B45DED3926A5B1B591E65
:101810008B41A24240411843D6E79445EFD900F0EE
:10182000DFF822002B00121A8B41002B1BDB002358
:101830000193184B2200009338002B00FFF794FE11
:10184000002810DD114B5A6A4A451CD39B6AA342FB
:1018500017D301003800FFF7E5FE0C4A0020536A59
:101860004B45B1D3D1E7094A0020536A4B45ABD36E
:101870000020926A5B1BA24240415A1E93411843CA
:10188000A2E74A45E5D120BFE3E7C0460040054056
:10189000E40F002099100010F0B5C646110000B505
:1018A00082B004000A9D194300D170E0D8170600E9
:1018B00056400096060001005E400196009E019F82
:1018C000361A8F410096019708996B60099B2A6030
:1018D000AC6029616B6100F083F82269EFF3108836
:1018E00072B61368002BFCD0BFF35F8F0222A35E99
:1018F00022699C461700002B51DB62695B001600D1
:101900006344DB00D218F35A6380BFF35F8F002378
:101910003B6088F31088009E019F36184F41244B8E
:101920003000136155613B1E02DA0120214B404219
:10193000D3605388906001335B045B0C191C002B4F
:101940002BD0634688B21B04034351802069EFF318
:10195000108672B601680029FCD0BFF35F8FA188A2
:1019600011806246A2802269BFF35F8F002111605F
:1019700086F310882278013191400F48E2681218EE
:1019800001201160EB6002B080BCB846F0BD0023BE
:10199000012200920193002396E70121D1E7BFF3D2
:1019A0005F8F0023136088F310880020013BE9E774
:1019B000C9100010FFFFFF7F3C20000010B5024A55
:1019C0000248FFF7A5F810BD205900103C22002066
:1019D0000300416A0A00986A596A8A42FAD170473C
:1019E000034B596A0A00986A596A9142FAD17047C2
:1019F00000400540064A536A9942FCD807D1044B7F
:101A000002E05A6A914202D19A6A9042F9D870472C
:101A100000400540F8B5DE464E4645465746E0B51F
:101A200005008B4618000A99914600F03BFB0A9B83
:101A30006C001E026419304BA400E41863688046F1
:101A40009E4200D966602F1FFBB29A46012B2FD908
:101A5000C0238022294FAD009B0179591201E31860
:101A60001A6000291BD14B4622685B015340E022DB
:101A7000134080225201A21813605346012B2FD924
:101A8000802380229B01E31812011A60434666609E
:101A90007B51F0BCBB46B246A946A046F8BD78696A
:101AA00000F000FB013043001B18033BFDD2DAE7D6
:101AB0005B46012BCCD1C02303229B01E3181A60A3
:101AC000023AA3681A42FCD04A46236852015A409F
:101AD000E023134080225201A218084F1360AD008A
:101AE00058460323216841400B4013600122824085
:101AF000A3681A42FCD0C3E70080004040220020C7
:101B0000F0B5D6464F464646440098462418324B18
:101B1000A400E41863688A469146C0B5FF2B02D83A
:101B200080235B006360061FF6B2012E2FD9C0230D
:101B300080222A4F85009B0179591201E3181A600F
:101B400000291BD14B4622685B015340E022134021
:101B500080225201A2181360012E30D980238022E6
:101B60009B01E31812011A6080235B006360434607
:101B70007B51E0BCBA46B146A846F0BD786900F09A
:101B800091FA013043001B18033BFDD2DAE75346BC
:101B9000012BCCD1C02303229B01E3181A60023A27
:101BA000A3681A42FCD04A46236852015A40E023F7
:101BB000134080225201A218084F1360850050463E
:101BC0000323216841400B40136001228240A36837
:101BD0001A42FCD0C2E7C0460080004040220020EC
:101BE000014B8000C058704740220020F0B5C64627
:101BF000040000B52348160098460D0000F052FA84
:101C00000100300000F04EFA4346069A1B0412030E
:101C100013439C4623680600002B22DB1A4B1B480B
:101C2000E218531E9A4180235242120B9B01120369
:101C3000D218174B1A60174B1A60130001688B43B8
:101C4000FBD12122144B2560E318A6601A6022689C
:101C5000002AFCDA6246E26008221A6080BCB846BC
:101C6000F0BD3F2322681340AB42D7D1A3681B05C8
:101C70001B0D8342D2D1EE22E368D20213406345AA
:101C8000CCD1EBE7001BB7000040FDBF08C000400F
:101C900000E0004000F000400430000010B5802457
:101CA0001C4BE4051C6000281AD001231A4C184371
:101CB0001A4BDC611A4C44401C62596298628021C4
:101CC000144BC9051960174817490860E021C90479
:101CD0001960002A07D18022144B12061A6010BD29
:101CE0000E4BD861EBE753019B1A9B009A18802397
:101CF00012015B049A4209D213000D490B60074B95
:101D00005A608022094BD2051A60E8E7094B1A0095
:101D1000F3E7C04600B00540D3C007B000800540DF
:101D20002D3FF84FFCFF01000820014000A00540B6
:101D3000C0260020FFFFFF008023024A9B000B43C8
:101D4000D362704700800540002310B50100988AD7
:101D50001B8B984710BDC046162310B5010018888C
:101D60005B88984710BDC046F8B54746CE4680B55B
:101D70000F1E18D0142399460433040000250126B1
:101D800098464B461888434621681B88984701C4EB
:101D9000431E984101350640AF42F2D13000C0BC2D
:101DA000B946B046F8BD0126F8E7C046002370B535
:101DB00004000D00988A05491B8B984703000020FA
:101DC000002C01DB0130A04029009847554200005B
:101DD000AA23064A1B0113608D235B00D3600449CC
:101DE000044B19605368002BFCDA70470040024036
:101DF00000B0FA00006002407047C04610B50148CC
:101E0000FEF76EFE4459001070B5074D074EB542FF
:101E100009D20024013E761BB608013608CD0134F4
:101E20009847B442FAD170BD0858001044580010C9
:101E3000054B064A06491A60064A074B1A6010000D
:101E40000B689843FBD1704700E00040BFCDFBFE1C
:101E500008C00040FE7F3C0000F00040044BDB6CFB
:101E6000002B03D18022034BD2021A607047C04678
:101E7000000011504C201150044A054B1A60054ACD
:101E80001368DB018033FBD17047C046FFFFFF01C1
:101E900000F0004008C000404022034B9A675A6798
:101EA0001A67DA667047C04600F0014010B5FEF7C9
:101EB000B7FE10BD70B52849284D294E6D1AAC10DB
:101EC0002200302C00D930223000920000F002FABB
:101ED000BC2D3DD823002A3B224A052B1DD930209A
:101EE00075196D07A446001BEB0F002D03DA611C6A
:101EF0008C46A1007250C01AE3189B004108F318E9
:101F0000C900C9181A605A6008339942FAD10123EE
:101F100003421DD0984360440400A300F250631CA8
:101F20002F2C15D09B00F250A31C2E2C10D09B0000
:101F3000F250E31C2D2C0BD09B00F250231D2C2CB7
:101F400006D09B00F250631D2B2C01D09B00F25059
:101F5000054B9E6070BDC04600010010C00100101E
:101F600000000020C101001000ED00E0002310B5CA
:101F7000294C82B0A367FFF72BFF0122274B1A6081
:101F8000636C012BFCD10322254B1A60224A936B10
:101F9000012BFCD1013300930121224A2248043352
:101FA000FFF724FE052301210093204A2048FFF774
:101FB0001DFE0022022104201E4BFFF7A1FD00227E
:101FC000012105201C4BFFF79BFD0022002107206B
:101FD0001A4BFFF795FD002200210820174BFFF751
:101FE0008FFD8023DB000093002200210920134B8A
:101FF000FFF710FD0022104B00210620FFF780FDA7
:102000000420FFF7EDFD0E4900F04CF80100002020
:10201000FFF792FE02B010BD008000403CB00040CF
:1020200030B00040002F685900800240008C864785
:1020300000C00240001BB70040597307006CDC026F
:1020400040420F0001480421014B184700100020B6
:10205000691D0010124A936F9B0815D29066D166D5
:10206000002905D0FFE7FFE7FFE7516F106F7047CA
:1020700004B580210906C2175140002800D0C8438A
:1020800003F082FB002104BDF0B5146E556E576F4E
:10209000166FFFF7E3FF1466556657671667F0BDC6
:1020A000000000D0114A936F9B0813D2106651664E
:1020B000002905D0FFE7FFE7FFE7516F106F70477A
:1020C00004B5002801D00020C04303F05DFB0021CF
:1020D00004BDC046F0B5146E556E576F166FFFF70E
:1020E000E5FF1466556657671667F0BD000000D01F
:1020F000132370B51D78012D19D014DD1F48FFF78B
:102100002BFE06001E48FFF727FE1E4C80223100E2
:10211000200000F0DFF8022D2DD01B48FFF714FE41
:102120001A4B186070BD1A4B164CA364F5E7184B98
:10213000144C23606360A360E36023616361A36167
:10214000E36123626362A362E36223636363A36365
:10215000E36323646364A364E36423656365A36545
:10216000E36523666366A366E36623676367A36725
:10217000E367A364D1E7064BA364CEE753440000B2
:1021800053460000C81800204C33000000270020F0
:102190009521001007B5604601880A0A0230DF2A3F
:1021A000FAD1C9B2820804D30288408800041043DF
:1021B00000E00068014A5050039007BDC818002095
:1021C00051434343C9188C46110C83B24B4310B49E
:1021D000040C614392B280B2504362431C041B0C56
:1021E000001910BC59411304120CC018514161442C
:1021F00070470000132310B51C781348FFF7ACFD9F
:10220000012C0BD004DD01008022104800F062F8A0
:102210000F48FFF799FD0F4B186010BD0B4C0100E4
:102220005422200000F056F80B4B6365A365E3656C
:1022300023666366A366E36623676367A367E36752
:102240002362E361E4E7C04653460000C81900205A
:102250004C330000002700205D22001007B56046C7
:1022600001880A0A0230DF2AFAD1C9B2820804D3EF
:10227000028840880004104300E00068014A505082
:10228000039007BDC819002070B505000C0002F0CE
:1022900091FD002805D06C43034B04199C4200D8E3
:1022A00070BD0248FEF71CFC0000042050590010CD
:1022B00010B502F0E5FD10BD01480421014B18479F
:1022C00010100020691D0010014B1B68184700000A
:1022D00010100020014B5B68184700001010002010
:1022E00010B5002800D110BD00F036F9FBE7C0465C
:1022F00010B5094A0300146884B0002C08D00122EC
:1023000000910648524203A9A047012004B010BD25
:1023100000F06CF90020F9E7BC260020E122001053
:1023200000BEFDE7094A1368002B06D008491818BB
:10233000884208D8106018007047064B04491818E6
:1023400013608842F6D901235B42F4E7B8220020EB
:10235000000004202C27002010B5FFF7E1FFC04645
:1023600070B5FFF751FD074D074EB54209D2002465
:10237000013E761BB608013608CD01349847B442B9
:10238000FAD170BD445800104C580010030010B52D
:10239000080011001B68984710BDC046F8B5437D82
:1023A00007000D001600002B38D0002A1ADD0B782C
:1023B0000A2B18D00020012E09D0012421006B5CCB
:1023C00001340A2B1AD0B442F8D1864203DD311A07
:1023D0003B6828189847AD19013D2B780D3B5A42B0
:1023E00053413B75F8BD037D002BE3D102210E481C
:1023F0003B689847012EEED00120DEE76B1E5B5C48
:102400000D2BE0D0884203DA091A3B682818984758
:10241000054802213B6898472000D4E70368110073
:1024200028009847DEE7C0468C5A0010F0B54646B3
:10243000D6464F46C0B582B090461C0006000D003F
:10244000FFF7CEFA00232F4A12184B41002B02DA75
:1024500001222D4B52422D4908008A4603F0BCF957
:1024600081466B1C03D1300003F000F80500002CFE
:1024700027D0274F274B1C68002C18D04346002B31
:1024800021D1254B984602E02469002C0FD0236807
:10249000002BF9D043461B68002B01D09C42F3D19E
:1024A00020002A003100B8472469002CEFD14B46A8
:1024B000002B23D1280002B0E0BCBA46B146A846A2
:1024C000F0BD164FD6E7144B984602E02469002C65
:1024D000EDD02368002BF9D043461B68002B01D0B8
:1024E000A342F3D12A0031002000B8476B460A22EC
:1024F0002000DA71D91D093AB847E7E7504603F0E2
:102500003BF9D7E740420F00FFFFFF7F7016002026
:102510009D230010902200209C2200208D2300107B
:102520000A4A1368002B05D10CE01A001B6910320F
:10253000002B07D08342F8D1002902D1186910601E
:10254000196170470029FCD01060FAE79022002042
:1025500010B500F07BFA10BDF0B5CE46474680B509
:1025600083B06B460600DD1D2870FFF739FA0023A3
:10257000194A12184B41002B02DA0122174B524222
:1025800017490800894603F027F9164B80461C6856
:10259000002C14D0144F02E02469002C0FD02368C3
:1025A000002BF9D03B68002B01D09C42F4D12000D5
:1025B00001222900FFF7F2FE2469002CEFD14346E7
:1025C000002B05D1300003B0C0BCB946B046F0BD09
:1025D000484603F0D1F8F5E740420F00FFFFFF7FC8
:1025E00070160020902200209C22002070B504006C
:1025F00002F03CFF01230100050001222000FFF74B
:1026000015FF084B1C68002C06D06368002B05D012
:1026100098472469002CF8D1280070BD2469002C4B
:10262000F3D1F9E7902200207047C0460022014B09
:102630001A707047262700204B790020FF2B0BD102
:102640008B79002B08D1CB79012B05D1082A03D92E
:10265000024B8A7809301A707047C046262700203E
:102660000120704710B5012913D11249537910790F
:1026700009781B0203430020994200D010BD537813
:10268000012B08D0022BF9D1642200210020FFF792
:1026900005FB0120F2E7D37891781B021943480A21
:1026A000DB0501D4012040427F238A05D20F194067
:1026B000FFF77CFB2627002000487047585B00107E
:1026C0009446012310B501290AD152780023012A2A
:1026D00006D162461179527912020A43072A01D0C3
:1026E000180010BDA6336146024A01F063FA0300E8
:1026F000F6E7C046B05A0010012303700048704747
:10270000905A00104B780A781B0213438A7810B550
:1027100012041A43CB781B0613439622D20093422D
:1027200000D010BD0022012011004042FFF73EFB07
:10273000024B1860024B19607047C04630220020DF
:102740003422002010B5024B1878FEF7B9FA10BDFC
:1027500027270020154B70B51A68002A22D0EFF306
:10276000108172B610680028FCD0BFF35F8F002084
:102770000F4A596010701B68BFF35F8F186081F3B8
:102780001088002400250B4E3078FEF78DFA0028C3
:1027900004D1002400252900200070BD3078FEF708
:1027A0008FFAF8E7FA240025A400ECE7E0260020E1
:1027B000282700202727002070B5050000200E00E4
:1027C00001F010FB002834D0002001F021FB00288C
:1027D0002FD0FFF705F90023174A12184B41002BA1
:1027E00016DB164C200002F0F7FF002821D0002055
:1027F00001F0F8FA00280FD101200021404200F03A
:102800000FFD03256D42200002F0B6FF280070BDC9
:1028100001220B4B5242E4E7002001F0F9FA0028B4
:10282000EAD029003200002001F0FCFA051EEAD1AE
:10283000E7E703256D42E9E740420F000827002043
:10284000FFFFFF7F10B5FFF7CBF800230D4A1218EA
:102850004B41002B02DA01220B4B52420B4802F093
:10286000BBFF00280CD001200021404200F0D8FC22
:10287000002001F01BFB0028F5D1044802F07CFF8A
:1028800010BDC04640420F00FFFFFF7F0827002019
:10289000F8B5CE46474680B505000C00FFF7A0F816
:1028A0000023344A12184B41002B02DA0122324B2A
:1028B000524232490800884602F08EFF002803D1B8
:1028C000C0BCB946B046F8BD002001F08BFA002824
:1028D00048D00026002C41DD294B994613E0A91968
:1028E000002001F01FFB070001200021404200F002
:1028F00097FC002001F0DAFAFFF772F8204BF61986
:1029000003C3B4422ADD002001F02CFBA71B020008
:10291000B84200DD3A00002AE1D101200021404206
:1029200000F07EFC002001F0C1FA002001F05AFA0C
:10293000002813D0002001F015FB0028E1D1FFF79B
:102940004FF84B460F000CCB002184460D4812185F
:102950004B419F4202D8D4D19445D2D9404602F08F
:102960000BFFADE700200021054B03C3404602F0FA
:1029700003FFA5E740420F00FFFFFF7F082700206D
:10298000C018002020A1070030B5002185B02848DC
:1029900002F002FF00281CD1264B1A68002A16D02C
:1029A000EFF3108172B610680028FCD0BFF35F8F80
:1029B00001242148596002781B68D2B20470BFF329
:1029C0005F8F0020186081F31088002A17D005B0AF
:1029D00030BD01200021404200F022FC002001F027
:1029E00017FA0500124802F0C7FE002DEFD0134B76
:1029F0001B68002BEBD0124A10689847E7E7FEF7F8
:102A000049FD0400FEF7ECFFFA22002392001218A1
:102A10004B41002B02DA01220A4B52420121029162
:102A200000210191084920000091FEF737FDCEE713
:102A300008270020E0260020282700203022002040
:102A400034220020FFFFFF7F55270010D02310B550
:102A50001B0684B01C68FEF71DFDFEF71DFEA0429C
:102A600002D0002004B010BD284B002100201B78AC
:102A700001F060FD26480368002B44D00120FEF7DA
:102A8000A1FAFF23234C244920701840FEF730F9A7
:102A900020780121FEF7F6F80520FEF719F9002845
:102AA00024D1082200211D48FFF70EFCFEF7F2FC9E
:102AB0000400FEF795FFFA220023920012184B4102
:102AC000002B02DA0122164B524201210291002111
:102AD0000191144920000091FEF7E0FC0028C0DBC2
:102AE00011480121FFF71CFD0120BBE70120FEF783
:102AF00087F801000948FEF7C5FA002205200B49B6
:102B0000FEF720F9ECE7FEF7A1FAB7E70C5D00103D
:102B1000082700202727002089290010E026002010
:102B2000FFFFFF7F552700102010002045270010D1
:102B300000487047F45B001000487047A05B00102D
:102B400010B5040016480378002B20D0002C06D1C5
:102B5000144B15484380063BFF3B038010BD052CFA
:102B60001CD8124BA400E4580F480123811C013CDF
:102B700004E001330A800231142B0CD0E25C002AFD
:102B8000F7D1C022DBB25B0092001343E5E71121CD
:102B900000F016F8DAE7CA239B00DEE70020DDE745
:102BA000102700200904000068220020885B001024
:102BB00010B5024800F0F4F810BDC046F826002019
:102BC00030B5012900D1BBE0744B01391A781211DC
:102BD00014003034092A00DDB5E00470012900D169
:102BE000DAE00F221C78224014003034092A00D980
:102BF000ACE04470022900D1CEE05A78944612111C
:102C000014003034092A00DDA3E08470032900D1C8
:102C1000C2E064460F22224014003034092A00D951
:102C20009AE0C470042900D1B6E09A789446121153
:102C300014003034092A00DD91E00471052900D127
:102C4000AAE064460F22224014003034092A00D939
:102C500088E04471062900D19EE03025AC46DC783E
:102C600022119444092A00DD7FE06246827107291F
:102C700000D191E00F22224014003034092A00D9FB
:102C800077E0C471082900D186E03025AC461C7974
:102C900022119444092A00DD6EE06246027209297D
:102CA00000D179E00F22224014003034092A67D87D
:102CB00044720A2900D16FE03025AC465C792211BC
:102CC0009444092A5FDC624682720B2964D00F2289
:102CD000224014003034092A59D8C4720C295BD020
:102CE0003025AC469C7922119444092A02DD07352F
:102CF000AC469444624602730D294DD00F22224007
:102D000014003034092A01D93732140044730E29D3
:102D100042D0DA7913111C003034092B01DD37332E
:102D20001C0084730F2937D00F2313401A00373249
:102D3000092B01D830331A00C27310292CD010305F
:102D40000023037030BD3732140046E737321400D9
:102D50004FE73732140058E73732140061E7373253
:102D600014006AE73732140073E70735AC46944421
:102D70007BE73732140084E70735AC4694448CE790
:102D80003732140094E70735AC4694449BE737325A
:102D90001400C4720C29A3D14018D1E7F8260020F2
:102DA00010B588B004000D2200216846FFF78CFAA8
:102DB0000D22002104A8FFF787FA4B236A466846D4
:102DC000137004A90D2202F0CFFC15210822200067
:102DD0006944FFF77FFA08B010BDC046F8B500F0AF
:102DE00047F90C23194DFF22AB6705201849FDF761
:102DF000A9FF184C402200212000FFF765FA402768
:102E0000002301262121144A66702783A2601360E3
:102E100063545F31618445396354104A10496360DB
:102E2000E2602787A1620B606362E26202F094FCB9
:102E300080239B052E64EB6490230A4A0120EA500C
:102E40008022094B5202DA64F8BDC04600001150DE
:102E500015050020BC2200208400105000011050F5
:102E60008000105010D001000020115010B5012139
:102E70000520FDF707FF10BD10B500220021024814
:102E800000F016F910BDC046DC220020044B19707A
:102E9000002904D080219023024A8902D150704732
:102EA00022270020002011500B785B0600D07047CD
:102EB0004B78052BFBD18A78014B1A60F7E7C046A7
:102EC00000001150F8B5CE464746C87880B5800757
:102ED000830F1800012B61D08B780A799C464B79BF
:102EE0007F211B0213435B055E0D63461940DC091D
:102EF0004B001A191F0063462F4D5201AA189370F8
:102F000001236340537000231683D370D076B146FB
:102F1000CA00012C31D0294E92198E01B446AC441E
:102F20006646B2601360002931D0254BC900C9182C
:102F300071604B463F339B09022836D09B012148E4
:102F400039190268490169180E00CA601E49D31870
:102F500003608B422BD83B195B01ED18EB7E1B49BC
:102F60009B064A4013438022120613436A6813608B
:102F70000120C0BCB946B046F8BD154E92198E016D
:102F8000B446AC446646B2621360002908D10023FF
:102F900064012C1963600F4BE360E9E70020E8E768
:102FA0000A4BC900C9187162C3E7DB01C7E7FEF726
:102FB00025FFF268CFE7C046BC22002084001050F5
:102FC00004001050C4260020FF0F105000001050C5
:102FD000800010500001105010B502F0BDFB10BD74
:102FE0007F2010B508404000C90940181100044A6C
:102FF000400180181A0000F05BF8012010BDC046A7
:10300000BC2200207F23180000B5084083B00B428B
:1030100004D14B424B41084A013393668022C909CF
:103020004000064B401840010021C018120102F078
:10303000E3FB03B000BDC04600201150BC220020BD
:103040007F22130010B50B400A4200D110BDC90900
:103050005B005B1804485B01C01800230022034991
:10306000C37002F0C9FBF1E7BC220020FFF7FFFFAD
:1030700080220A4B520410B51A60094B09491A60A4
:1030800010000B689843FBD18022002152010648B2
:10309000FFF71AF90922054B5A6710BD00E00040FE
:1030A00000F0004008C00040000010500000115027
:1030B000002310B5C382013382828376016104004C
:1030C00002F082FB002804D080219023074A890265
:1030D000D150200002F068FB002802D001232377A2
:1030E00010BD200002F080FBFAE7C046002011501E
:1030F0007047C0467047C0460020704700207047A8
:103100007047C0467047C0467047C0467047C046CB
:10311000024B5878431E9841C0B27047481D0020AA
:10312000024B18784007C00F7047C046481D00206A
:10313000F0B5D6464F464646C0B52E4B814698461A
:103140001B788A46FF2B4ED100293ED00021542205
:103150002948FFF7B9F80022284C294B20001A70A3
:10316000FDF774FF274B1C60274C2000143CFDF733
:103170007BFF200001F0DAFD244B254D1C60254B20
:10318000002B04D02800FFF7B7FA234B1860002467
:1031900000232A78214F204E0FE0336862019B18EC
:1031A000002B12D05B68002B0FD098472A7801348F
:1031B000E4B2511C2300A14209DBA242EDD89B1AC4
:1031C0005B01DB195B68002BEFD100200CE042466D
:1031D0004B46514648461370FFF700FE0028F4D0D6
:1031E0004846FFF743FE0120E0BCBA46B146A84678
:1031F000F0BDC04654100020481D0020401D002096
:10320000232700209C1D00204C100020A01D002022
:1032100021270020F9260010601C0020B05C00105F
:10322000F0B5DE4657464E464546E0B5C64B91B032
:1032300002931B78FF2B00D13BE1C44BC44E1F000F
:10324000C44B0DAC0193C44B009335686A69EFF32E
:10325000108172B61368002BFCD0BFF35F8FA96199
:103260002800210001F098FB6A69AB69BFF35F8F0A
:103270000021116083F31088002800D119E16378E0
:10328000082BE2D89B00FB589F466368002BDCD0DC
:10329000A0689847D9E77F222179AE4D0A405300B4
:1032A000EB189846C8098044404601233030057920
:1032B0009D430571057903339D430571002A00D1B3
:1032C000FEE04346A54A1B7D1278934200D3EDE011
:1032D000A34A5B011568ED18002D00D1E9E0A36851
:1032E00062792078AD69A847AFE79E4B1A78002A2B
:1032F00000D1DEE01A78013A1A701B78002BA4D1B5
:103300000122944D01212B78042013432B70342388
:10331000EA5C8A43EA54EA5C8243EA540133EA5C99
:103320008A43EA54EA5C8243EA54237800209B46AD
:1033300000F09AFC602223791A40602A00D1EEE066
:10334000402A00D1F4E0DB06DB0E012B00D111E1B5
:10335000022B00D1C6E0002B00D0E0E0202A00D1F3
:103360001CE2002A00D0DAE06379092B00D9D6E00C
:103370007D4A9B00D3589F46764D2B78DB0700D4BF
:1033800063E7FFF7C3FE60E7019BDB78DB0700D450
:103390005BE76068FFF7AEFE57E76E4D2B78DB0703
:1033A00000D452E728780007C00FFFF7ADFE4CE7C6
:1033B0002378694999468B46684B694998468A46FD
:1033C00039001A7847460023B04600254E46894604
:1033D00010E053461B686A019B18002B00D175E072
:1033E000DB68300098473A780135EDB2511C2B006C
:1033F0008D4243DC9542ECD39B1A5B015B44EFE7C3
:10340000237857499946554B8A4698463100BB4622
:103410004E461A7800250023474689460FE053465A
:103420001B686A019B18002B54D0DB68300098475A
:103430003A780135EDB2511C2B008D4206DC9542E5
:10344000EDD39B1A009A5B01D318EEE7019D54223D
:1034500000212800FEF738FF1022FF214348FEF725
:1034600033FF28002022FF2114304E465F46FEF72E
:103470002BFF00F0EFFBFFF745FEE6E6354D54224B
:1034800000212800FEF720FF1022FF21281DFEF753
:103490001BFF28002022FF21143046464F46FEF72E
:1034A00013FF00F0D7FB2379AB70CEE6501C984297
:1034B00013DA11B0F0BCBB46B246A946A046F0BD37
:1034C000A3686279207800F0E3FBBEE646464F46EB
:1034D000204DE6E74E465F46CBE71F4D9B1A5B014A
:1034E0005D19FCE67023217A0B4218D1C809824687
:1034F0000F330B405B0098461848EB1853441B7D74
:1035000000789946834268D215485B01006881467D
:103510009944002A00D163E14B46002B6AD1207800
:103520000021FFF76FFD80212078FFF76BFD8CE60F
:103530000F4800F099FB012158460EAAFFF7C0F88A
:10354000002800D081E6EAE754100020085C001053
:10355000A01D0020481D0020B05C00102127002085
:10356000601C0020232700202C5C00104C1D002034
:10357000C1260010237A22890F2BD0D8FF231340B5
:10358000CF4AEB181B791578AB423ED3691C9942A0
:10359000C5DB5D1BCB4B6D01ED18686900F064FB6A
:1035A000012158466B690EAA9847002800D04CE6C6
:1035B0006022150023791D401A42B0D163790A3B7D
:1035C000012BACD800F050FB63790A2B00D199E1B4
:1035D00058460EA900F0D8FA37E6431C4B4500DAEE
:1035E000F9E04B461B1A5B019946B6488144002A14
:1035F00000D1F5E04B46586900F036FB4B460121FF
:1036000058465B690EAA98479AE7AF4A5B0115686E
:10361000ED18002DC1D182E7A37999466B789945C1
:10362000D6D06B78002B00D035E14B466B70002B69
:1036300000D12DE148460138C0B2FFF77DFA0028DD
:1036400000D17EE143780793022B00D079E101227B
:10365000C179B1468B11491113400A403021120142
:103660005B0113432A78A8468A4313432B7009232E
:103670009A4682445646BA46C37882781B02134360
:10368000C31805938E4B04938E4B08938E4B09936E
:103690008E4B0A93059BB34200D855E17378012203
:1036A0000B2B03D13378F278F6187378042B00D003
:1036B00044E1059B00279B1B9BB20693049B0B9246
:1036C0001D78002303931BE0099A7B011568ED1810
:1036D000002D00D132E1310058462B69069A9847F7
:1036E0008446082803D9069A824200D313E1049B3A
:1036F00001371D78FFB26B1C03979F4200DD1DE16F
:10370000BD42E1D8039B5D1B089B6D015D19E2E79B
:103710006B780CAA02321370584601230EA900F0F0
:1037200049FA92E5E088030AC0B20F2B00D9F6E609
:1037300067499A008A5897460EA800F09BFA5846A7
:10374000A179FFF799FB02222B7813432B707CE5BC
:10375000E388012B00D0E2E608222B7858469343F9
:103760000EA92B7000F010FA6FE5022029780CAB3F
:103770009A1C8B068908DB0F01400B4313805846C7
:1037800002230EA900F016FA5FE5E388012B00D0B2
:10379000C5E608222B7813432B7019E7237A228978
:1037A0000F2B00D9BBE6FF231340EB181D79444BC8
:1037B0001B789D4228D2444B6D011B685D19002D7A
:1037C00000D1ACE6686900F04FFA012158466B69F8
:1037D0000EAA9847B4E6002A00D0A0E60023994636
:1037E00062790220130003928343012B15D0002A33
:1037F00000D094E62B004344534430331B790CAA89
:103800009B07DB0F0232B9E75A1CAA4200DA86E6B0
:10381000ED1A2C4B6D01ED18D4E7E388002B12D183
:10382000029B1878039B012B23D0FFF7EBFB434649
:103830000221EB18534430331A790A4301211A71DB
:103840001A790A431A714B46002B00D1FDE45869DE
:1038500000F00AFA4B4601215B690EAA58469847C8
:10386000002000F001FA3523EB5CDB0700D5ECE427
:10387000AEE6FFF7E5FB43460221EB185344303335
:103880001A798A431A711A7903998A431A71DAE705
:10389000FFF738FC9CE600215846FFF7F7FA584638
:1038A000FFF79AFBAB7807490393054B04919846C1
:1038B0001A7800230449AA4605911D001BE0C04662
:1038C00021270020B05C0010601C00205C1D00203F
:1038D000545C0010059B6A011B689B18002B4CD0A0
:1038E000DB685846984743461A780135EDB2511CBB
:1038F0002B008D422DDC9542ECD39B1A049A5B0180
:10390000D318EDE70CAB9A1C584601230EA915708D
:1039100000F050F999E40B9A012A4ED0002A3CD0CD
:103920000023B07804E00133DBB20F71934234D24C
:10393000C118C9B241440D79FF2DF4D04E46454619
:10394000574600236B70EAE54E465746FFF7D8FB13
:103950003EE65546542200212800FEF7B5FC102211
:10396000FF21281DFEF7B0FC28002022FF21143083
:10397000FEF7AAFC039BAB7057E65546FAE7FEF745
:103980009BFE021E00D1CAE5D37891781B020B433F
:1039900058460EA900F00EF9D2E565463B002A0014
:1039A00031000A9800F06AFE049B039A1B7876198E
:1039B0000133934200DB6DE6C0E7174B296999425A
:1039C000AED1079AACE7FFF797FB021E00D1A6E540
:1039D000584613780EA900F0EDF8B1E52189FFF7FC
:1039E000AFF8021EF4D19AE5022B0FD0FFF786FB49
:1039F000021EC9D193E5FFF79BF8021E00D18EE5A8
:103A0000122358460EA900F0D5F899E5FFF794F86F
:103A1000021EB9D183E5C04661400010F0B54F46A3
:103A20004646D646C0B50C0016001F0082B0002ADC
:103A30003AD0702398461D4B002599461C4B9A4658
:103A40001AE04B461B78200001935346997800F00A
:103A5000DBFD00281CD021000198FFF733FA002875
:103A600016D0A378DA09012A19D00A9A0135137001
:103A7000B54219DA2378E4186378052B08D1E37886
:103A80009B079B0FBB4203D14246A3781A42D8D072
:103A9000002002B0E0BCBA46B146A846F0BD0B9A81
:103AA00001351370B542E5DB0120F2E75410002028
:103AB000481D0020702270B58B780C001A4201D08E
:103AC000002070BD064B20001D78064B997800F051
:103AD0009BFD0028F4D021002800FFF7F3F9F0E760
:103AE00054100020481D00207F20074B10B51A6895
:103AF0000840CB0934334000C018044B1100C018F3
:103B000000F03EFD10BDC0469C1D0020481D002059
:103B10007F20074B10B51A680840CB0934334000AA
:103B2000C018044B1100C01800F052FD10BDC04673
:103B30009C1D0020481D002070B57F24C8098446C4
:103B40000C400F4864000419644430342079C007E5
:103B500001D5002070BD0B480125007884462079EE
:103B6000284320716046FFF73BFA0028F2D101227A
:103B70002379934323712379033293432371E8E735
:103B8000481D00205410002070B5094C0600082282
:103B900020000D00FEF79EFB00238021E360A36060
:103BA0002B783000994300220023FFF7C5FF70BD3A
:103BB000281D0020F0B5C646244C17008046082278
:103BC000200000B50D001E00FEF784FB0023A76057
:103BD000E381EB79AA791B0213431A1CB34200D983
:103BE000321C96B2A281002B0CD0002E15D0002FD3
:103BF0002AD0402E1AD8237896B27F2B1BD80021CA
:103C0000134A0EE080212B7800229943404600237E
:103C1000FFF792FF80BCB846F0BD7F2300222178D9
:103C2000994333004046FFF787FFF3E740222378AC
:103C300096B27F2BE3D9064C320039002000FEF704
:103C400049FB80212200ECE70020E3E7281D00204B
:103C5000E81C002010B5142200210248FEF734FBB6
:103C600010BDC046281D0020014B18617047C0469A
:103C7000281D002010B5054C010008222000FEF789
:103C800029FB0023A360E36010BDC046281D00206F
:103C900070B5374C1D0023780600DA09C9098A423D
:103CA00010D00020002D00D070BD21003000FFF7A3
:103CB000FBF82369002B03D0220003213000984732
:103CC0000120F1E77F2B06D8A0680028ECD02A005D
:103CD0002849FEF7FFFAE289A1685219E38892B2F7
:103CE0004919E281A160934214D03F2D12D9A389D2
:103CF000981A051C80B2402828D82078ADB27F28B9
:103D000026D800219A4230D01A4A2B003000FFF703
:103D100013FFC9E72369002B05D0220002213000E0
:103D20009847002808D0802123780022994330004A
:103D30000023FFF701FFB7E700213000FFF762F92A
:103D400030008021FFF75EF90120ADE74025D4E780
:103D50009A4207D0074C2A002000FEF7BBFA8021C8
:103D60002200D2E780210022CFE70022CDE7C04623
:103D7000281D0020E81C002070B50400FFF7C8F9DA
:103D8000002800D170BDFFF7CBF90028FAD1C82375
:103D90006343124A2500D418E1780029F2D0103389
:103DA0009E18300000F0E2FD3F28EBD90020E178BA
:103DB000FFF79AFE0028E5D0300000F0D7FDE1784B
:103DC0003F2807D9064BEA01D21800204023FFF70D
:103DD000B3FED7E70020FFF79BFED3E7781600205D
:103DE000641C002010B50400FFF792F9002801D1EF
:103DF000002010BDFFF794F90028F9D1C8226243D2
:103E0000024B01309B181B791840F2E7781600200E
:103E1000C82310B543430248181800F089FD10BDAF
:103E200088160020F8B5C82343431D4D1033EE1803
:103E3000802304005B029A4200D31A4A300092B2F7
:103E400000F0F8FD0700FFF763F9002801D1380002
:103E5000F8BDFFF765F90028F9D1C8236343ED18D1
:103E6000EB78002BF3D0300000F080FD3F28EED936
:103E70000020E978FFF738FE0028E8D0300000F095
:103E800075FDE9783F2807D9074BE201D2180020D9
:103E90004023FFF751FEDAE70020FFF739FED6E7AF
:103EA00078160020FFFF0000641C0020F8B5040015
:103EB000FFF72EF9002801D10020F8BDFFF730F9F7
:103EC0000028F9D1C82325005D432B00134E24336D
:103ED000F718380000F02CFD0028EDD075190020EF
:103EE000A978FFF701FE0028E6D00D4AE3019C18EF
:103EF00021004022380000F09DFDA9780300051E36
:103F000007D022000020FFF717FE0028D4D0280099
:103F1000D3E70020FFF7FCFDCEE7C046781600206F
:103F2000A41C002070B5C82444430C4B0500E418C1
:103F300080235B029A4200D3094A200092B200F02B
:103F400041FE0600200000F0F3FC3F2801D83000BD
:103F500070BD2800FFF7AAFFF9E7C0469C160020B5
:103F6000FFFF0000C82310B543430248181800F0B3
:103F7000FDFC10BD9C160020F0B50025184C83B048
:103F8000C82200212000FEF79FF9164B21001D706A
:103F9000FF236371E1235B02A3602000082340221A
:103FA000A37338310095073B103000F08BFC2700DD
:103FB0000123210020002600402278310093B837E9
:103FC000243000F07FFCC0363800FDF73FF83000A9
:103FD000FDF73CF8E56127622663656303B0F0BD39
:103FE00078160020E41C00200A4B196B1A6A00297D
:103FF0000CD0002A07D00022DA615A631A6300222B
:104000001A62012070475A631A63FAE7002AF8D04F
:10401000D961F4E77816002070B5052200210D481B
:10402000FEF752F90C4D2B78DA0707D50B4C9B079E
:104030000CD50121200000F099FE70BD054810301C
:1040400000F074FE2B78054C9B07F2D4200000F0A2
:104050006DFEEEE778160020E41C00209C16002080
:10406000F0B54B79070083B0022B02D18B79022B7C
:1040700003D00024200003B0F0BD214B1E009B782C
:10408000002BF6D18B78092433700D784D196B789D
:10409000242B07D00CE02B78ED181C196B78A4B2F8
:1040A000242B05D1A242F6D20020FFF765FEE1E7FE
:1040B0001A00052B15D0042AF6D16B790A2BF3D1FF
:1040C000104B2E7801930133009338000223A91975
:1040D000023AFFF7A3FC0028CBD00E34A419A4B2F7
:1040E000E2E729003800FFF7E5FC0028C1D0AB78F3
:1040F00073702B781C19ED186A78A4B2DBE7C04600
:10410000781600207A16002060238C461100127861
:1041100070B513400022202B08D1324C4B79260079
:104120000D7924781B022B439C4201D0100070BDF6
:104130004B78222B1CD008D8202B39D0212BF5D13D
:104140006346012B43D00122F0E7232BEED16346D7
:10415000012B42D0032BF6D1234B002BF3D08B78CD
:10416000C97800200902194300E000BF0122DDE701
:104170006346012B31D0032BE5D10125CB788A781A
:104180001B0213431C001D4033000121243318007F
:104190006940347100F0EAFD144B002BD3D00123A9
:1041A00062081A402900002000E000BF0122BDE79C
:1041B0006346012B0BD0032BC5D10D4B002BC2D076
:1041C000310000200831FEF79DFA0122AEE7094ACE
:1041D0000723FFF7EFFC0122A8E7FFF7D5FC012238
:1041E000A4E7C04678160020000000000000000090
:1041F0000527001080160020F8B54746CE4680B54A
:10420000344C1F00E37880460D008B423BD0A378EE
:1042100000208B4211D0C0BCB946B046F8BD2E4B31
:10422000002B04D02D4800F099FB00284FD000202F
:10423000FFF7A2FDA378AB420AD1294B002B02D095
:10424000002000E000BF0020FFF730FE002801D072
:104250000120E0E7234C200000F06AFB0028F7D1A2
:10426000002FF5D0BB06F3D1243C4046A178FFF7E0
:104270003BFC0028ECD0002300224046A178FFF749
:104280005BFC0120C7E7184E14483100BAB200F0B9
:1042900099FC164B002BC2D06379FF2BBFD0002FA7
:1042A000BDD0BC46B444E14603E001364E45B6D02D
:1042B000637932789A42F8D1084800F04FFB002821
:1042C000F3D1064B103B597900E000BFEDE700E069
:1042D00000BFACE778160020000000008816002020
:1042E000000000009C160020641C0020000000005C
:1042F0009322F0B5134C85B0002120009200FDF709
:10430000E3FF23002000802640270F4D4D33760029
:10431000FF332930029500930022002300210397E8
:104320000196FF3000F0C4F94035201D28340023E9
:1043300001220021039702950196009400F0B8F93C
:1043400005B0F0BDE41E0020641E002010B5054C31
:10435000200000F0E1F920002538FF3800F0DCF9FA
:10436000012010BD0C20002070B5084C0025200055
:104370003130FF30257000F0D9FC20000C3000F007
:10438000D5FC2A23FF33E554657170BDE41E00207F
:10439000F8B5CE46474680B54B7980468946FF2B17
:1043A00006D12A23374FFF337E79FB5C1E4304D0AE
:1043B0000020C0BCB946B046F8BD8B780C783B7085
:1043C0000B790C19002B3CD0A51803E0AC4238D275
:1043D0002378E4186378052BF8D1AC4231D2210060
:1043E0004046FFF767FB0028E2D0A378DB09012BEA
:1043F0002BD0254800F09AFC2A23A278FF33FA54E8
:10440000637922791B0213439421204A5B055B0DDB
:104410009B185A425341022049007A5C5B00824358
:1044200013437B5418494046083900F0DFF900284F
:10443000BED023780136E4184B461B79F6B2B3425E
:10444000C8D84B46E01A80B2B3E7114800F06EFCC2
:104450000F4AA3780C3A5371637921791B020B43FD
:104460005B050A495B0D5B1859424B4102201179EB
:104470005B0081430B43064900200839137100F0AB
:104480007FF9D6E7E41E00201420002000FEFFFF85
:10449000F01E002070B51D002A2304001F48FF33C2
:1044A000C35C8B4216D04079884201D0002070BD99
:1044B0001B4B002B04D029040020090C00E000BF96
:1044C000184B200019001E0000F05AF900281DD0DA
:1044D0000120ECE79A235B00C35A002B0DD1124B4D
:1044E000002B04D000201149AAB200E000BF200038
:1044F0000F4900F07BF90120D9E796235B00C158F2
:104500003130AAB2FF3000F05DFBE8E72A0031004D
:10451000200000F003F90120C9E7C046E41E002096
:1045200000000000E81E002000000000641E0020C3
:104530000C20002000B5030083B0002910D000201B
:10454000012B07D80A78002A04D00C48C254012055
:10455000012A01D003B000BD1800FEF7E9FDF9E71C
:1045600001236A46002001A99380FEF7E1FD00289F
:10457000F0D00122014B1A70ECE7C0463C1D002030
:1045800070B5040023780800DB070E00DD0F002B58
:1045900016D123785B0701D5280070BD012149425F
:1045A00001F00AF92378DB07DD0F002B0AD123780D
:1045B0005B0708D40422237801251343237002E00B
:1045C0000025E9E70025300001F0D6F8E4E7C04611
:1045D00070B50D00012104004942280001F0ECF8FB
:1045E00023785B07DE0F002B04DB280001F0C4F802
:1045F000300070BD2378DB0704D404222378934372
:104600002370F2E70026F0E7437902791B02134397
:10461000C2785B0592075B0D920F022A1AD0032A1B
:104620000BD00020012A07D102394A425141104AD9
:10463000891899424041C0B2704702394A1E9141DF
:104640000C4A4942114080220020D2008918994228
:104650004041F1E7022904D0002040229A42404123
:10466000EAE7054A981843425841C0B2E4E7C04619
:10467000FF03000040FCFFFF00FEFFFF8446881898
:1046800030B51C00814206D24A78052A04D00A7847
:1046900089188842F8D830BD7F228B781A405200A2
:1046A0006244DB09D4540A7889188842ECD8F2E7CE
:1046B000F0B5C64600B582B0904608AA20CA0400EC
:1046C00016886A460120978D0A00217802408143AE
:1046D000200011432170320000932900012308308B
:1046E00000F0F0F8002D01D0002E07D101200A9B28
:1046F0006780636002B080BCB846F0BD25001C3501
:104700002800FCF7A3FC42460023002A01D02B001E
:1047100000256361A561E9E701207047F8B502242F
:104720000B7807001C4063425C410800124B644256
:104730001C40124B08300D001600E41800F0F8F889
:10474000002807D1002E05D0344203D101242B7854
:104750001C4201D00020F8BD38006978FFF7C4F989
:104760000028F7D02B781C42F4D100230022380017
:104770006978FFF7E1F9EEE740FEFFFFFF01000077
:1047800008239C468C4470B5050060460C006646C4
:1047900000F0CEF8002803D0012223781A4201D07D
:1047A000002070BD28006178FFF79EF90028F7D03F
:1047B00062883000616800F03DF9012223781340DF
:1047C00000280CD0002BEBD1030062686178040054
:1047D0002800FFF7B1F90028E2D02000E1E7002B24
:1047E000DED128006178FFF793F9D9E7F0B5C64626
:1047F00000B58A8906000C000B78002A06D1013228
:104800001A4240D0002080BCB846F0BD9B0734D48B
:104810002B4B4025984608239C46A4446046674697
:1048200000F0A4F88542EDD8012223781A42E9D19C
:1048300030006178FFF758F90028E3D0380000F025
:1048400095F8012223781340854232D8002BD9D124
:10485000414662880140131C8A4200D90B1C9BB25E
:1048600000226178002B00D0626830001C00FFF746
:1048700063F90028C6D02000C5E7FE2380251B026F
:104880009846AD00C7E74978FFF72EF90028B9D060
:10489000012223781A42B5D1638800226178002B67
:1048A00000D062683000FFF747F90028AAD060887E
:1048B000A9E7002BA6D130006178FFF729F9A1E71D
:1048C000C0FF0000F0B5C64600B598466B461E7E98
:1048D000802304000F0015001B029A4226D8C068EE
:1048E000002803D00121494200F066FF206900281A
:1048F00003D00121494200F05FFF42465204F30316
:10490000520C1343E3800023E06863812760A58095
:104910002381002801D000F02FFF2069002801D05A
:1049200000F02AFF012080BCB846F0BD0020FAE765
:10493000038941899C4682889BB288B28C4507D303
:104940001B1A9BB2101C9A4200D9181C80B27047E7
:104950005100091A5B189BB2F4E7C04603894089ED
:10496000181A43425841C0B27047C0460389418972
:104970009C4682889BB288B28C4507D31B1A9BB297
:1049800000209A4201D9D21A90B270475100091AF8
:104990005B189BB2F4E7C04670B5040000690D00D7
:1049A000002803D00121494200F006FF23896289D3
:1049B0009C4698B291B2A388944532D3421A92B2DF
:1049C000002A27D0934208D298422FD3C01A81B22E
:1049D00061818B4203D8C91A89B28B42FBD9E28824
:1049E00023685204520C514328005918FDF772FCF9
:1049F000618901254A1C92B2A38891420DD90022F7
:104A00005B00D21A20696281002801D000F0B4FE58
:104A1000280070BD0025628992B25B009A42F1DBEA
:104A2000EFE75A00521A821892B2C9E7C01881B251
:104A30006181CEE7F0B54646D6464F46C0B5060082
:104A400000698A46904682B0002803D0012149427D
:104A500000F0B2FE31897289B5888BB294B291426E
:104A600055D31F1BBFB2002F4BD0BD4205D2AB4266
:104A700052D25B199CB22F0074814346B8453ED890
:104A80009FB2A54203D8641BA4B2A542FBD9F28809
:104A900031685204500C020062432B1B9BB28918F0
:104AA000019002009F4225D943439BB21A00504611
:104AB0009946FDF70FFC5046019A7D1B641954433B
:104AC00031684844A2B2FDF705FC7189B588CB195D
:104AD0009BB26A00994216D99B1A306973810028EB
:104AE00001D000F049FE380002B0E0BCBA46B14641
:104AF000A846F0BD50467A43FDF7ECFBE5E73B1CCA
:104B0000BEE773899BB26A009342E6DBE4E76F007D
:104B10003F1BDF19BFB2A6E75B1B9CB2ABE7C046E9
:104B2000F8B50400C0680F00002803D001214942F5
:104B300000F042FE258920896189A288ADB283B246
:104B40008EB2884228D39B1B9BB29A4209D8E67941
:104B5000F60906D1E068002801D000F00DFE300013
:104B6000F8BD2B0095421CD39B1A9BB29342FBD2FB
:104B7000E28820685204520C53433900C018FDF7F4
:104B8000A9FB6B1C9BB2A2889D4216D90023520040
:104B90009B1A01262381DDE75100891B5B189BB21C
:104BA000D3E7E28820685204520C53433900C018FE
:104BB000FDF790FB0135A288ABB252009342E8DBCF
:104BC000E6E7C046F0B54E464546DE465746E0B5F8
:104BD00089460500160083B0002A6BD0C068002803
:104BE00003D00121494200F0E7FD2F89EA79BBB2E9
:104BF00098466B89AF889BB2D2093DD1984562D265
:104C00007A00D31A43449BB2BB4261D2FB1A1A1CEE
:104C10009BB2B34200D9321C96B2F31B01934346B8
:104C2000F3189BB29B46EA884446B84503D3E41B7D
:104C3000A4B2BC42FBD252043B1B570C3A00624365
:104C400028689BB28018B34256D33A004946724353
:104C5000FDF740FBAB885B00D84501D89B4502DBE4
:104C60005A46D31A9B465B4637002B81E8680028DA
:104C700021D000F081FD1EE0BE422BD298454CD3DE
:104C80004246D21A92B27900F01B921901908A42E0
:104C9000C5DBDA1992B29346921B92B290469342C8
:104CA00040D94346591A8BB29846F3189BB29B469B
:104CB000EA88B9E70027380003B0F0BCBB46B2462B
:104CC000A946A046F0BD4246D31A9BB2BB429DD333
:104CD0000027CBE7002FC9D0CC46EA88F61B510449
:104CE000490C714398468C44D919002389B2E14696
:104CF0008B463E00019397E77B439BB21A004946DF
:104D00009A46FDF7E7FA4946019B2868E2187A437C
:104D1000514492B2FDF7DEFA9CE77900CA1A424488
:104D200092B2B1E79142BCDDC2E7C04610B50400C3
:104D3000C068002803D00121494200F03DFD2069F0
:104D4000002803D00121494200F036FD0023E0682D
:104D500063812381002801D000F00EFD2069002826
:104D600001D000F009FD012010BDC04670B504005F
:104D7000C0680D00002803D00121494200F01CFD4D
:104D80002069002803D00121494200F015FD7F2150
:104D9000E279EB011140E0681943E171002801D08C
:104DA00000F0EAFC2069002801D000F0E5FC0120B9
:104DB00070BDC04610B5034B0A000100186800F032
:104DC00003F810BD6814002010B50B0C140C002B58
:104DD00030D1002C44D18BB291B2594300F05AF833
:104DE000041E3BD00300083B5A6803239A43043A4D
:104DF000242A13D80300132A0BD90023036043602D
:104E00001B2A10D900238360C360242A31D00300F9
:104E1000103300221A605A609A6002E00021FDF708
:104E200053FA200010BD0300002208331A605A60B4
:104E30009A60F6E7002C16D1141C89B292B24A434C
:104E4000A4B29BB26343110C5B18190C0BD119046B
:104E500092B2114300F01EF8041EC3D10024E0E713
:104E6000231C0C1CE9E700F0E9FA0C230024036082
:104E7000D7E700220300026118334261C9E7C04648
:104E800010B5034B0100186800F078FB10BDC04658
:104E900068140020F0B54E46DE46574645460C00E5
:104EA000E0B50B34814685B0162C21D8102900D9E5
:104EB000D0E000F0A1FA102418230221C94DEB180C
:104EC0001A005F68083A974200D172E103227B68BA
:104ED000B9689343FA68CA6091600121FB185A6867
:104EE00048460A435A6000F08FFA38000830B5E0AF
:104EF00007239C4300D5ADE0A14200D9AAE000F011
:104F00007BFAFC235B009C4200D2B9E1610A00D12C
:104F1000ABE0042900D980E138239C46A1098C44E8
:104F2000E0463931CB00082252429446AD4DEB1891
:104F30009C446346DF68BC4512D00B0003266146E3
:104F40009C4607E0F868002A00DB2CE1814200D192
:104F50002DE107007B68B3431A1B0F2AF2DD41469F
:104F60002A002F690832974200D10BE103207B68A9
:104F70008343181B0F2800DD86E12A616A6100283F
:104F8000ABDA6A68944680229200934200D316E11D
:104F9000DA08580901238340604618438446D30049
:104FA0005B199A686860FB60BA609F60D7600120F7
:104FB0008B10984060455FD8634603420AD10323B3
:104FC0009943634640000431034203D14000043159
:104FD0000342FBD00323A8469C4683460D00E8000D
:104FE00040440600AA46F3680BE061465A688A43CB
:104FF000171B1900DB680F2F00DD1BE1002F00DB02
:105000002FE19E42F1D1534601339A4608369B0761
:10501000E9D1032205E003680838013D834200D04E
:10502000E2E12A42F7D14246594653688B43536026
:105030005A46520093469A421DD8002A06D11AE0D9
:105040005246043292465A46520093461342F7D0D3
:105050005546C4E70C234A461360002005B0F0BC57
:10506000BB46B246A946A046F0BD80233F22402160
:1050700090469B0057E745460322AF687B68934301
:105080009A46A34202D31B1B0F2B7EDC564B0820F3
:105090001B6810331E1900F0D7F9544B8346019357
:1050A0001B68013304D0731E1B18424213401E00BC
:1050B0003100484600F0B0F98046431C00D1FDE0C5
:1050C0005346FB18834200D9F6E0494A1168029220
:1050D000891911605A46013A834200D139E1019899
:1050E0000068013000D13FE14046C31A5B180299C5
:1050F0000B6041460723080018400190194200D177
:10510000F9E0C446310001331B1A9C446144039109
:105110005B4411405B1A1A4011004846E0461600F5
:1051200000F07AF9431C00D13AE1029B1968891911
:1051300019604346C21A012092190243AB605A60BB
:10514000AF4213D053460F2B00D811E107220C3B7E
:1051500093437A68024005201A437A60FA18506037
:1051600090600F2B00D921E143465A68214B186803
:10517000884200D21960204B1868884200D219601A
:1051800047469DE06B689C4611E7012221001343CE
:1051900011433C1979604846AC60636000F034F913
:1051A000380008305AE7BA68D060826095E66146F8
:1051B000D6E6DF680231BB4200D1D1E686E65A0A64
:1051C000042A73D9142A00D9A7E010005C325B309E
:1051D000D200AA18083A160092688846964210D162
:1051E00081E0C04660100020241B002058100020E1
:1051F000F41A00201C1B0020201B002092689642FD
:1052000004D00321506888439842F7D84146D668B5
:10521000FE60BA60B760D760C9E614295CD954292A
:1052200000D982E06E239C46210B8C446F31E0460E
:10523000CB0078E601200E0045460919044374604E
:10524000B4680835E36038439C60A960E960486051
:10525000CD6048468D60B75000F0D6F83000083079
:10526000FCE601200C008A185168083401435160A3
:1052700022684846D3609A6000F0C6F82000EDE648
:105280002300E108083319E60126391934437C600C
:1052900029616961CA608A60320002434A60F8503D
:1052A000484600F0B1F838000830D7E69A091000F7
:1052B00039323830D2008CE7AF4242D0AF687A68DA
:1052C00003239A43131BA24202D30F2B00DD5CE79A
:1052D000484600F099F8C0E65B239C468C445C315C
:1052E000E046CB001FE60123801083406046184350
:1052F000844668608CE73300594643440193134069
:10530000CB1A1A4011004846160000F085F8431CDD
:1053100000D00AE70026019807E7542A2BD81A0B79
:1053200010006F326E30D20053E7AA235B0099421F
:105330002BD8DD3B9C46E10B8C447831E046CB001A
:10534000F1E52B4A11680292891911605A46013A17
:10535000C5E6104200D0C2E652460123A868921961
:105360001A438046426001E74146019B1960C0E64E
:1053700043465860ACE7AA204000824221D8DA0BAD
:10538000100078327730D20023E71A4B994221D8A7
:105390007C239C46A10C8C447D31E046CB00C2E5C9
:1053A0000198039B083800261818BEE639004846C5
:1053B000083100F0E3F8029B1968AB6898465A6818
:1053C000D4E60C4882420BD89A0C10007D327C3017
:1053D000D200FEE6FE237E227F2190469B00A2E5BE
:1053E000FE227E209200F4E643465B6820E6C0463B
:1053F000F41A00205405000010B5024800F032F8FD
:1054000010BDC046F01A002010B5024800F02CF87C
:1054100010BDC046F01A0020002370B5064C0500F0
:1054200008002360FCF77EFF431C00D070BD23689A
:10543000002BFBD02B60F9E798220020014B186865
:105440007047C04668140020802310B55B0108280F
:1054500001D1180010BDFFF7F1FF16230360173BC1
:10546000F7E7C0467047C0467047C0460300844611
:105470009B070BD00300032102E001330B4206D04F
:105480001A78002AF9D16246981A70470300196801
:105490000C4A0D488A188A4302420FD15968094ABA
:1054A00004338A188A43024208D15968054A0433F2
:1054B0008A188A430242F1D000E001331A78002AA8
:1054C000FBD1E0E7FFFEFEFE80808080F0B5C6469F
:1054D000050000B5804608200C00FFF7B5FF060068
:1054E0002800FFF789FF224F3100BB685D68032366
:1054F0009D4328001138001B8019FCF7D3FD441E82
:105500007443A64207DC00214046FFF785FFBB68D5
:105510005B19984206D04046FFF776FF002080BC1A
:10552000B846F0BD40466142FFF776FF01300DD02E
:1055300001222D1BBB6815430E4A5D60136840466F
:105540001B1B1360FFF760FF0120E8E700214046C6
:10555000FFF762FFBA68831A0F2BDCDD064C0549A2
:105560002468001B086001210B435360D3E7C04649
:1055700060100020F41A002058100020F0B5C64634
:105580000C00804600B5002940D0FFF735FF210010
:1055900008394E68012533000320AB43CA189446EE
:1055A000526882432800304007006448846864459C
:1055B00000D171E064466260A41864682C40002F3A
:1055C00027D10E685E4F891B9B198E68BE4256D04C
:1055D000CF68F760BE60002C1DD062461D434D6051
:1055E00013608022920093422DD2DA085C090123D5
:1055F000A340446823434360D3001B189A68CB60E0
:105600008A609960D1604046FFF7FEFE80BCB846D4
:10561000F0BD002C0FD19B18624601249268484DC2
:105620001C43CE18AA4259D06546ED68D560AA60E1
:105630004C603360D5E7624635434D60136080228D
:1056400092009342D1D35A0A042A3DD89A091400F1
:1056500039323834D60086193268083E032596421E
:1056600003D14CE09268964203D05068A843984218
:10567000F8D8D668CE608A60B160D160C3E7002CEC
:1056800033D1D218604663468068DB681543C36037
:1056900098604D608A50B6E79A18002F06D10B68C3
:1056A000C91A8C68D218CB68E3609C60012313434D
:1056B0004B60244B81601B689342A4D8224B404628
:1056C0001968FFF703FF9EE7142A13D9542A1DD83F
:1056D0001A0B14006F326E34D600BCE7D1609160B3
:1056E000CA608A604C6033608DE762461D434D603E
:1056F000136088E714005C325B34D600ABE701230B
:10570000A410A340446823434360B3E7AA24640081
:10571000A24205D8DA0B140078327734D6009AE723
:105720000A4CA24205D89A0C14007D327C34D60073
:1057300091E7FE267E24B6008DE7C046601000206B
:10574000681000205C100020241B0020540500007D
:10575000F8B5C0460000000001B40248844601BC10
:10576000604700BF2504002001B40248844601BC04
:10577000604700BF0103002001B40248844601BC19
:10578000604700BF2502002001B40248844601BCE6
:10579000604700BF110F002001B40248844601BCDD
:1057A000604700BFC100002001B40248844601BC2C
:1057B000604700BF050C002001B40248844601BCCC
:1057C000604700BF9901002001B40248844601BC33
:1057D000604700BFDD0B002001B40248844601BCD5
:1057E000604700BF0101002001B40248844601BCAB
:1057F000604700BF910C002001B40248844601BC00
:10580000604700BF410C0020311E00105D1E0010DB
:1058100045200010B9220010F1200010F5210010E1
:105820006D1F0010791E0010991E0010AD1E001093
:10583000FD0F0010B51E0010BD130010F91D001063
:0C5840003D0C0010B12B0010B102001054
:10584C005441534B310000005441534B312D320025
:10585C005441534B320000005441534B322D320013
:10586C002F7573722F6C6F63616C2F696E636C751F
:10587C0064652F6E656F2D632E68000073747275EE
:10588C00637420735461736B2A0000006D61696E40
:10589C002E6E6300737472756374206C6973745F1D
:1058AC006974656D2431735461736B2470682A00BC
:1058BC00737472756374206C6973742431735461DE
:1058CC00736B2470682A00000A2A2A2A2050414E41
:1058DC004943202A2A2A0A000A0000004E6F20732E
:1058EC0070696E6C6F636B73206172652061766199
:1058FC00696C61626C6500004E6F20757365722077
:10590C00495251732061726520617661696C6162E4
:10591C006C650000486172647761726520616C612E
:10592C00726D20256420616C726561647920636CF2
:10593C0061696D6564000000486172642061737375
:10594C00657274004F7574206F66206D656D6F7293
:10595C007900000052656C6561736500626F6F744D
:10596C00325F77323571303830000000322E322EF3
:10597C00300000007069636F000000006D696E7587
:10598C00783200004A616E203230203230323600DC
:10599C0055534220737464696E202F207374646FA6
:1059AC00757400005261737062657272792050696F
:1059BC00000000005069636F00000000426F6172CC
:1059CC00642043444300000052657365740000007A
:1059DC00556E68616E646C65642049525120307854
:1059EC0025780A00657020253032582077617320A5
:1059FC00616C726561647920617661696C61626C5D
:105A0C006500000043616E277420636F6E74696ECD
:105A1C0075652078666572206F6E20696E6163749F
:105A2C00697665206570202530325800060052508A
:105A3C00D3F075426059001006005250E182887F05
:105A4C006859001006005250ABB3605378590010DF
:105A5C0006005250BBFF3CB6805900100600525055
:105A6C00861C030288590010060052505422A29D35
:105A7C009059001005005250DE65F468C872001091
:105A8C000D0A000000000000292600100000000094
:105A9C002D260010392600106526001061260010F6
:105AAC00000000000A00000000000306A600080029
:105ABC00020002009C001400030057494E5553424B
:105ACC000000000000000000000080000400010045
