:020000041000EA
:1000000000B5324B212058609868022188439860DF
:10001000D860186158612E4B002199600221596106
:100020000121F02299502B49196001219960352056
:1000300000F044F80222904214D00621196600F024
:1000400034F8196E01211966002018661A6600F04E
:100050002CF8196E196E196E052000F02FF8012189
:100060000842F9D1002199601B49196000215960AB
:100070001A491B48016001219960EB211966A021F2
:10008000196600F012F800219960164914480160C1
:100090000121996001BC002800D000471248134993
:1000A000086003C880F30888084703B5996A0420EC
:1000B0000142FBD001200142F8D103BD02B5186610
:1000C0001866FFF7F2FF186E186E02BD00000240BE
:1000D000000000180000070000035F00212200005C
:1000E000F4000018222000A00001001008ED00E03C
:1000F00000000000000000000000000074B24E7A12
:1001000000200420F7010010C3010010C5010010F9
:10011000C1010010C1010010C1010010C101001097
:10012000C1010010C1010010C1010010C701001081
:10013000C1010010C1010010C9010010CB01001065
:10014000CD010010CD010010CD010010CD01001037
:10015000CD010010CD010010CD010010CD01001027
:10016000CD010010CD010010CD010010CD01001017
:10017000CD010010CD010010CD010010CD01001007
:10018000CD010010CD010010CD010010CD010010F7
:10019000CD010010CD010010CD010010CD010010E7
:1001A000CD010010CD010010CD010010CD010010D7
:1001B000CD010010CD010010CD010010CD010010C7
:1001C00000BE00BE00BE00BE00BE00BEEFF3058054
:1001D000103800BEF2EB887198E40010C4E40010FF
:1001E0003802001090A31AE71E481F49086006C88D
:1001F00081F3088810471D480068002801D019487D
:10020000F3E70DA40ECC002902D000F012F8F9E7B4
:100210001749184A002000E001C19142FCD116495B
:100220008847164988471649884700BEFDE701C937
:1002300001C29A42FBD37047C4E40010C000002002
:10024000D01A0020D4FE001000000420000004207A
:10025000D4FE001000100420001004200000000054
:10026000704700000000000008ED00E0000000D032
:10027000D01A00202C730020CD6B001055120010F6
:10028000BD6B0010F8B5C04606480749091A8B1027
:10029000C90FC91810B5491003D0044B002B00D06A
:1002A000984710BDD01A0020D01A0020000000008E
:1002B000054B10B5002B03D00449054800E000BFF2
:1002C000FFF7E2FF10BDC04600000000BC70002038
:1002D0008CD9001070B588B00790069105920493F0
:1002E00002F02EFB0600079B1C00DB171D00FA2204
:1002F000920000232000290004F0A6FF02000B005A
:10030000049902910599019106990091300003F03A
:10031000F3F80300180008B070BD000084B003902B
:10032000029101920E4B1B687F2B16DC0C4B1A6856
:100330000C4B92000399D150094B1A680A4B92005A
:100340000299D150064B1A68084B92000199D1507E
:10035000034B1B685A1C024B1A60C04604B070471E
:10036000A06C0020882A00208828002088260020F1
:10037000054B1B68002B04DD034B1B685A1E024B08
:100380001A60C0467047C046A06C002010B582B00D
:100390000F4B1B68013B019312E00E4B019A920038
:1003A000D1580D4B019A9200D4580C4B019A9200EF
:1003B000D3580B48220006F0ADFE019B013B019390
:1003C000019B002BE9DAC046C04602B010BDC04612
:1003D000A06C0020882A0020882800208826002081
:1003E00020DB001000B587B00390029101920093CA
:1003F00000230593039B002B0AD1009B019A0299CD
:100400000B4806F087FEFFF7C1FF022006F0D6FB7F
:10041000039B0593074B059A1A60064B1B680493D0
:10042000044B00221A60049B180007B000BDC046B0
:100430002CDB00108026002010B586B003900291BE
:100440000192039B5A1E9341DAB2304B1A70029B01
:100450005A1E9341DAB22E4B1A70019B5A1E9341D9
:10046000DAB22C4B1A702C4B00221A6080239A00AF
:100470002A4B0021180004F0BBFF80239A00284B70
:100480000021180004F0B4FF80239A00254B0021BE
:10049000180004F0ADFF244B04225A60224B5B6825
:1004A0009B001900012004F079FF03001A001E4B85
:1004B0001A60002305930FE01B4B1A68059B9B00F5
:1004C000D41880235B011900012004F067FF0300AA
:1004D0002360059B01330593134B5B68059A9A4291
:1004E000EADB114B1B681A680F4B9A600E4B002217
:1004F000DA608023DA010D4B0021180004F078FF48
:100500000B4B00221A60C04606B010BD23730020BA
:10051000217300202273002084260020882A0020D6
:1005200088280020882600208C2C00209C2C00206D
:100530007C26002010B58AB0019000230793002389
:100540000993019A80235B019A4200D392E0544BB5
:10055000019A04329200D358002B16D0504B019AC6
:1005600004329200D35809934D4B019A0432920001
:10057000D35819694A4B019A04329200D150019A1A
:10058000099B0021180004F033FF099B002B00D0C9
:1005900077E0434B1A68424BDB689B00D3181B681B
:1005A000802252019A183E4B9B68D31A0693019AF7
:1005B000069B9A4254D33A4BDB685A1C384BDA609C
:1005C000374BDA68364B5B689A4240D1344B5B68F4
:1005D0005B000593059B9B001900012004F0DEFEE3
:1005E00003000493002308930DE02D4B1A68089B29
:1005F0009B00D218089B9B000499CB1812681A60C4
:10060000089B01330893264B5B68089A9A42ECDBFF
:100610000EE0089B9B00049AD41880235B0119000C
:10062000012004F0BBFE03002360089B0133089304
:10063000089A059B9A42ECDB194B1B68180004F0E2
:10064000C5FE174B049A1A60154B059A5A60144B55
:100650001A68134BDB689B00D3181A68104B9A601A
:100660000F4B9B6809930E4B9A68019BD2180C4B59
:100670009A6006E0019B1900012004F08FFE030040
:100680000993099B0793074B079A1A60054B1B6850
:100690000393044B00221A60039B18000AB010BD9C
:1006A0008C2C00208026002000B58DB00390029194
:1006B0000192009300230B936F4B1B78002B00D10A
:1006C0009FE0039BD8331800FFF734FF0300079324
:1006D000079B0693069B694A5A60039BD8331A000E
:1006E000069B1A60069B00221A610199029B002258
:1006F0001800FFF713FE624B1B680F2B1EDC069BD6
:10070000183318005E4B1B689A005E4B190004F00A
:1007100075FE069B58331800594B1B689A005A4BBC
:10072000190004F06BFE069B98331800544B1B68AD
:100730009A00564B190004F061FE2CE0069B18331A
:1007400018004F4B1B68524A944663449A004D4B25
:10075000D3184022190004F051FE069B58331800AC
:10076000474B1B684A4A944663449A00464BD31849
:100770004022190004F042FE069B98331800404BBB
:100780001B68434A944663449A00404BD318402266
:10079000190004F033FEFFF7EBFD3E4B1A68069B91
:1007A0009A60069B0022DA60009B002B08D0009B19
:1007B00018000CF095FE03001A00069B5A6102E037
:1007C000069B00225A61334B1B68002B03D0314B30
:1007D0001B68069ADA602F4B069A1A602E4B1B682C
:1007E0005A1C2D4B1A60079BD8330B932B4B0B9A3B
:1007F0001A602A4B1B680593284B00221A60059B40
:1008000037E0039B14331800FFF794FE03000A93AC
:100810000A9B0993099B194A5A60039B14331A00D7
:10082000099B1A60099B00221A611A4B1A68099BDE
:100830009A60099B0022DA60164B1B68002B03D0DC
:10084000144B1B68099ADA60124B099A1A60124B12
:100850001B685A1C104B1A600A9B14330B930F4BE6
:100860000B9A1A600D4B1B6808930C4B00221A6000
:10087000089B18000DB000BD2173002077B6020060
:10088000A06C0020882A00208828002088260020CC
:10089000EFFFFF3F7C2600209C6C0020802600207C
:1008A00000B58BB00190019B002B00D1D3E06B4BC6
:1008B0001B78002B00D0CEE0694B1B78002B68D052
:1008C000019BD83B0593059B5B68664A934200D029
:1008D000BEE0059B00225A60059BDB680493059BE4
:1008E0009B680393059B5B69002B04D0059B5B69A8
:1008F000180004F06BFD5C4B1B68059A9A420BD103
:10090000594B039A1A60584B1B68002B10D0564B5A
:100910001B680022DA600BE0049B002B02D0049BD2
:10092000039A9A60039B002B02D0039B049ADA601F
:10093000059B1B680293029A80235B019A421ED298
:100940004A4B029A04329200D358002B09D1059BDE
:1009500000221A61454B029A043292000599D15047
:1009600011E0424B029A04329200D258059B1A6160
:100970003E4B029A043292000599D15003E0059B48
:10098000180004F023FD3A4B1B685A1C384B1A60C0
:1009900061E0019B143B0993099B5B68314A9342D8
:1009A00058D1099B00225A60099BDB680893099B78
:1009B0009B6807932C4B1B68099A9A420BD12A4BD0
:1009C000079A1A60284B1B68002B10D0264B1B6817
:1009D0000022DA600BE0089B002B02D0089B079AEC
:1009E0009A60079B002B02D0079B089ADA60099B4C
:1009F0001B680693069A80235B019A421ED21B4B0A
:100A0000069A04329200D358002B09D1099B002288
:100A10001A61164B069A043292000999D15011E0DE
:100A2000124B069A04329200D258099B1A610F4B5E
:100A3000069A043292000999D15003E0099B1800EC
:100A400004F0C4FC0A4B1B685A1C094B1A6002E0F4
:100A5000C04600E0C0460BB000BDC0462273002077
:100A60002173002077B602007C2600208C2C002009
:100A7000A46C002000B58BB003900291019200930A
:100A800000230993039B029A5343083318000C9BDD
:100A9000009A0199FFF708FE03000893089B07934B
:100AA000079B00221A60089B04330693029B039A5B
:100AB000534308331A00069B1A60089B08330993B6
:100AC000064B099A1A60054B1B680593034B0022DD
:100AD0001A60059B18000BB000BDC04680260020A0
:100AE00000B585B00190019B002B07D0019B083B0E
:100AF0000393039B1800FFF7D3FE00E0C04605B048
:100B000000BD000086B0019000230593019B002BDF
:100B10000CD1019B0593114B059A1A600F4B1B6872
:100B200002930E4B00221A60029B13E0019B083BCC
:100B30000493049B1B685A1C049B1A60019B059339
:100B4000064B059A1A60054B1B680393034B002262
:100B50001A60039B180006B07047C046802600202C
:100B600000B589B003900291019200930023059390
:100B7000002304930C9B002B03D0039A0C9B9A42F6
:100B800037D0039B002B36D0019B002B09D0029B52
:100B9000002B31D0029B0593059B039A10009847C8
:100BA0002AE0039B083B0793009B002B04D1079B83
:100BB0001B685A1E079B1A60079B1B6806930A9BBB
:100BC000002B19D1069B002B02D00B9B002B13D0BE
:100BD000039B002B10D0029B002B05D0029B04939B
:100BE000049B039A10009847039B1800FFF778FFB7
:100BF00002E0C04600E0C04609B000BD10B58CB0B0
:100C0000059000230A930023079380235B011900BA
:100C1000012004F0C3FB03000993099B284A944672
:100C200063440B930B9B043B0B930B9B802252045E
:100C30001A600B9B043B0B93059A0B9B1A600B9B52
:100C4000043B0B930B9B032252421A600023079331
:100C500008E00B9B043B0B930B9B00221A60079B45
:100C600001330793079B042BF3DD164A164B0093C1
:100C7000272328210120FFF7FDFE03001800FFF7BE
:100C800041FF030008930B9A089B1A600F4B1C68E6
:100C9000089B1800FFF736FF03001900200000F042
:100CA00019F80B49089800230293002301930023AD
:100CB000009300230022FFF753FFC0460CB010BD85
:100CC000FC0F00007CDD001084DD0010A86C00200B
:100CD000950E001000B593B0059004910023119378
:100CE0000023109300230F9300230E93059B9B6812
:100CF000002B34D18623D900604A614B00930B004E
:100D00000C210120FFF7B6FE03001093109B180082
:100D1000FFF7F8FE03000993099B00225A60099B24
:100D200000229A60099B1B680893049B1800FFF738
:100D3000E9FE0200099B1A605249089800230293B9
:100D4000002301930023009300230022FFF708FFF4
:100D5000059B099A5A60059B099A1A606EE0059BEB
:100D60009B68012B35D14849444A454B00930B0001
:100D70000C210120FFF77EFE03000F930F9B18004C
:100D8000FFF7C0FE03000B93059B1A680B9B5A608C
:100D90000B9B00229A600B9B1B680A93049B180014
:100DA000FFF7B0FE02000B9B1A6036490A98002339
:100DB0000293002301930023009300230022FFF7F6
:100DC000CFFE059B0B9A5A60059B1B680B9A9A6095
:100DD00034E02E49294A2A4B00930B000C210120B4
:100DE000FFF748FE03000E930E9B1800FFF78AFEE4
:100DF00003000D93059B5A680D9B5A600D9B0022C2
:100E00009A600D9B1B680C93049B1800FFF77AFEF9
:100E100002000D9B1A601B490C98002302930023CB
:100E200001930023009300230022FFF799FE059B06
:100E30005B680D9A9A60059B0D9A5A60059B9B68AA
:100E40005A1C059B9A60059B1193114B119A1A60CD
:100E50000F4B1B6807930B49049800230293002350
:100E600001930023009300230022FFF779FE084B33
:100E700000221A60079B180013B000BD90D9001023
:100E80008CDD0010950E00103A04000044040000B0
:100E90008026002082B00190C04602B0704700005A
:100EA000F0B5DE4657464E464546E0B583B0019064
:100EB0002A480460204B1A68019B9A602848056004
:100EC0001E4B1A68019BDA60264806601C4B1A68A4
:100ED000019B1A61244807601A4B1A68019B5A61EA
:100EE000224843460360184B1A68019B9A612048C8
:100EF0004B460360154B1A68019BDA611D48534647
:100F00000360134B1A68019B1A621B485B4603601F
:100F1000104B1A68019B5A62EFF309811748016070
:100F20000D4B1A68019B1A60C04603B0F0BCBB466B
:100F3000B246A946A046F0BD641C0020681C0020F3
:100F40006C1C0020701C0020741C0020781C0020E9
:100F50005C1C0020601C00207C1C0020641C002005
:100F6000681C00206C1C0020701C0020741C0020D9
:100F7000781C00205C1C0020601C00207C1C0020D1
:100F8000F0B5DE4657464E464546E0B583B0019083
:100F9000019B1A68234B1A60224B1B6818331A688E
:100FA000214B1A602948036883F30988019B5A6A18
:100FB0001E4B1A6026480468A346019B1A6A1C4B04
:100FC0001A6024480468A246019BDA69194B1A602A
:100FD00021480468A146019B9A69174B1A601F4873
:100FE0000468A046019B5A69144B1A601C480768A4
:100FF000019B1A69124B1A601A480668019BDA684D
:10100000104B1A6018480568019B9A680E4B1A60CD
:1010100016480468C04603B0F0BCBB46B246A946B9
:10102000A046F0BD7C1C0020581C0020601C002045
:101030005C1C0020781C0020741C0020701C002008
:101040006C1C0020681C0020641C00207C1C0020FC
:10105000601C00205C1C0020781C0020741C0020F8
:10106000701C00206C1C0020681C0020641C0020E8
:1010700010B588B0059000230793002306932A4BF0
:101080001A682A4B1B681900100000F055F803007D
:101090000793274907980023D622FFF7A3F90300F7
:1010A0001800FFF7FDFE2349079800230293002351
:1010B00001930023009301230022FFF751FD1B4BF6
:1010C0001B685C1C184B1B68180000F087F80300B5
:1010D0001900200003F062FA0B001A00134B1A608B
:1010E000114B1A68114B1B681900100000F024F80E
:1010F000030006930E4906980123DA22FFF772F9DE
:1011000003001800FFF73CFF0A49069800230293EA
:10111000002301930023009301230022FFF720FD09
:101120000123180008B010BDA86C0020882C0020F6
:101130007CDD0010950E001000B58DB00590049177
:101140000023099300230693049B002B04DA059BDC
:101150009B68049AD3180493059B1B680B93002388
:101160000A9317E0049A0A9B9A420DD10B9B1B68C5
:101170000993184B099A1A60164B1B680793154B75
:1011800000221A60079B22E00B9B9B680B930A9B33
:1011900001330A930B9B002BE4D100230693069B9B
:1011A00009930C4B099A1A600A4B1B68089306981E
:1011B0000949002302930023019301230093002394
:1011C0000022FFF7CDFC034B00221A60089B180099
:1011D0000DB000BD80260020950E001082B0019059
:1011E000019B002B01D1002301E0019B9B681800AB
:1011F00002B0704710B5094B180005F04EFFFA23F6
:101200009B00180002F0F7F8054B180005F045FFA9
:10121000FA239B00180002F0EEF8ECE7A0DD0010C6
:10122000A8DD001010B5094B180005F036FFFA23B1
:101230009B00180002F0DFF8054B180005F02DFFA9
:10124000FA239B00180002F0D6F8ECE7B0DD00109E
:10125000B8DD001010B58EB000230D9300230C9361
:1012600000230B9304AB18220021180004F0C0F8EF
:10127000002200210020FFF7DFF805F0DAFE324BF4
:10128000180002F0B8F8314B1B680A93304A314B12
:101290000093F82310210120FFF7ECFB0300180056
:1012A000FFF730FC0300180000F066F80300180098
:1012B000FFF728FC0200254B1A6027490A980023F3
:1012C0000293002301930023009300230022FFF7E1
:1012D00047FC224B1800FFF791FC214B1800FFF749
:1012E0008DFC1A4B1A681F4B1B6819001000FFF782
:1012F00023FF03000B9316490B980223FD22FFF7EF
:1013000071F803001A68184B1A6018490B980023EB
:101310000293002301930023009301230022FFF78F
:101320001FFC04AB1249FA2290000022FEF7D2FF04
:101330001048046884F30988022080F31488BFF3FE
:101340006F8FFFF757FFFEE788130000A86C00209F
:101350007CDD0010C0DD001081140010F5110010BC
:1013600025120010882C00207C1C0020950E0010F7
:10137000711000107C1C002000B589B0059000237E
:101380000793059B00221A60059B00225A60059B6B
:1013900000229A60059B07930C4B079A1A600B4B2F
:1013A0001B6806930A4905980023029300230193C2
:1013B0000123009300230022FFF7D2FB034B0022FE
:1013C0001A60069B180009B000BDC04680260020A8
:1013D000D513001000B589B00590059B1B680793D5
:1013E00010E0079B0693079B9B68079309490698A3
:1013F0000023029300230193002300930023002283
:10140000FFF7AEFB079B002BEBD1C046C04609B0EF
:1014100000BDC0461914001000B589B00590059BA9
:10142000002B26D0059B1B68002B22D0059B1A6839
:10143000114B1B689A420FD1059B1B6807930F49FC
:1014400007980023029300230193012300930023B4
:101450000022FFF785FB0CE0059B18680749002375
:101460000293002301930023009300230022FFF73F
:1014700077FBC04609B000BD80260020950E001005
:1014800000B589B00590059B1B68079310E0079B8A
:101490000693079B9B6807930949069800230293CC
:1014A000002301930023009300230022FFF758FB41
:1014B000079B002BEBD1C046C04609B000BDC0461B
:1014C0001914001082B00190C04602B070470000AD
:1014D00000B589B001900A006B4603331A70019B76
:1014E0001800FFF7EFFF019B9B00134A94466344EB
:1014F000079340230693C0230593079B1A68069B16
:101500005340059A1340079A04920393049B802248
:10151000520194466344039A1A60C046C046074984
:101520006B4603331A78019BDB00CB1804331A6037
:10153000C04609B000BDC04604C0014000400140A3
:1015400084B08023DB051B680393039B1B051B0DE5
:101550000293039B1B0B1B041B0C0193039B1B0F90
:101560000093009BDBB2180004B070470FB400B5C5
:1015700083B00B4B180005F090FD049B002B0BD0A3
:1015800005AB0193019A049B1100180005F0C4FA01
:10159000044B180005F081FD012005F0DFFAC0467C
:1015A000E0DD0010F0DD001086B00B230193019BFD
:1015B0000F4A944663449B000593EFF3108372B681
:1015C0000493049B0393059B029300E0C046029B97
:1015D0001B685A425341DBB2002BF7D1BFF35F8F38
:1015E000C046C046C046039B180006B07047C046C0
:1015F0004000003488B001900B230393039B0D4AF5
:10160000944663449B000793019B0693079B0593B5
:10161000BFF35F8FC046C046059B00221A60C046DC
:10162000069B0493049B83F31088C046C046C046C3
:1016300008B070474000003482B001900091009BD8
:10164000DB08019AD3181B781900009B072213406E
:1016500001229A4013000B405A1E9341DBB218003E
:1016600002B0704700B587B0039002910192FFF776
:101670009BFF03000593029A039B11001800FFF7DC
:10168000DBFF031E05D0029A019B11001800FFF733
:101690006DFF029BDB08039AD3181978029B07227F
:1016A000134001229A401300DAB2029BDB08039830
:1016B000C3180A43D2B21A70059B1800FFF79AFFAD
:1016C000C04607B000BD00B589B0039001920093F9
:1016D0000B236B440A1C1A70FFF766FF0300059387
:1016E00001235B420793019B069325E0069A039B27
:1016F00011001800FFF7A0FF03001A000123534058
:10170000DBB2002B15D0069BDB08039AD31819789F
:10171000069B0722134001229A401300DAB2069B6F
:10172000DB080398C3180A43D2B21A70069B0793CA
:1017300006E0069B01330693069A009B9A42D5D990
:10174000059B1800FFF756FF079B002B08DA0B23B9
:101750006B441B78002B03D00A9B1800FFF706FF91
:10176000079B180009B000BD82B0094B1B785A1CBA
:10177000D1B2074A11700193054B1B78172B02D980
:10178000034B10221A70019B180002B07047C0462C
:101790009814002000B585B002000F236B441A7026
:1017A0000F236B4419780548054B00931F2318221B
:1017B000FFF789FF0300180005B000BD14260020C4
:1017C00014DE001084B00023039312E0039B019306
:1017D000019B0B4A944663449B000293BFF35F8FC7
:1017E000C046C046029B00221A60C046039B0133DC
:1017F0000393039B1F2BE9D9C046C04604B0704732
:10180000400000340FB410B502AB1B7801225340E6
:10181000DBB2002B01D002F01DFDC04610BC08BC9D
:1018200004B0184782B00190C04602B07047000073
:10183000014B18007047C04628730020014B9B687D
:101840001800704700ED00E082B00190019B01227A
:101850001343180002B0704782B00190019B01222F
:101860009343180002B0704700B58BB0039002910B
:101870000192FFF7E3FF0200039B10339B00D31894
:10188000029A1A60BFF35F8FC04609230593059B38
:101890000D4A944663449B000993019B0893099B5E
:1018A0000793BFF35F8FC046C046079B00221A60B4
:1018B000C046089B0693069B83F31088C046C0462B
:1018C000C0460BB000BDC0464000003400B583B038
:1018D00001900A006B4603331A70019B1800FFF752
:1018E000A1FF019B5809019B1F22134001229A402E
:1018F00011006B4603331B781A0000F037F8C0461E
:1019000003B000BD00B583B00190019B1800FFF744
:1019100089FF0122019B9A40044B1B6813405A1E09
:101920009341DBB2180003B000BDC04600E100E007
:1019300084B0039002916B4607331A706B460733ED
:101940001B78002B08D00849C0235B00029ACA50BC
:10195000054B029A1A6003E003498022029B8B50D8
:10196000C04604B07047C04600E100E000B585B055
:10197000039002916B4607331A706B4607331A784F
:101980000299039B1800FFF7D3FFC04605B000BDC6
:1019900000B583B00190019B1800FFF743FF044B93
:1019A0000121019A91400A001A60C04603B000BDAF
:1019B00000E200E082B00190019A054BD21A2F217B
:1019C000002391425B41DBB2180002B07047C04671
:1019D0009C14002000B585B00190019B1800FFF712
:1019E00021FF019B180000F015F803000393039BEF
:1019F000002B07D0039B1800FFF7DCFF031E01D06C
:101A0000012300E000231A1C01231340DBB218005D
:101A100005B000BD00B583B00190019B1800FFF731
:101A200001FFFFF70BFF0200019B10339B00D3184F
:101A30001B68180003B000BD00B58BB00190009189
:101A4000019B1800FFF7EEFE09230293029B204A38
:101A5000944663449B000993099B0693EFF310831C
:101A600072B60593059B0493069B039300E0C04662
:101A7000039B1B685A425341DBB2002BF7D1BFF3E3
:101A80005F8FC046C046C046049B0893019B180068
:101A9000FFF7C0FF03000793079A0E4B9A4203D04B
:101AA000079A009B9A4201D1012300E000231A1CEF
:101AB00001231340DBB21800FFF7A4FE089A009937
:101AC000019B1800FFF7D0FEC0460BB000BDC0461A
:101AD00040000034CD01001086B001900091019BC0
:101AE0000593009B0493049A059BD31A043B03932C
:101AF000039B5B101BB25B055B0D1BB2034A1343D8
:101B00001BB29BB2180006B07047C04600E0FFFF52
:101B100086B001900091019B0593009B0493049A69
:101B2000059BD31A043B5B080393039BDB0A9BB220
:101B30005B055B0D9BB2084A13439AB2019B1A8066
:101B4000039B9AB2019B023304490A4392B21A8062
:101B5000C04606B07047C04600F0FFFF00F8FFFF28
:101B600084B00190019B1B885B050393039B002BB2
:101B700002DA064A944663445B150393039B0233DF
:101B80005B00019AD318180004B07047FFFF1F00D4
:101B900084B001900091084B03930099039A019B34
:101BA0005B1A5B415A43120D03920193039B5BB294
:101BB000180004B07047C046AAAA000000B583B060
:101BC0000190054A019B11001800FFF7E1FF030097
:101BD000180003B000BDC0469C14002010B59AB098
:101BE000039002916B4607331A70039B1800FFF7AE
:101BF00019FE09230D930D9B964A944663449B005E
:101C00001693169B1193EFF3108372B61093109BEB
:101C10000F93119B0E9300E0C0460E9B1B685A4227
:101C20005341DBB2002BF7D1BFF35F8FC046C046F4
:101C3000C0460F9B1593884B1B785BB2DB43DBB22E
:101C4000DB09DBB21800FFF7DDFD834B1B785BB2CD
:101C50001A0013005B009B189B00804A9B1814938A
:101C60004F236B447C4A12781A70149B06229A56B2
:101C7000794B1A70FFF7E2FD0200039B10339B00C3
:101C8000D3181B681993199B1800FFF793FE0300E4
:101C90001A0001235340DBB2002B2FD0199A704B4E
:101CA000D31A5A425341DBB21800FFF7ABFD0AAB1F
:101CB0006C4A1A80149B02336B4A11001800FFF71C
:101CC0000BFF03001A000AAB5A80684A0AAB9A80DD
:101CD0000AABFF229A710AAB6A4607321278DA71B0
:101CE0000AAB029A9A60149B0AAA13CA13C3149BE4
:101CF0001800FFF7A9FD03001993A2E00023189331
:101D0000199B1800FFF7A8FD03001293129B17936D
:101D100011E0179B1893179B9B795BB2002B12DB8A
:101D2000179B9B795BB21A0013005B009B189B000A
:101D30004A4A9B181793179BDB796A460732127839
:101D40009A42E6D300E0C046189B002B3FD007AB79
:101D5000474A1A8007AB8F22D2015A80189B9B7981
:101D60005BB2002B0EDB149B1C1D189B0433180068
:101D7000FFF7F6FE030019002000FFF7ADFE030099
:101D80001A0000E0394A07AB9A80189B06229A563F
:101D900007AB9A7107AB6A4607321278DA7107AB64
:101DA000029A9A60189B0433149A11001800FFF7E6
:101DB00093FE03001A00189B9A80189B4F226A44D6
:101DC00012789A71149B07AA13CA13C339E004ABA3
:101DD000244A1A80149B0233234A11001800FFF78B
:101DE0007BFE03001A0004AB5A80149B0433129A42
:101DF00011001800FFF770FE03001A0004AB9A8070
:101E0000129B1800FFF7DAFE03001A0004AB9A7168
:101E100004AB6A4607321278DA7104AB029A9A6010
:101E2000149B04AA13CA13C3129B114A1A80129B53
:101E30008F22D2015A80149B1800FFF705FD030082
:101E40001993159A1999039B1800FFF70DFDC046C9
:101E50001AB010BD40000034247300209C140020F0
:101E6000CD01001000A1FFFFCC14002001BD000037
:101E70000148000082B00190019B9B68180002B0ED
:101E80007047000010B592B00190009109230393B0
:101E9000039B854A944663449B000E930E9B0793D5
:101EA000EFF3108372B60693069B0593079B04938A
:101EB00000E0C046049B1B685A425341DBB2002B32
:101EC000F7D1BFF35F8FC046C046C046059B0D9358
:101ED000FFF7B4FC0200019B10339B00D3181B6872
:101EE0001193119A714B9A4200D1D2E0119A009B42
:101EF0009A4200D1CDE0119B1800FFF75BFD031E55
:101F000000D1C8E033246C44019B1800FFF7FAFCB1
:101F100003002370019B00211800FFF7D7FCBFF3DB
:101F20005F8FC046EFF305830293029B0B930B9BDD
:101F3000002B04D0019B10330B9A9A4201D101234C
:101F400000E000231A1C01231340DBB21800FFF746
:101F500059FC00231093119B1800FFF77DFC030030
:101F60000A930A9B0F9311E00F9B10930F9B9B7991
:101F70005BB2002B13DB0F9B9B795BB21A00130043
:101F80005B009B189B004A4A9B180F930F9B1800FD
:101F9000FFF770FF0200009B9342E5D100E0C046CE
:101FA0000F9B1800FFF766FF0200009B934267D16A
:101FB00027236B440F9A92791A7027236B441B785E
:101FC0007F2B39D827236B4400229A5613005B00DD
:101FD0009B189B00364A9B180893089B9A680F9B96
:101FE0009A60089BDA790F9BDA71089B06229A5651
:101FF0000F9B9A71089B9B795BB2002B0EDB0F9BAA
:102000001C1D089B04331800FFF7AAFD03001900EC
:102010002000FFF761FD03001A0000E0254A0F9B36
:102020009A80254B00229A56089B9A71224B2722B0
:102030006A4412781A7023E00B9B002B19D1109B75
:10204000002B06D0109BFF229A711A4A109B9A808F
:1020500001E0164B1193184B00229A560F9B9A7170
:102060000F9B1800FFF7AAFD03001A00124B1A700D
:1020700006E00F9B0433114A11001800FFF748FDDA
:1020800033236B441A78019B11001800FFF71EFCE4
:1020900001E0064B11930D9A1199019B1800FFF76F
:1020A000E3FBC04612B010BD40000034CD0100106B
:1020B0009C14002001BD000024730020D6140020D1
:1020C000014B18007047C04600E400E010B592B024
:1020D0000190019B1800FFF7B7FB03001093EFF38B
:1020E00005830693069B0F9309230793079B494A91
:1020F000944663449B000E930E9B0B93EFF3108367
:1021000072B60A930A9B09930B9B089300E0C046A2
:10211000089B1B685A425341DBB2002BF7D1BFF337
:102120005F8FC046C046C046099B0D9333246C4464
:10213000019B1800FFF742FD03002370FFF77EFBB1
:1021400002000F9B9B00D3181B68109A9A4208D17B
:10215000FFF774FB02000F9B9B00D3182E4A1A60F6
:1021600036E032236B4400221A70002311932CE0D6
:102170002A49119A13005B009B189B00CB18063369
:102180001B785BB233226A44127852B29A4219D158
:102190002249119A13005B009B189B00CB18063351
:1021A000FF221A701E481D49119A13005B009B18EC
:1021B0009B00CB180433021C1A8032236B4401228B
:1021C0001A7005E0119B01331193119B032BCFD99A
:1021D000144B00229A56019B9A71124B33226A4487
:1021E00012781A700E9B05930D9B0493059B039325
:1021F000BFF35F8FC046C046039B00221A60C046F3
:10220000049B0293029B83F31088C046C046C046DD
:1022100012B010BD40000034CD0100109C1400200D
:1022200001BD00002473002000B585B00B4B019365
:10223000FFF746FF030003930023029307E0039B8D
:102240001A1D0392019A1A60029B01330293029BAA
:10225000072BF4D9C046C04605B000BD8080808001
:1022600000B587B002000F236B441A70FFF7E0FA45
:102270000F236B441978094B009305230022FFF7C5
:1022800022FA03000593059B002B03DB059B1F220D
:10229000D31A0593059B180007B000BD4CDE001053
:1022A00084B001900091009B0393039B044A9446E1
:1022B00063449B001A00019B1A60C04604B070473B
:1022C0004000003482B000900191009A019B100000
:1022D000190002B0704784B00390009201930399F3
:1022E000009A019B0A604B60C04604B0704700B57D
:1022F00083B001F017FA02000B0069460800FFF7EF
:10230000EAFF009A019B1000190003B000BD000015
:1023100030B58BB0029003910192029A039B10009A
:102320001900FFF7CFFF02000B0006920793019BF5
:102330001C0000231D00FA22920000232000290027
:1023400002F082FF02000B0010001900069A079BA2
:1023500012184B4108920993089A099B002B04DA42
:1023600001225242074B08920993089A099B04A93B
:102370000800FFF7B0FF049A059B100019000BB08E
:1023800030BDC046FFFFFF7F00B583B00190FFF76F
:10239000AEFF019B1A00FFF7BBFF02000B0010000D
:1023A000190003B000BD000000B585B0104B0393C9
:1023B00016E0039B1B68002B09D0039B0193019B34
:1023C000180000F02EF8019B0833039308E0039BEC
:1023D0000293029B180000F00FF8029B083303934E
:1023E000039A044B9A42E4D3C046C04605B000BDF0
:1023F000C81A0020D01A002010B582B00190019CAC
:10240000FFF7B2F9030019002000FFF749FF019B15
:10241000FF221A71BFF35F8FC046C046C04602B0AC
:1024200010BD10B582B00190019CFFF79DF903002B
:1024300019002000FFF734FF019BFF221A71019B56
:1024400000225A71BFF35F8FC046C046C04602B03B
:1024500010BD00B583B001900120FFF79BF9030088
:102460001A00019B1100180000F004F8C04603B0E8
:1024700000BD000084B001900091009B0393039B7A
:10248000064A944663449B001A00019B1A60BFF3FE
:102490005F8FC046C046C04604B07047400000345D
:1024A00082B000900191009A019B1000190002B0C7
:1024B000704784B00390009201930399009A019BA6
:1024C0000A604B60C04604B0704782B00190C046BD
:1024D00002B0704782B00190019B9B6A180002B065
:1024E000704730B589B0039000920193009A019B28
:1024F00010001900FFF7D4FF02000B0006920793AB
:10250000079B1C0000231D0023000593039B5B6AAF
:102510000493049A059B9A420AD3039B9A6A069BEA
:102520009A4203D2049A059B9A4201D0012300E00B
:1025300000231A1C01231340DBB2180009B030BD80
:1025400000B583B000900191009A019B03490800F7
:10255000FFF7C7FF0300180003B000BD00400540AF
:1025600000B583B001900091009B1800FFF7ADFF0C
:10257000009B180003B000BD82B00190002318003A
:1025800002B0704782B00190014B180002B0704752
:102590000040054000B583B001F0C4F802000B0014
:1025A00069460800FFF785FF009A019B100019009B
:1025B00003B000BD00B58BB002900391009201936F
:1025C000029A039B10001900FFF76AFF02000B003C
:1025D0000692079306980799009A019B12184B419F
:1025E00008920993089A099B002B04DA01225242AF
:1025F000074B08920993089A099B04A90800FFF762
:1026000058FF049A059B100019000BB000BDC0468E
:10261000FFFFFF7F00B583B000900191FFF7BAFF85
:10262000009A019BFFF7C6FF02000B001000190083
:1026300003B000BD30B585B00290039100920193C4
:10264000009A019B10001900FFF72AFF04000D00FB
:10265000029A039B10001900FFF722FF02000B00F3
:10266000A41A9D4122002B001000190005B030BDB6
:1026700000B589B0069007910592049300F060F9C7
:10268000069A079B0AA90978029104990191059974
:10269000009100F037FC0300180009B000BD00B540
:1026A00083B0019000F04CF90200019B190010006A
:1026B00000F02CFD0300180003B000BD034B1B69A4
:1026C0005A1E9341DBB218007047C046E414002044
:1026D00084B001900091019B3C331A000121009BC2
:1026E00099400B0003920293039B8022920194462F
:1026F0006344029A1A60C046C04604B0704784B072
:1027000001900091019B3C331A000121009B9940EC
:102710000B0003920293039BC022920194466344F0
:10272000029A1A60C046C04604B0704782B0019059
:1027300000910122009B9A40019B5A63C04602B05F
:10274000704700B587B00190EFF305830393039BB7
:10275000103B0593059B9B081800FFF713FF030030
:102760000493059B03221A40019B1A60049B1800E6
:1027700007B000BD00B589B00390029100920193AB
:10278000039B1800FFF7A6FE03000793009A079B20
:10279000D31A0693039B029A04329200D258079BE5
:1027A000D31A0593069A059B9A4205D20099039B7A
:1027B000029A04329200D150C04609B000BD00B563
:1027C00089B00390029100920193039B1800FFF7D8
:1027D00081FE03000793009A079BD31A0693039B7D
:1027E000029A04329200D258079BD31A0593059A95
:1027F0000699002391425B41DBB2180009B000BD8D
:1028000000B583B00190019B180000F0F9FE0200B2
:102810000B001000190003B000BD00B589B0039093
:1028200002910192029A039B11001800FFF798FE93
:10283000030007930122029B9A40039B1A62019AAC
:10284000079B11001800FFF7F7F8079B01211800FC
:10285000FFF73CF8039B38331A000121029B994093
:102860000B0006920593069B8022920194466344D6
:10287000059A1A60C046C04609B000BD00B583B0D5
:1028800001900091009A019B1100180000F09CFE3D
:10289000C04603B000BD00B583B00190019B180095
:1028A000FFF76AFE0300180003B000BD014B1800DB
:1028B0007047C0460040054082B00190019B1B1448
:1028C0001BB2180002B0704782B00190019B9BB20E
:1028D000180002B0704782B001900A006B460233C4
:1028E0001A80019B1A046B4602331B88134318009D
:1028F00002B0704700B583B0FFF7E0FE03001A0096
:1029000001235340DBB2002B0ED000F037FE030052
:102910000193019B03211800FFF7B0FF01990648BE
:102920001023032200F088FA044B0A211800FFF755
:10293000B7FCC04603B000BDE4140020F8720020CC
:10294000014B18007047C046E414002000B5AFB03A
:1029500001AB1800FFF7F5FE03002493249B180039
:10296000FFF799FF03002393019AC54B2399890030
:102970008A189200D3582293019A249B11001800C0
:10298000FFF7BDFE019A249B11001800FFF7CEFE51
:1029900086236B44229A12891A8086236B44002274
:1029A0009B5E002B00DA15E1229B596986236B445C
:1029B00000229A5E13005B009B18DB00CB1820936B
:1029C000209B9A68DB681E921F93249B1800FFF7D8
:1029D00017FF02000B00100019001E9A1F9B801A9F
:1029E000994102000B00002B00DAF3E01F9B002B43
:1029F00030DB209B1A69A34B9A4212D1209B5B6962
:102A00001C931C9B1B691C9A10009847031E03D043
:102A10001C9B1A685B6801E0002200232C922D9316
:102A20001CE0229B08229B5E1A00209B5B889BB2C5
:102A300019001000FFF74FFF03001D93209B1A6938
:102A4000209B59691D9B1800904702000B002C9297
:102A50002D9303E0002200232C922D932C9B2D9A82
:102A6000134300D176E02D9B002B0ADA1E981F99A4
:102A70002C9A2D9B801A994102000B002A922B93CD
:102A80000DE0249B1800FFF7BBFE02000B001000B6
:102A900019002C9A2D9B12184B412A922B932099A6
:102AA0002A9A2B9B8A60CB60209B00229B5E002B86
:102AB00000DA8FE0229B5A69209B00215B5E19009F
:102AC0000B005B005B18DB00D3189A68DB682A9860
:102AD0002B99801A994102000B00002B00DA79E053
:102AE000209B00229A5E229B1A81229B0833299305
:102AF0000BE0229B5A69299B00215B5E19000B00A9
:102B00005B005B18DB00D3182993299B00229B5E96
:102B1000002B14DB229B5A69299B00215B5E190064
:102B20000B005B005B18DB00D3189A68DB682A98FF
:102B30002B99801A994102000B00002BD9DA299BAE
:102B400000229A5E209B1A80299B86226A44128862
:102B50001A803FE0209B00229A5E229B1A81229BD2
:102B60001B690D93EFF3108372B60C930C9B0B93C0
:102B70000D9B0A9300E0C0460A9B1B685A425341D2
:102B8000DBB2002BF7D1BFF35F8FC046C046C04613
:102B90000B9B1B93229B02229A5E209B1A80229BF6
:102BA00086226A4412885A80229B1B6911931B9BC0
:102BB0001093119B0F93BFF35F8FC046C0460F9BCE
:102BC00000221A60C046109B0E930E9B83F3108860
:102BD000C046C046229B9B881BB2002B00DA93E0C4
:102BE000229B1B690593EFF3108372B60493049B39
:102BF0000393059B029300E0C046029B1B685A4268
:102C00005341DBB2002BF7D1BFF35F8FC046C04604
:102C1000C046039B1A93A2236B44229A92881A807F
:102C2000229B012252429A80229B1B6909931A9B84
:102C30000893099B0793BFF35F8FC046C046079B6D
:102C400000221A60C046089B0693069B83F31088F7
:102C5000C046C04652E0229B5969A2236B44002221
:102C60009A5E13005B009B18DB00CB181993199B2D
:102C70009A68DB6816921793229B083327930FE01C
:102C8000DC7000204D290010229B5A69279B0021EF
:102C90005B5E19000B005B005B18DB00D318279309
:102CA000279B00229B5E002B14DB229B5A69279BEB
:102CB00000215B5E19000B005B005B18DB00D31882
:102CC0009A68DB6816981799801A994102000B00E0
:102CD000002BD9DA56236B44279A12881A80279B37
:102CE000A2226A4412881A80A2236B44199A12887D
:102CF0001A80199B56226A4412881A80A2236B44B8
:102D000000229B5E002BA6DA229B9B79DBB2002B74
:102D100050D0229B00229A71C046229B08332693F2
:102D200096236B44229A12891A803DE0229B5969AE
:102D300096236B4400229A5E13005B009B18DB0015
:102D4000CB1814934E236B44149A12881A80149B48
:102D50005B889BB21BB2002B1EDA149901225242EF
:102D6000D3178A60CB60229B08229B5E96226A441E
:102D70000021525E9A4211D0149B00229A5E269B3B
:102D80001A80229B08229A5E149B1A80229B96220C
:102D90006A4412881A8101E0149B269396236B449F
:102DA0004E226A4412881A8096236B4400229B5E4E
:102DB0000133BBD186236B44229A12891A80862361
:102DC0006B4400229B5E002B2FDB229B59698623DC
:102DD0006B4400229A5E13005B009B18DB00CB184B
:102DE0001293129B9A68DB681E921F931E9B0133FD
:102DF00002D11F9B013305D001991E9A1F9B249875
:102E0000FFF7B8FC249B1800FFF7FAFC02000B0048
:102E1000100019001E9A1F9B121A8B41002B05DC13
:102E200000D0AFE5002A01D1ACE5C04640BFC046A6
:102E3000C0462FB000BDC04600B587B003900291D8
:102E400001920093039B029ADA60FEF78DFC030067
:102E50000493049B284A944663449B001A00039BF6
:102E60001A61019BDAB2039B1A70009B9AB2039B12
:102E70005A81D0231B061B68DAB2039B5A70039B4E
:102E8000012252421A81039B08229A5E039B9A8078
:102E9000009B9BB2013B9BB21AB2039B5A8000235A
:102EA000059310E0059B9BB2013B98B2039B5969C7
:102EB000059A13005B009B18DB00CB1802B21A8046
:102EC000059B01330593059A009B9A42EAD3029B26
:102ED0001800FFF7E0FC0200084B9100019A8A18E5
:102EE00092000399D150064A0199029B1800FFF7FE
:102EF00094FCC04607B000BD40000034DC700020E8
:102F00004D29001000B589B00590029203930CABD7
:102F10001B7801225340DBB2002B11D0FFF73AFBA4
:102F200002000B0006920793029A039B06980799EA
:102F3000FFF780FB02000B00002B01DA002309E001
:102F4000029A039B05980B9901910A99009100F050
:102F500004F80300180009B000BD00B59BB0039051
:102F600000920193039B1B691493EFF3108372B6D5
:102F70001393139B1293149B119300E0C046119B73
:102F80001B685A425341DBB2002BF7D1BFF35F8F6E
:102F9000C046C046C046129B18935E236B44039AFA
:102FA00052881A80039B59695E236B4400229A5E03
:102FB00013005B009B18DB00CB1816935E236B4459
:102FC00000229B5E002B04DB169B00229A5E039B73
:102FD0005A80039B1B691093189B0F93109B0E93B1
:102FE000BFF35F8FC046C0460E9B00221A60C046EA
:102FF0000F9B0D930D9B83F31088C046C0465E2344
:103000006B4400229B5E002B02DA01235B4279E0D5
:10301000169B1C9A1A61169B1D9A5A61009A019B75
:1030200010001900FFF73CFA02000B0016998A60A5
:10303000CB60169B5B889BB201339AB266236B44CC
:103040005204520C1A8066236B441B88002B03D158
:1030500066236B4401221A80169B66226A441288FA
:103060005A805E236B4400229A5E66236B441B8861
:1030700019001000FFF72FFC03001593039B1B6939
:103080000893EFF3108372B60793079B0693089B90
:10309000059300E0C046059B1B685A425341DBB2D2
:1030A000002BF7D1BFF35F8FC046C046C046069BDA
:1030B0001893039B9B881AB2169B1A80039B5E226F
:1030C0006A4412889A80039B1B690C93189B0B938C
:1030D0000C9B0A93BFF35F8FC046C0460A9B002239
:1030E0001A60C0460B9B0993099B83F31088C04666
:1030F000C046039BDA68039B1B7819001000FFF79A
:10310000E7FA159B18001BB000BD000010B590B089
:10311000019000910FAC009B1800FFF7CDFB03005E
:1031200023800FAB00229B5E019A5289934201DB00
:10313000002370E03A246C44009B1800FFF7C4FBA6
:10314000030023803F236B4400221A70019B5969BE
:103150000FAB00229A5E13005B009B18DB00CB18BC
:103160000D93019B1B690A93EFF3108372B60993C9
:10317000099B08930A9B079300E0C046079B1B68C6
:103180005A425341DBB2002BF7D1BFF35F8FC046E9
:10319000C046C046089B0C930D9B5B889BB20B936B
:1031A0003A236B441B880B9A9A420ED10B9B9BB21D
:1031B0001A4A13439AB20D9B5A80C046019B0122C2
:1031C0009A713F236B4401221A70019B1B6906937D
:1031D0000C9B0593069B0493BFF35F8FC046C046CC
:1031E000049B00221A60C046059B0393039B83F354
:1031F0001088C046C0463F236B441B78002B07D085
:10320000019BDA68019B1B7819001000FFF760FA38
:103210003F236B441B78180010B010BD0080FFFFE7
:1032200082B00190019B5B78180002B070470000EB
:103230008CB0019000911C4B1B680693EFF3108338
:1032400072B60593059B0493069B039300E0C0466A
:10325000039B1B685A425341DBB2002BF7D1BFF3EB
:103260005F8FC046C046C046049B0B930E4B1B6845
:103270000A930B9B09930A9B0893BFF35F8FC04689
:10328000C046089B00221A60C046099B0793079B13
:1032900083F31088C046C04640BFC04600220023CA
:1032A000100019000CB07047F872002000B595B0FE
:1032B00002900391029A039B10001900FFF7F0F8A7
:1032C00002000B0010921193109A119B06204042AD
:1032D000C11712184B4112921393139A119B9A42E1
:1032E00007D8139A119B9A4207D1129A109B9A42BF
:1032F00003D90022002312921393129A139B04A95C
:103300000800FFF7D6F8FFF745F9049A059BFFF789
:1033100091F902000B00002B02DC4CD1002A4AD0AC
:1033200004980599284A002300930023FFF7A0F989
:10333000031E40DB32E0254B1B680A93EFF310833A
:1033400072B60993099B08930A9B079300E0C04655
:10335000079B1B685A425341DBB2002BF7D1BFF3E6
:103360005F8FC046C046C046089B0F93174B1B6833
:103370000E930F9B0D930E9B0C93BFF35F8FC04674
:10338000C0460C9B00221A60C0460D9B0B930B9B02
:1033900083F31088C046C04620BFC046049A059BF0
:1033A00010001900FFF7CCF803001A000123534066
:1033B000DBB2002BBFD1029A039B1000190000F072
:1033C000CDF9C04615B000BD31320010F8720020B2
:1033D00000B583B000900191009A019B1000190084
:1033E000FFF718F902000B0010001900FFF75EFF4D
:1033F000C04603B000BD30B583B00190019B1C00F6
:1034000000231D00FA22920000232000290001F071
:103410001BFF02000B0010001900FFF7D9FFC04688
:1034200003B030BD30B587B002900391EFF3058350
:103430000493049B002B08D0C046029A039B100003
:103440001900FFF77DF8030050E0FFF779FA030059
:10345000DC68FFF775FA03001B781D00029A039BD6
:1034600010001900FFF71CF802000B0029002000D3
:10347000FFF7A5F9031E09D020BFC046029A039B9F
:1034800010001900FFF75CF803002FE0194A0298BA
:103490000399002300930023FFF7EAF80300059344
:1034A000059B002B08DCC046029A039B1000190004
:1034B000FFF746F8030019E0029A039B1000190079
:1034C000FFF73EF803001A0001235340DBB2002B44
:1034D00001D020BFC046059B1800FFF7E0F8029A14
:1034E000039B10001900FFF72BF80300180007B02A
:1034F00030BDC0463132001000B589B0079004924B
:103500000593049B059A134303D1012200230492DF
:1035100005930C9B079A9A600C9B0A9A1A610C9966
:10352000049A059B0A604B600C9B0B9A5A61049AA3
:10353000059B002B05DA00200021801A994102002A
:103540000B0010001900FFF765F802000B00079848
:10355000012102910C99019107490091FFF7D2FCDA
:1035600002000C9BDA600C9BDB68DA17D31ADB0FC6
:10357000DBB2180009B000BD4D29001010B5FFF7EF
:1035800095F90300180010BD82B000900191009AD7
:10359000019B1000190002B0704784B003900092A4
:1035A00001930399009A019B0A604B60C04604B0E6
:1035B000704782B00190C04602B0704782B001905F
:1035C0000023180002B0704700B583B0019000914D
:1035D000009B1800FFF7EDFF019B1800FFF7EEFFBF
:1035E0000200054BD318054A00991800FEF73AF877
:1035F000C04603B000BDC0461826002068DE00109B
:10360000F0B589B003900399496A07910399896AD3
:1036100006910399496A059107980599884202D055
:1036200005990791F2E7C0460799009100210191A1
:1036300000990B0000210A0006990C0000210D00E2
:10364000110021430E002B431F0032003B001000ED
:10365000190009B0F0BD00B58BB003900092019342
:10366000039B1800FFF7CCFF02000B0006920793A4
:1036700006980799009A019B12184B4108920993EA
:10368000079A099B9A4207D8079A099B9A4208D140
:10369000069A089B9A4204D901225242D3170892F3
:1036A0000993089A099B04A90800FFF776FF049A7A
:1036B000059B0399080000F003F8C0460BB000BD5D
:1036C00030B58BB0039000920193009A019B1000DB
:1036D0001900FFF759FF02000B0006920793079BA2
:1036E0001C0000231D0023000593039B5B6A0993C4
:1036F00003E0039B5B6A0993C046099A059B9A42C3
:10370000F7D303E0039B5B6A0993C046099A059BC4
:103710009A4204D1039B9A6A069B9A42F2D3C0460E
:103720000BB030BD10B5044B1800FFF769FF020065
:103730000B001000190010BD0040054000B583B01B
:1037400000900191009A019B03490800FFF783FF55
:10375000C04603B000BDC0460040054000B583B080
:1037600000900191009A019B03490800FFF7A8FF10
:10377000C04603B000BDC0460040054086B0019081
:103780000122019B9A401300094A05920493059B6C
:103790000393049B0293039B80229201944663440B
:1037A000029A1A60C046C046C04606B07047C0467E
:1037B00000C0004088B001900122019B9A40130094
:1037C0000E4A07920E4A06920593079B0493059BA7
:1037D0000393049BC022920194466344039A1A60A7
:1037E000C04600E0C046069B1B68DB43059A1340B9
:1037F000F8D1C046C04608B07047C04600C000407F
:1038000008C0004082B00190019B044A9446634482
:103810005A425341DBB2180002B070470080FCBF2F
:1038200000B583B00190019B1800FFF7EBFF019BEF
:10383000180003B000BD00B583B00190019B1800D3
:10384000FFF7E0FF031E01D0172300E01623180046
:1038500003B000BD00B583B00190062000F0A8FAC7
:103860000300180003B000BD00B583B00190019BB8
:103870001800FFF7E0FF03001800FFF77FFFC046C6
:1038800003B000BD00B583B00190019B1800FFF7A5
:10389000D2FF03001800FFF78DFFC04603B000BD44
:1038A00000B58DB001900091019B1800FFF7D2FF89
:1038B000031E01D100235DE0019B1800FFF7D4FF38
:1038C000019B1800FFF7DEFF019B0021180000F0AC
:1038D00033F9009A019B1100180000F0D9F8030099
:1038E0000B9308230A930123099300230893019B58
:1038F0001800FFF795FF03002C331A000A9B053BC5
:103900005901099B013BDB001943089B002B01D0A7
:10391000022300E000231943089B012B01D104235B
:1039200000E000230B4310210B43079206937E23F4
:103930000593079B1A68069B5340059A1340079A04
:1039400004920393049B8022520194466344039A99
:103950001A60C046C046019B1800FFF761FF0300D4
:10396000064A1A63019B1800FFF75AFF030003225F
:103970009A640B9B18000DB000BDC0460103000007
:1039800030B58BB00190019B1800FFF749FF030091
:103990001B6B0993099B012213403FD0019B180028
:1039A000FFF73EFF0300303303931E4B0293039B4C
:1039B000C022920194466344029A1A60C046019B59
:1039C0001800FFF72DFF03005B6A0893019B1800A6
:1039D000FFF726FF03009B6A0793089B9B01079A4A
:1039E000D3180693069B9B020693019B1800FFF7D2
:1039F00031FF03000C49180000F0F8FD03000593A7
:103A00000599069800F0F2FD03000493049B1C0046
:103A100000231D0020002900FFF790FE099B1800DD
:103A20000BB030BD010300004E0E000000B58BB09E
:103A3000039002910192039B1800FFF7A1FF03007E
:103A40000993039B1800FFF7EBFE03002C33089348
:103A5000029B0793019B0693089B1A68079B5340A0
:103A6000069A1340089A05920493059B80225201FE
:103A700094466344049A1A60C046C046039B1800EB
:103A8000FFF7CEFE0300099A1A63C0460BB000BDD3
:103A900000B587B001900091019B1800FFF7DAFE96
:103AA0000300DB000099180000F0A0FD03000133C3
:103AB0000393039BDB090593059B002B04D1012392
:103AC0000593002304930DE0059B194A934204D902
:103AD000184B05930023049304E0039B5B083F22EB
:103AE00013400493019B1800FFF79AFE0300059A08
:103AF0005A62019B1800FFF793FE0300049A9A6232
:103B0000019B002200211800FFF790FF019B180085
:103B1000FFF7A0FE03009800059B9A01049BD318B1
:103B2000190000F063FD0300180007B000BDC04697
:103B3000FEFF0000FFFF000010B582B001900A00F8
:103B40006B4603331A706B4603331B78002B01D08E
:103B50000A2401E080235C00019B1800FFF752FE5D
:103B60000200034B5200211CD152C04602B010BDCE
:103B70000473002082B00190019B033BFDD20193AE
:103B8000C04602B0704782B002006B4607331A701D
:103B90006B4607331B78052B04D06B4607331B7825
:103BA000042B01D1012300E000231A1C0123134040
:103BB000DBB2180002B0704700B597B002910192D5
:103BC00000930F236B44021C1A700F236B441A7866
:103BD00013005B009B189B00584A9446634415935E
:103BE000159B5B68189A9A4202D9159B189A5A60DD
:103BF0000F236B441B781800FFF7C5FF031E16D078
:103C0000029B012B13D1159B139303231293139B38
:103C1000C022920194466344129A1A60C04600E0A2
:103C2000C046159B9B6801221340F9D029E0159BE3
:103C3000119380231B011093119BC0229201944683
:103C40006344109A1A60C0460F236B441A783C4BA9
:103C50009200D358002B14D0394B58690F236B4472
:103C60001A78374B9200D358190000F0BFFC0300BC
:103C700001331493149A13005B009B181800FFF78C
:103C800079FF159A019B5B010F920E93E0230D9330
:103C90000F9B1A680E9B53400D9A13400F9A0C927B
:103CA0000B930C9B80225201944663440B9A1A603A
:103CB000C046C0460F236B441B781800FFF763FF14
:103CC000031E21D0159B0A93029B0993032308939B
:103CD0000A9B1A68099B5340089A13400A9A079254
:103CE0000693079B8022520194466344069A1A6009
:103CF000C046C04600E0C046159B9B680121029A61
:103D000091400A001340F6D0159B059380231B01B8
:103D10000493059B8022920194466344049A1A609E
:103D2000C046159B189A5A600F236B441A78044BAF
:103D300092000099D150C04617B000BD00800040ED
:103D40001C26002030B587B00491039202931723FC
:103D50006B44021C1A700A99029800F047FC030099
:103D60001D000A9B1B02039C049917226A441078C9
:103D700000932B002200FFF71FFFC04607B030BDA5
:103D800010B586B004910392029317236B44021C72
:103D90001A70029C039A049917236B4418788023A5
:103DA0005B0000932300FFF707FFC04606B010BD7D
:103DB00082B002006B4607331A706B4607331A78DD
:103DC000024B9200D358180002B070471C26002006
:103DD00082B0020000916B4607331A706B460733BE
:103DE0001A78034B92000099D150C04602B0704738
:103DF0001C2600208CB001900122019B9A401300E8
:103E0000184A06920593069B0493059B0393049B13
:103E10008022920194466344039A1A60C046C046C9
:103E20000122019B9A4013000E4A0B920E4A0A92FD
:103E300009930B9B0893099B0793089BC02292014F
:103E400094466344079A1A60C04600E0C0460A9B45
:103E50001B68DB43099A1340F8D1C046C0460CB03A
:103E60007047C04600C0004008C0004000B58DB09B
:103E700003900291019200930299314800F0B6FB41
:103E800003000B930B99019800F0B0FB03000A9319
:103E9000009B1A040E9B1B0313430993039B1B688F
:103EA000002B15DA039B1B683F221340029A9A42AB
:103EB0000ED1039B9B681B051B0D0A9A9A4207D1E2
:103EC000039BDA68EE23DB021340099A9A4234D04E
:103ED000039B1C4A934201D10D2300E00C231800E0
:103EE000FFF788FF039B029A1A60039B0A9A9A6065
:103EF00021230893039B04330793089B0693079B96
:103F0000C022920194466344069A1A60C04600E0BB
:103F1000C046039B1B68002BFADA039B099ADA6000
:103F2000039B0433059308230493059BC02292014D
:103F300094466344049A1A6000E0C0460DB000BD88
:103F4000001BB70000C00240024A034B1B685360CD
:103F5000C046704700800540B470002000B591B0A5
:103F600001900A006B4603331A70394B0C9380237F
:103F7000DB050B930C9BC0229201944663440B9A81
:103F80001A60C046334B0E93334B0D930E9B802229
:103F90009201944663440D9A1A60C046E023DB0404
:103FA0000F936B4603331B78002B0BD0284B0A93DF
:103FB0000F9B09930A9B8022920194466344099ABD
:103FC0001A600BE0224B08930F9B0793089BC022BB
:103FD000920194466344079A1A60C046019B002BE5
:103FE0000CD11B4B069380231B060593069B802256
:103FF000920194466344059A1A6026E0019A1300E0
:104000005B019B1A9B009B18DB001A00134B1A6084
:10401000124B1B685A00114B1A60104B1A68802310
:104020005B049A4202D30D4B0D4A1A60FFF78CFFD6
:10403000074B04938023DB050393049B80229201AA
:1040400094466344039A1A60C046C04611B000BD4E
:104050000080054008000140FCFF0100B470002012
:10406000FFFFFF0000B587B0039002910192174B4C
:1040700005938023DB050493059BC022920194469F
:104080006344049A1A60C046039B002B12D0039B22
:104090000122134303930D4B0D4ADA610B4B039A34
:1040A0000C494A401A62094B029A5A62074B039A1A
:1040B0009A6202E0054B0022DA61019B00211800A0
:1040C000FFF74CFFC04607B000BDC046008005406A
:1040D000D3C007B02D3FF84F82B0020000916B466D
:1040E00007331A70044B009A802189000A43DA6270
:1040F000C04602B07047C0460080054000B589B098
:104100000190019B07931A236B4418221A801A23EB
:104110006B441B881B88059312236B4414221A805E
:1041200012236B441B881B8803930799039A059BF2
:10413000100098470300180009B000BD00B587B013
:10414000019003AB18221A8003AB1B881B880593D0
:104150000E236B4416221A800E236B441B881B8887
:1041600004930199049A059B1000984703001800D6
:1041700007B000BD00B585B0019000910F236B44DE
:1041800001221A70002302931CE0029B9B00019AFB
:10419000D3181B681800FFF7B1FF0100029B9B00BA
:1041A000019AD3180A001A60029B9B00019AD31847
:1041B0001B68002B03D10F236B4400221A70029B53
:1041C00001330293029A009B9A42DED30F236B4481
:1041D0001B78180005B000BD00B587B003900291B0
:1041E0006B4607331A70094B1800FFF787FF03006F
:1041F0000593039B002B04DB0122039B9A401300D1
:1042000000E000230299059A1800904755420000EB
:1042100082B00E4BAA2212011A600C4B2F22DA60D8
:104220000A4B01930A4B0093019B80229201944612
:104230006344009A1A60C04600E0C046034B5B68C6
:10424000002BFADAC046C04602B070470040024078
:1042500000B0FA0010B5024B1800FDF787F9C04610
:10426000A0DE001000B585B00190019B039307E02C
:10427000039B1B680293029B9847039B04330393A1
:10428000039A034B9A42F3D3C046C04605B000BD23
:1042900084D9001010B5034B1800FFF7E3FFC046A8
:1042A00010BDC04648D90010C04670478CB01A4BAC
:1042B00005931A4B0493059B0393049B0293039B62
:1042C0000193029B8022920194466344019A1A60F2
:1042D000C046C046C046124B0B93104B0A93114B7D
:1042E00009930B9B08930A9B0793089B0693079BD4
:1042F000C022920194466344069A1A60C04600E0C8
:10430000C046099B1B68DB43089A1340F8D1C0469E
:10431000C046C0460CB07047BFCDFBFE00C0004099
:10432000FE7F3C0008C0004082B00A4BDB6C002BD3
:104330000CD1094B01938023DB020093019B802267
:10434000920194466344009A1A60C046C04602B087
:104350007047C046000011504C00115086B0104B01
:104360000593104B0493104B0393059B0293049BFE
:104370000193029B0093019BC022920194466344E7
:10438000009A1A60C04600E0C046039B1B68DB43EE
:10439000029A1340F8D1C046C046C04606B07047E6
:1043A000FFFFFF0100C0004008C0004082B0074B83
:1043B00001934023019A9367019A5367019A136707
:1043C000019AD366C04602B07047C04600F0014073
:1043D00010B5FDF7F7F9C04610BD000010B5074B4A
:1043E0009B681A00064B18001100C0231A0001F048
:1043F00005F8024B024A9A60C04610BD00ED00E08D
:1044000000000020002318007047000000B583B0B2
:104410000420FFF7CDFC03000C49180000F0E6F87B
:10442000030000930023019309E0019BDBB2009A93
:1044300011001800FFF750FE019B01330193019B0F
:10444000002BF2DDC046C04603B000BD40420F0065
:1044500000B589B0FFF7D6FF031E1AD000230793DB
:1044600009E0079BDBB23E4A11001800FFF7B0FCE1
:10447000079B01330793079B092BF2D9394B19008E
:104480000420FFF7A5FC384B19000920FFF7A0FC1A
:1044900060E0364B00229A67FFF7BAFE344B069372
:1044A00001230593069BC022920194466344059A1A
:1044B0001A60C04600E0C0462C4B5B6C012BFAD161
:1044C0002C4B049303230393049BC0229201944634
:1044D0006344039A1A60C04600E0C046234B9B6BBE
:1044E000012BFAD1244A25480223009306230121F7
:1044F000FFF7BCFC224A2348052300930523012132
:10450000FFF7B4FC174B002202210420FFF738FC10
:104510001D4B002201210520FFF732FC104B002229
:1045200000210720FFF72CFC0D4B00220021082062
:10453000FFF726FC0A4A8023DB00009313000022C9
:1045400000210920FFF7FEFB0F4B0022002106206F
:10455000FFF716FCFFF75AFFC04609B000BDC04682
:10456000006CDC02001BB7001BB70000008000409D
:104570003C80004030800040002F6859008002409D
:10458000008C864700C0024040597307014804214F
:10459000014B18470015002075410010124A936F17
:1045A0009B0815D29066D166002905D0FFE7FFE78A
:1045B000FFE7516F106F704704B580210906C217DD
:1045C0005140002800D0C84309F07EF9002104BD05
:1045D000F0B5146E556E576F166FFFF7E3FF146654
:1045E000556657671667F0BD000000D0114A936FFB
:1045F0009B0813D210665166002905D0FFE7FFE73C
:10460000FFE7516F106F704704B5002801D00020FC
:10461000C04309F059F9002104BDC046F0B5146E3D
:10462000556E576F166FFFF7E5FF146655665767AF
:104630001667F0BD000000D094464A4A926F920877
:10464000624601D228E0C046F0B5464E346E756E23
:10465000776F366F00F020F89446424A146655662C
:10466000576716676246F0BD94463E4A926F9208BD
:10467000624601D254E0C046F0B53A4E346E756ED3
:10468000776F366F00F04CF89446364A14665566DC
:10469000576716676246F0BD002B24DB11D0002956
:1046A0003EDA00B5C943404200D1013100F038F88C
:1046B000C943404200D10131DB43524200D10133B2
:1046C00000BD002AEBD1002801D1002905D000202F
:1046D000C90FC90701D1C043410800B509F0E4F88A
:1046E0000022002300BD00B500290ADBDB43524253
:1046F00000D1013300F014F8C943404200D1013128
:1047000000BDC943404200D10131DB43524200D1D8
:10471000013300F005F8DB43524200D1013300BD04
:10472000002923D1002B18D1002A0CD0BC460D4FF4
:1047300038667A6600210023FFE7FFE7FFE77A6F1C
:10474000386F67467047002801D00748010000B560
:1047500009F0AAF80022002300BD02000B0000208F
:1047600000217047000000D0FFFFFFFF002B00D0AA
:10477000BFE0130C28D1002AE7D080B4114F39666E
:104780007A66FFE7FFE730B4040C7B6F396F1B04D8
:1047900023433B667A66FFE7FFE7FFE7C04684B244
:1047A0007B6F3D6F1B0423433B667A66FFE7FFE7A1
:1047B000C04600232C042D0C7A6F386F0019694114
:1047C000B0BC7047000000D0F0B594460025140E30
:1047D00001D112020835140F01D112010435940FD2
:1047E00001D192000235D40F01D152000135D40B12
:1047F0000134254F7C66254C3C660E0C93B2FFE7D6
:10480000FFE7FFE73C6F6643360C7703BE46734312
:10481000DF0B5B04C01AB941130C7343DB18C91AD0
:10482000CE086643360CB64493B273431F0F1B0188
:10483000C01AB941130C73431F0B1B05C01AB941B1
:10484000860D8F023E436643360C092D24DB520A47
:104850007243801A7703460A6643360C16235B1BA5
:10486000DE40DF40BF1964466643821B7046043554
:1048700006330100D940A840C01900D30131A2423B
:1048800006D20023F0BD0000000000D0FFFFFFFFB4
:10489000121B0130F3D3F1E709277F1BFE4064466A
:1048A000A2B27243801A00D20139220C7243130C57
:1048B0001204821A99410B00704604351337010027
:1048C000F940A840801900D30131002B02D1A24247
:1048D0000AD2F0BD013000D30131121BFAD2013BE4
:1048E000F8D1A24200D2F0BD013000D30131121B39
:1048F000F7E7F0B51C0C00D080E00CB400251C0AD2
:1049000004D11B02160E3343120208351C0B04D1CE
:104910001B01160F3343120104359C0B04D19B007D
:10492000960F334392000235DC0B02D192185B41A3
:1049300001351C00971864410134464F7C66464C93
:104940003C660E0CFFE7FFE7FFE7C0463C6F66439F
:10495000360C7703BE4697B27743C01B00D20139AD
:10496000C01B00D201399FB27743C91BC91B170C6A
:1049700077437E04FF0B801BB941CE086643360C9B
:104980000C2D33DBB644120B1F053A431B0B97B2B9
:104990007743C01B00D201399FB27743C91B170C64
:1049A00077433E043F0C801BB941860D8F023E4386
:1049B000664329277F1BFE400C3D7746AF40BF1959
:1049C00030BCA2B2ABB272437343801A9941220C3D
:1049D0007243130C1204801A994102000B00013734
:1049E000001BA941F9D2781E0021F0BD0C277F1BC6
:1049F000FE4077467F0BAF40FF19E0E700245D1CC7
:104A000007D0144F7D663966FFE7FFE7FFE7FFE752
:104A10003C6F95B29EB265436643401BB141150C95
:104A20001E0C6543664336042F0C3E432D04401B89
:104A3000B141994204D202000B0020000021F0BDD8
:104A400001D19042F7D3801A994101349942F2D3AF
:104A5000F6E70000000000D0FFFFFFFF48404140A4
:104A6000484018B41B4B5B68FC46019308BD04DF4B
:104A70001B4D001018B4174B1B68FC46019308BD72
:104A800000DF254D00109446134A926F920809D218
:104A9000624618B40F4BDB68FC46019308BD0CDF7F
:104AA000DD4F00100C4AF0B5146E556E576F166F3F
:104AB0006246FFF7EEFF084A1466556657671667A9
:104AC000F0BD18B4034B9B68FC46019308BD08DF9A
:104AD000814E0010F4700020000000D0FFB550405F
:104AE0004240504059404B40594000E0FFB5154FFF
:104AF0004C00640D03D0BC4204D10C0314D8002038
:104B0000090D09055C00640D03D0BC4204D11C03EF
:104B10000AD800221B0D1B0501264B4009D44B402F
:104B200003D58B4200D18242FFBD9942FCD1904215
:104B3000FFBD0B43DB1803431343F5D0C9434918AA
:104B4000FFBD0000FF07000000B5FFF7CFFF804169
:104B500000BDC04600B5FFF7C1FF01D9002000BD70
:104B6000012000BD00B5FFF7B9FF804100BD012065
:104B700040054A00121804D85A00121801D8002023
:104B800070470120704700000021002805D17047C0
:104B9000C1174840401AFAD0C90713B5064B1B6825
:104BA00098470CBC441CA2401005120B0349091B7A
:104BB00009051943114310BDF47100201F040000C2
:104BC00010B54C00620D8023D218DB00D21A5B05B1
:104BD0007E2A10DD9E3A13DACC17090349081943DF
:104BE0005242D140640001341532202A05DAD04007
:104BF0000843604310BD002010BD0846604310BD4F
:104C0000C80FC018013810BD18B4044B5B6AFC46CD
:104C1000019308BD24DF8D5100100000F4700020C6
:104C200013231B781800704782B002006B460733CD
:104C30001A706B4606330A1C1A706B4607331A78D3
:104C40006B4606331B781B021343180002B07047F3
:104C500000B585B0FFF7E4FF03000293029B012B30
:104C60000DD10023039307E01B491C4B039A9200CC
:104C7000D150039B01330393039B1F2BF4D9029B59
:104C8000012B19DD44215320FFF7CEFF030018004C
:104C9000FFF754FA0300019346215320FFF7C4FFA6
:104CA00003001800FFF74AFA0300009301990B4B29
:104CB0008022180000F0A2FB029B022B02DC064AB5
:104CC000064B9A64064B1800FFF718FA0200054BD2
:104CD0001A60C04605B000BDE94C0010F470002019
:104CE0004C330000F471002007B5604601880A0AC1
:104CF0000230DF2AFAD1C9B2820804D30288408880
:104D00000004104300E00068014A5050039007BDC2
:104D1000F47000200FB403BC0CBCF0B50124E40710
:104D2000634000E0F0B50C0DCF0F661E3605891B01
:104D3000640503D3C943404200D30131640D03D05D
:104D4000661CF60A07D0E41B00207F00791C890747
:104D50008912803C24031D0DDF0F6E1E36059B1B40
:104D60006D0503D3DB43524200D301336D0D03D0F5
:104D70006E1CF60A07D0ED1B00227F007B1C9B07F0
:104D80009B12803D2D032F1B661B58D4A446202E5A
:104D900046DA20371400BC401D00BD40F2403341CC
:104DA0002A4380185941CB0F05D0C943C043002284
:104DB00064425041514162464D0D28D10D0D07D13D
:104DC00000281FD0241940414941013A0D0DF9D066
:104DD000640006D3013000D30131002C01D140081A
:104DE0004000013A0BD4941CE40A04D1120511448A
:104DF000DB071944F0BDD907204B194300E0D90760
:104E00000020F0BD0029DDD1002CDBD1F0BD013246
:104E1000C6074008CD0728434908002EE1D0D9E74E
:104E20003C2E29DA203E40371400BC4000D001243B
:104E3000F24014431A00BB401C43D317ACE7AC4606
:104E4000202F08DA20360400B4400D00B540F840A9
:104E500039412843A5E73C2F0CDA203F40360400B7
:104E6000B44000D00124F84004430800B1400C4392
:104E7000C117EAE710001900002494E70000F07F52
:104E8000F0B50C0D661E3605891BE60A6405640D37
:104E900002D0651CED0A04D0002001210905803CE8
:104EA0002403A4461C0D671E3F05DB1BE70A6405AF
:104EB000640D02D0651CED0A04D0002201231B05FD
:104EC000803C24037740644497B484B296B2744320
:104ED000070C7E43150C6F4380B26843361802D32B
:104EE000012000043F183004350C00197D41844630
:104EF00088B29AB250430C0C62431F0C7C438EB2B2
:104F00007E43921902D301263604A4191604170C05
:104F10003618674101BC81B29AB25143040C624316
:104F20001B0C5C4380B25843121802D301200004CA
:104F300024181004130C401863412D185E41002002
:104F4000474106BC88B293B258430C0C6343120C21
:104F5000544389B251435B1802D3012109046418F8
:104F600019041A0C091862416D1856410020474176
:104F700018BCF902720D1143F0026A0D1043ED02E4
:104F80000A0D03D16D1940414941013B124E9B1B53
:104F90007600B3420ED26D0007D301300026714176
:104FA0006646354301D1400840001B05C918E40797
:104FB0002144F0BD0BDA013306D1013004D10131B7
:104FC0004F0D01D04908F2E7E1070020F0BD01369E
:104FD00031050020EBE70000FF030000F0B51C0DD9
:104FE000671E3F05DB1BE70A6405640D02D0661CE3
:104FF000F60A04D0002201231B05803C2403D0259F
:105000002D060026F6432E661E096E66CE0FF61993
:10501000B44649004F0D02D07E1CF60A03D0002092
:105020000021403F3F033E1BB600B444013F7F05D3
:10503000C91B49082E6F013676089C02950D254341
:105040007543ED137543AD1301356D10F603761BF3
:105050000CB4CC02450D2C43A2B2B3B25A43270C78
:105060007B43350C6F43A4B26C431B1902D301245C
:1050700024043F191C041D0CA4187D4124196D4102
:10508000009A91B2ACB26143170C7C432B0C5F4386
:1050900092B25A43A41802D301221204BF18220468
:1050A000230C52187B41019C6C431B19520ED901F1
:1050B0000A434401A01A81B2B2B2514303145A43C5
:1050C000360C734387B27743D617D21900277E4137
:1050D00036049B191704160C7F185E417316ED18E1
:1050E000F301002680337541A90F06D16400690AD7
:1050F000E8055B0A184309D22FE004229444803368
:105100007541A90AA8059B0A184326D34041494185
:105110002404009A019B0D005543641B4343E41A89
:1051200095B286B27543170C7E43030C5F4392B26F
:105130005A43B61802D301221204BF183204330CAA
:1051400052197B4152429C41002C02D40022013072
:1051500051414008CA071043490802B06246D707C8
:105160009210084BD218084B9A4203D212058918A4
:10517000C919F0BD0020002A01DC3900F0BD01335F
:105180001905F5E7FD030000FE070000002200B549
:10519000203200F004F8080000BD000000220B15CA
:1051A0000AD410B5944600F031F81414013400DA32
:1051B0000021CB17144C2047002000217047624487
:1051C000343A0CD40C2A07DA040091409040524241
:1051D0002032D440214310BDD843D94310BD2032E2
:1051E00007D40C469440524220321141D040204313
:1051F00010BD0800C917203203D45242203210419A
:1052000010BD1800190010BDBF5100100A0DCC0FC1
:10521000531E1B05C91A520503D3C943404200D38C
:105220000131520D03D0531CDB0A07D0121B0020A2
:105230006400611C89078912803A1203014BD21A5B
:1052400070470000FF03000051434343C9188C46D8
:10525000110C83B24B4310B4040C614392B280B280
:10526000504362431C041B0C001910BC5941130429
:10527000120CC01851416144704713231B78180069
:10528000704782B002006B4607331A706B460633D4
:105290000A1C1A706B4607331A786B4606331B7864
:1052A0001B021343180002B07047000000B585B020
:1052B000FFF7E3FF0300029346215320FFF7E1FFCE
:1052C00003001800FEF73AFF03000193029B012B35
:1052D0001AD10199164B5422180000F08FF81523AB
:1052E000039307E01349124B039A9200D150039B9A
:1052F00001330393039B1F2BF4D90E4A0C4B1A6204
:105300000B4B1A6A0A4BDA61029B012B05DD0199EE
:10531000074B8022180000F071F8074B1800FEF7C9
:10532000EDFE0200054B1A60C04605B000BDC04648
:10533000F8710020415300104C330000F47100203C
:1053400007B5604601880A0A0230DF2AFAD1C9B2DD
:10535000820804D3028840880004104300E00068FB
:10536000014A5050039007BDF871002000B583B08A
:1053700001900091019B002B05D0019A009BD2184F
:10538000044B9A4203D9044B1800FCF7EFF8C046CF
:1053900003B000BD00000420ACDE001000B585B0F5
:1053A00001900091009A019B1100180007F038FD50
:1053B00003000393019B009A5A43039B11001800BA
:1053C000FFF7D4FF039B180005B000BD00B583B004
:1053D0000190019B180007F083FDC04603B000BD9B
:1053E00001480421014B1847101500207541001099
:1053F000014B1B681847000010150020014B5B682B
:10540000184700001015002084B00291019200930B
:105410000F236B44021C1A70C04604B0704700B5DD
:1054200085B00291019200930F236B44021C1A7005
:105430000F236B441B78002B08D0029B1A68029B39
:1054400059680F236B441B7818009047C04605B07D
:1054500000BD84B001900091019B039302E0039B87
:1054600001330393039B1B78002B04D0009B5A1E2F
:105470000092002BF3D1039A019BD31A180004B0B9
:10548000704782B002006B4607331A706B460733D1
:105490001B782F2B06D96B4607331B78392B01D885
:1054A000012300E000231A1C01231340DBB2180083
:1054B00002B0704700B585B00190002303930EE061
:1054C000039A13009B009B185B001800019B1B684C
:1054D000591C019A11601B78C318303B0393019B40
:1054E0001B681B781800FFF7CCFF031EE8D1039B55
:1054F000180005B000BD10B586B00390029101926E
:105500000093019B04930B9B0222134024D10B9B1D
:105510000122134020D1099B05930AE0019A531CF4
:105520000193009B0299039C2020A047059B013317
:105530000593059A0A9B9A42F0D30DE0099B013B23
:105540000993089A099BD3181878019A531C019360
:10555000009B0299039CA047099B002BEED10B9B5B
:10556000022213400ED007E0019A531C0193009BC6
:105570000299039C2020A047019A049BD31A0A9AFF
:105580009A42F1D8019B180006B010BD10B588B042
:105590000790069105920493109B0222134033D189
:1055A0000F9B002B16D0109B0122134012D00CAB86
:1055B0001B78002B03D1109B0C2213400AD00F9BA9
:1055C000013B0F9306E00B9B5A1C0B920A9AD318CF
:1055D00030221A700B9A0E9B9A420AD20B9B1F2BF9
:1055E000F1D906E00B9B5A1C0B920A9AD318302271
:1055F0001A70109B0122134006D00B9A0F9B9A42FF
:1056000002D20B9B1F2BEDD9109B1022134056D0BA
:10561000109A8023DB00134016D10B9B002B13D074
:105620000B9A0E9B9A4203D00B9A0F9B9A420BD176
:105630000B9B013B0B930B9B002B05D00D9B102B61
:1056400002D10B9B013B0B930D9B102B0ED1109B9A
:10565000202213400AD10B9B1F2B07D80B9B5A1CEF
:105660000B920A9AD31878221A701EE00D9B102B09
:105670000ED1109B202213400AD00B9B1F2B07D862
:105680000B9B5A1C0B920A9AD31858221A700CE0E2
:105690000D9B022B09D10B9B1F2B06D80B9B5A1C71
:1056A0000B920A9AD31862221A700B9B1F2B06D8F2
:1056B0000B9B5A1C0B920A9AD31830221A700B9B20
:1056C0001F2B22D80CAB1B78002B07D00B9B5A1C2E
:1056D0000B920A9AD3182D221A7016E0109B0422FE
:1056E000134007D00B9B5A1C0B920A9AD3182B22FB
:1056F0001A700AE0109B0822134006D00B9B5A1C1C
:105700000B920A9AD31820221A70049C059A0699C3
:105710000798109B03930F9B02930B9B01930A9B8B
:1057200000932300FFF7E7FE0300180008B010BD48
:1057300010B596B00B900A91099208930023159327
:10574000189B002B03D11D9B102293431D931D9A80
:105750008023DB00134002D0189B002B33D0189B12
:105760001A991800FEF742FF0B001A0053236B44EE
:105770001A7053236B441B78092B05D853236B44B1
:105780001B783033DAB20DE01D9B2022134001D08C
:10579000412300E0612353226A4412789B18DBB254
:1057A0000A3BDAB2159B591C15910CA9CA541A99D7
:1057B0001898FEF71BFF03001893189B002B02D0CC
:1057C000159B1F2BCBD9089C099A0A990B981D9BF6
:1057D00006931C9B05931B9B04931A9B039319AB85
:1057E0001B780293159B01930CAB00932300FFF7EA
:1057F000CDFE0300180016B010BD30B597B00B9069
:105800000A9109920893002315931A9B1B9A13433C
:1058100003D1229B102293432293229A8023DB0000
:10582000134003D01A9B1B9A13433AD01A981B9922
:105830001E9A1F9BFEF718FF1000190053236B449C
:10584000021C1A7053236B441B78092B05D8532371
:105850006B441B783033DAB20DE0229B20221340D8
:1058600001D0412300E0612353226A4412789B183F
:10587000DBB20A3BDAB2159B591C15910CA9CA542C
:105880001E9A1F9B1A981B99FEF7EEFE02000B0052
:105890001A921B931A9B1B9A134302D0159B1F2B22
:1058A000C4D91E9B089D099C0A990B98229A0692BE
:1058B000219A0592209A049203931CAB1B780293C1
:1058C000159B01930CAB00932B002200FFF75EFEAB
:1058D0000300180017B030BD70B59CB00990089156
:1058E0000792069300231B93002200231492159322
:1058F000209A219B20982199FFF739F9031E10D097
:10590000069C079A08990998249B0393239B02936A
:1059100003230193CA4B00932300FFF7ECFD030020
:10592000FCE101225242C74B20982199FFF70CF964
:10593000031E10D0069C079A08990998249B03938C
:10594000239B029304230193BF4B00932300FFF793
:10595000D2FD0300E2E101225242BC4B2098219982
:10596000FFF700F9031E1ED0249B0422134001D030
:10597000B74B00E0B74B249A04210A4001D004221F
:1059800000E00322069E079D089C09982499039134
:10599000239902910192009333002A002100FFF71E
:1059A000AAFD0300BAE10022AB4B20982199FFF732
:1059B000D9F8031E07D10022A84B20982199FFF7A0
:1059C000C3F8031E13D0069D079C08990998249BD1
:1059D0000493239B0393229B0293209A219B009282
:1059E00001932B00220000F09DF9030096E16B2348
:1059F0006B4400221A700022002320982199FFF79F
:105A0000A3F8031E0DD06B236B4401221A70209A59
:105A1000219B00200021FFF724F802000B002092B8
:105A20002193249A8023DB0013400BD10623229379
:105A300008E01B9B5A1C1B920AAA3021D154229BBE
:105A4000013B22931B9B1F2B02D8229B092BF0D8D2
:105A500020982199FFF7B4F8030019931998FFF7DC
:105A600097F802000B0020982199FEF7FAFF020038
:105A70000B00100019007A4A229BDB00D3181A6829
:105A80005B68FFF71EF802000B0012921393129846
:105A90001399FFF7B9F8030018931898FFF774F8F3
:105AA00002000B0012981399FEF7DBFF02000B00B7
:105AB0001492159300226B4B14981599FFF752F826
:105AC000031E15D0189B013318931898FFF75CF844
:105AD000634A229BDB00D3181A685B68FFF73AF829
